:020000040000FA
:1000000000040020E90800007D050000C908000088
:1000100087050000910500009B050000000000001E
:100020000000000000000000000000000D090000BA
:10003000A505000000000000AF050000B9050000A4
:10004000C3050000CD050000D7050000E105000054
:10005000EB050000F5050000FF05000009060000A3
:10006000130600001D0600002706000031060000F0
:100070003B060000450600004F0600005906000040
:10008000630600006D060000770600008106000090
:100090008B060000950600009F060000A9060000E0
:1000A000B3060000BD060000C7060000D106000030
:1000B000DB060000E5060000EF060000F906000080
:1000C000030700000D0700001707000021070000CC
:1000D0002B070000350700003F070000490700001C
:1000E000530700005D07000067070000710700006C
:1000F0007B070000850700008F07000099070000BC
:10010000A30700001FB500F003F88DE80F001FBD26
:1001100000F0E0BB1FB56FF00100009040100390AD
:10012000029001904FF010208069000B420900F00E
:100130001F045DF822300120A04083434DF8223097
:10014000684600F045F91FBDF0B54FF6FF734FF458
:10015000B4751A466E1E11E0A94201D3344600E080
:100160000C46091B30F8027B641E3B441A44F9D14B
:100170009CB204EB134394B204EB12420029EBD17E
:1001800098B200EB134002EB124140EA0140F0BD8F
:10019000DE4992B00446D1E90001CDE91001FF2209
:1001A0004021684600F03CFB94E80F008DE80F000A
:1001B000684610A902E004C841F8042D8842FAD12B
:1001C00010216846FFF7C0FF1090AA208DF8440068
:1001D000FFF7A0FF00F0F3F84FF01024A069102201
:1001E0006946803000F002F9A069082210A900F0E9
:1001F000FDF800F0D8F84FF080510A6949690068AD
:100200004A43824201D8102070470020704710B541
:10021000D0E900214FF0805002EB8103026944696C
:100220006243934209D84FF01022536903EB8103D4
:100230000169406941438B4201D9092010BD5069D1
:10024000401C01D0002010BD0F2010BD70B501680A
:100250000446AF4D4FF01020072952D2DFE801F0DD
:10026000330419293C1E2500D4E902656468294637
:10027000304600F0CDF82A462146304600F0B6F868
:10028000AA002146304600F09FFA002800D0032043
:1002900070BD00F051FB4FF4805007E0201DFFF7C8
:1002A000AAFF0028F4D100F047FB60682860002016
:1002B00070BD241D94E80700920000F085FA002824
:1002C000F6D00E2070BD8069401C12D0201DFFF7B3
:1002D0009EFF0028F6D109E08069401C09D0201D4E
:1002E000FFF789FF0028EDD1606820B12046FFF7B5
:1002F0004FFF042070BDFFF70DFF00F060F800F025
:1003000052F8072070BD10B50C46182802D0012005
:10031000086010BD2068FFF799FF206010BD4FF006
:100320001024A069401C05D0A569A66980353079E4
:10033000AA2808D06069401C2DD060690068401C64
:1003400029D060692CE010212846FFF7FDFE3168B6
:1003500081421CD1A16901F18002C03105E030B1B8
:1003600008CA51F8040D984201D1012000E0002094
:100370008A42F4D158B1286810B1042803D0FEE7AE
:10038000284600F057F862496868086008E000F005
:1003900016F800F008F84FF480500168491C01D0AD
:1003A00000F0A4FAFEE7BFF34F8F5A4801685A4A9B
:1003B00001F4E06111430160BFF34F8FFEE74FF09E
:1003C00010208169491C02D0806900F0AEB87047E6
:1003D000524A01681160121D416811604F4A8168DC
:1003E00010321160111DC068086070472DE9F0419E
:1003F00017460D460646002406E03046296800F000
:10040000A7F8641C2D1D361DBC42F6D3BDE8F08153
:1004100070B50C4605464FF4806608E0284600F0AB
:1004200084F8B44205D3A4F5806405F58055002C0A
:10043000F4D170BD4168044609B1012500E00025F2
:100440004FF010267069A268920000F0BDF9C8B1A3
:10045000204600F01AF89DB17669A56864684FF4EB
:10046000002084420AD2854208D229463046FFF74E
:10047000CFFF2A4621463046FFF7B8FFFFF79FFF20
:10048000FFF791FFFFF746FEF8E72DE9FF414FF038
:100490001024616980680D0B01EB800000F6FF708D
:1004A000010B0020009001900290024603906846E4
:1004B00001230BE0560902F01F0C50F8267003FAD6
:1004C0000CFC47EA0C0740F82670521CAA42F1D3F4
:1004D0000AE04A0901F01F0650F8225003FA06F616
:1004E000354340F82250491C8029F2D3A169090BF9
:1004F0004A0901F01F0150F822408B409C4340F80C
:100500002240FFF765FFBDE8FF8100005C090000A5
:10051000000000200CED00E00400FA050006004099
:10052000144801680029FCD07047134A0221116069
:1005300010490B68002BFCD00F4B1B1D186008687E
:100540000028FCD00020106008680028FCD070470C
:10055000094B10B501221A60064A1468002CFCD021
:10056000016010680028FCD0002018601068002886
:10057000FCD010BD00E4014004E5014008208F4993
:1005800009680958084710208C4909680958084724
:1005900014208A49096809580847182087490968BA
:1005A0000958084730208549096809580847382004
:1005B00082490968095808473C2080490968095858
:1005C000084740207D4909680958084744207B496D
:1005D00009680958084748207849096809580847B0
:1005E0004C20764909680958084750207349096822
:1005F0000958084754207149096809580847582084
:100600006E490968095808475C206C49096809580F
:100610000847602069490968095808476420674904
:100620000968095808476820644909680958084753
:100630006C20624909680958084770205F490968B9
:100640000958084774205D49096809580847782007
:100650005A490968095808477C20584909680958C7
:10066000084780205549096809580847842053499C
:1006700009680958084788205049096809580847F7
:100680008C204E4909680958084790204B49096851
:10069000095808479420494909680958084798208B
:1006A00046490968095808479C204449096809587F
:1006B0000847A0204149096809580847A4203F4934
:1006C000096809580847A8203C490968095808479B
:1006D000AC203A49096809580847B02037490968E9
:1006E00009580847B4203549096809580847B8200F
:1006F0003249096809580847BC2030490968095837
:100700000847C0202D49096809580847C4202B49CB
:10071000096809580847C82028490968095808473E
:10072000CC202649096809580847D0202349096880
:1007300009580847D4202149096809580847D82092
:100740001E49096809580847DC201C4909680958EE
:100750000847E0201949096809580847E420174963
:10076000096809580847E8201449096809580847E2
:10077000EC201249096809580847F0200F49096818
:1007800009580847F4200D49096809580847F82016
:100790000A49096809580847FC20084909680958A6
:1007A00008475FF480700549096809580847000048
:1007B00003480449024A034B704700000000002030
:1007C000680900006809000040EA010310B59B07B2
:1007D0000FD1042A0DD310C808C9121F9C42F8D0AB
:1007E00020BA19BA884201D9012010BD4FF0FF305C
:1007F00010BD1AB1D30703D0521C07E0002010BD72
:1008000010F8013B11F8014B1B1B07D110F8013BFD
:1008100011F8014B1B1B01D1921EF1D1184610BDDE
:1008200002F0FF0343EA032242EA024200F005B865
:100830007047704770474FF000020429C0F01280E3
:1008400010F0030C00F01B80CCF1040CBCF1020F83
:1008500018BF00F8012BA8BF20F8022BA1EB0C0158
:1008600000F00DB85FEAC17C24BF00F8012B00F84E
:10087000012B48BF00F8012B70474FF0000200B574
:10088000134694469646203922BFA0E80C50A0E8B3
:100890000C50B1F12001BFF4F7AF090728BFA0E861
:1008A0000C5048BF0CC05DF804EB890028BF40F82D
:1008B000042B08BF704748BF20F8022B11F0804F6F
:1008C00018BF00F8012B7047014B1B68DB68184705
:1008D0000000002009480A497047FFF7FBFFFFF7B7
:1008E00011FC00BD20BFFDE7064B1847064A10600B
:1008F000016881F30888406800470000680900002B
:10090000680900001F030000000000201EF0040F13
:100910000CBFEFF30881EFF3098188690238007892
:10092000182803D100E00000074A1047074A126860
:100930002C3212681047000000B5054B1B68054AB1
:100940009B58984700BD00000703000000000020EE
:100950005809000004000000001000000000000022
:0809600000FFFFFF0090D0032F
:10100000E8120020111D0200152F0000831C0200B1
:10101000152F0000152F0000152F00000000000004
:10102000000000000000000000000000691D020038
:10103000152F000000000000152F0000152F0000E4
:10104000D11D0200D71D0200152F0000152F000032
:10105000152F0000152F0000152F0000152F000080
:10106000DD1D0200152F0000152F0000E31D0200FA
:10107000152F0000E91D0200EF1D0200F51D020002
:10108000152F0000152F0000152F0000152F000050
:10109000152F0000152F0000152F0000152F000040
:1010A000152F0000FB1D0200152F0000152F00005A
:1010B000152F0000152F0000152F0000152F000020
:1010C000011E0200152F0000152F0000152F000033
:1010D000152F0000152F0000152F0000152F000000
:1010E000152F0000152F0000152F0000152F0000F0
:1010F000152F0000152F0000152F0000152F0000E0
:10110000152F0000152F000000F002F820F0EDFD73
:101110000AA090E8000C82448344AAF10107DA4552
:1011200001D120F0E2FDAFF2090EBAE80F0013F092
:10113000010F18BFFB1A43F0010318471C130200EC
:101140003C1302000A444FF0000C10F8013B13F06E
:10115000070408BF10F8014B1D1108BF10F8015B10
:10116000641E05D010F8016B641E01F8016BF9D103
:1011700013F0080F1EBF10F8014BAD1C0C1B09D15A
:101180006D1E58BF01F801CBFAD505E014F8016BCC
:1011900001F8016B6D1EF9D59142D6D3704700005E
:1011A0000023002400250026103A28BF78C1FBD870
:1011B000520728BF30C148BF0B6070471FB500F011
:1011C0003DF88DE80F001FBD1EF0040F0CBFEFF3BC
:1011D0000880EFF30980014A104700006F2E0000DD
:1011E0008269034981614FF001001044704700009B
:1011F000F511000001B41EB400B512F0AFFD01B44A
:101200000198864601BC01B01EBD0000F0B4404606
:10121000494652465B460FB402A0013001B506486C
:10122000004700BF01BC86460FBC804689469246F7
:101230009B46F0BC704700000911000020F052BD31
:1012400070B51A4C054609202070A01C00F05FF80C
:101250005920A08029462046BDE8704007F0F1BF24
:1012600007F0FABF70B50C461149097829B1A0F111
:101270006001552908D3012013E0602804D06928B3
:1012800002D043F201000CE020CC0A4E94E80E009C
:1012900006EB8000A0F58050241FD0F8806E284611
:1012A000B047206070BD012070470000080000209A
:1012B0001C0000204C1E020010B504460021012035
:1012C00000F03BF800210B2000F037F80421192032
:1012D00000F033F804210D2000F02FF804210E2037
:1012E00000F02BF804210F2000F027F80421C84358
:1012F00000F023F80621162000F01FF80621152023
:1013000000F01BF82046FFF79BFF002010BD9D2139
:1013100001807047FFF7A4BF10487047104A10B50E
:1013200014680F4B0F4A08331A60FFF79BFF0C48F5
:10133000001D046010BD704770474907090E002862
:1013400006DA00F00F0000F1E02080F8141D70476D
:1013500000F1E02080F800147047000003F900421B
:101360001005024001000001FE48002101604160BB
:10137000018170472DE9F743044692B091464068D9
:1013800012F0B2FF40B1606812F0B7FF20B9607888
:1013900000F00300022801D0012000E00020F14EFF
:1013A0004D463072484612F05BFF18B1102015B060
:1013B000BDE8F0832946012001F029FF0028F6D17D
:1013C00001258DF842504FF4C050ADF84000002286
:1013D00010A9284606F0FAFB0028E8D18DF8425003
:1013E0004FF428504FF00008ADF8400047461C214C
:1013F0006846CDF81C8020F018FC9DF81C0008AA57
:1014000020F00F00401C20F0F00010308DF81C0080
:1014100020788DF81D0061789DF81E0061F3420070
:1014200040F001008DF81E009DF800000AA940F070
:1014300002008DF800002089ADF83000ADF8327060
:10144000608907AFADF834000B97606810AC0E9060
:101450000A94684606F0AFF90028A8D1BDF820002C
:1014600030808DF8425042F60120ADF840009DF8E2
:101470001E0008AA20F00600801C20F001008DF854
:101480001E000220ADF83000ADF8340013A80E9015
:101490000AA9684606F08FF9002888D1BDF8200017
:1014A0007080311D484600F033F9002887D18DF84F
:1014B000425042F6A620ADF840001C216846CDF807
:1014C0001C8020F0B2FB9DF81C00ADF8345020F0D9
:1014D0000F00401C20F0F00010308DF81C009DF82B
:1014E0001D0008AA20F0FF008DF81D009DF81E00C9
:1014F0000AA920F0060040F00100801C8DF81E00B3
:101500009DF800008DF8445040F002008DF8000076
:10151000CDE90A4711A80E90ADF83050684606F0A4
:101520004AF9002899D1BDF82000F08000203EE75C
:101530003EB504460820ADF80000204612F090FEAB
:1015400008B110203EBD2146012001F060FE0028B8
:10155000F8D12088ADF804006088ADF80600A088B6
:10156000ADF80800E088ADF80A007E4801AB6A4695
:101570008088002106F024FDBDF800100829E1D084
:1015800003203EBD1FB50446002002900820ADF8A0
:101590000800CDF80CD0204612F062FE10B11020E9
:1015A00004B010BD6F4802AA81884FF6FF7006F0A4
:1015B0004EFF0028F4D1BDF80810082901D00320FF
:1015C000EEE7BDF800102180BDF802106180BDF883
:1015D0000410A180BDF80610E180E1E701B582B0FA
:1015E0000220ADF800005F4802AB6A464088002147
:1015F00006F0E6FCBDF80010022900D003200EBD65
:101600001CB5002100910221ADF80010019012F0EC
:101610004DFE08B110201CBD52486A4641884FF665
:10162000FF7006F014FFBDF800100229F3D003206C
:101630001CBDFEB54B4C06461546207A0F46C0072A
:1016400005D0084612F00CFE18B11020FEBD0F2088
:10165000FEBDF82D01D90C20FEBD304612F000FE73
:1016600018BB208801A905F0ECFD0028F4D13078E2
:101670008DF80500208801A906F081FC0028EBD137
:1016800000909DF800009DF8051040F002008DF8D4
:101690000000090703D040F008008DF80000208802
:1016A000694606F009FC0028D6D1ADF8085020881C
:1016B0003B4602AA002106F083FCBDF80810A942AF
:1016C000CAD00320FEBD7CB50546002000900190E5
:1016D0000888ADF800000C462846019512F004FE7B
:1016E00018B9204612F0E2FD08B110207CBD15B1FA
:1016F000BDF8000050B11B486A4601884FF6FF70E4
:1017000006F0A5FEBDF8001021807CBD0C207CBD3C
:1017100030B593B0044600200D460090142101A876
:1017200020F083FA1C2108A820F07FFA9DF8000021
:10173000CDF808D020F00F00401C20F0F000103051
:101740008DF800009DF8010020F0FF008DF80100E9
:101750009DF8200040F002008DF8200001208DF857
:10176000460001E0E201002042F60420ADF844000A
:1017700011A801902088ADF83C006088ADF83E00CB
:10178000A088ADF84000E088ADF842009DF8020066
:1017900006AA20F00600801C20F001008DF802004F
:1017A0000820ADF80C00ADF810000FA8059001A9B5
:1017B00008A806F000F8002803D1BDF8180028801A
:1017C000002013B030BD0000F0B5007B059F1E4621
:1017D00014460D46012800D0FFDF0C2030803A204F
:1017E0003880002C08D0287A052806D0287B0128CC
:1017F00000D0FFDF17206081F0BDA889FBE72DE94D
:10180000F04786B0144691F80C900E9A0D46B9F147
:10181000010F0BD01021007B2E8A8846052807D0A7
:10182000062833D0FFDF06B0BDE8F0870221F2E7DB
:10183000E8890C2100EB400001EB400018803320C8
:101840001080002CEFD0E889608100271AE0009614
:10185000688808F1020301AA696900F07AFF06EBC3
:101860000800801C07EB470186B204EB4102BDF87B
:10187000040090810DF1060140460E3210F04CFD3F
:101880007F1CBFB26089B842E1D8CCE73420108019
:10189000E889B9F1010F11D0122148430E301880A8
:1018A000002CC0D0E88960814846B9F1010F00D012
:1018B0000220207300270DF1040A1FE00621ECE747
:1018C0000096688808F1020301AA696900F041FFE7
:1018D00006EB0800801C86B2B9F1010F12D007EBAD
:1018E000C70004EB4000BDF80410C18110220AF1CA
:1018F0000201103020F000F97F1CBFB26089B842AD
:10190000DED890E707EB470104EB4102BDF8040085
:10191000D0810AF102014046103210F0FDFCEBE7E5
:101920002DE9F0470E4688B090F80CC096F80C8070
:10193000378AF5890C20109902F10C044FF0000A47
:10194000BCF1030F08D0BCF1040F3ED0BCF1070F6F
:101950007DD0FFDF08B067E705EB850C00EB4C009E
:10196000188031200880002AF4D0A8F1060000F089
:10197000FF09558125E0182101A820F056F90097AC
:101980007088434601AA716900F0E3FEBDF80400C7
:101990002080BDF80600E080BDF808002081A21C70
:1019A0000DF10A01484610F0B7FCB9F1000F00D064
:1019B00018B184F804A0A4F802A007EB080087B2CD
:1019C0000A346D1EADB2D6D2C4E705EB850C00EB30
:1019D0004C00188032200880002ABBD0A8F10500F6
:1019E00000F0FF09558137E000977088434601AA4F
:1019F000716900F0AEFE9DF80600BDF80410E180AC
:101A00002179420860F3000162F34101820862F328
:101A10008201C20862F3C301020962F304114209A0
:101A200062F34511820962F386112171C009607168
:101A3000BDF80700208122460DF10901484610F04B
:101A40006BFC18B184F802A0A4F800A000E007E045
:101A500007EB080087B20A346D1EADB2C4D279E735
:101A6000A8F1020084B205FB08F000F10E0CA3F807
:101A700000C035230B80002AA6D0558194810097A1
:101A800083B270880E32716900F063FE62E72DE95F
:101A9000F84F1E460A9D0C4681462AB1607A00F531
:101AA0008070D080E089108199F80C000C274FF0ED
:101AB00000084FF00E0A0D2873D2DFE800F09E07F1
:101AC0000E1C28303846556A737373002146484609
:101AD0000095FFF779FEBDE8F88F207B9146082836
:101AE00002D0032800D0FFDF378030200AE000BF9B
:101AF000A9F80A80EFE7207B9146042800D0FFDF99
:101B0000378031202880B9F1000FF1D1E3E7207B45
:101B10009146042800D0FFDF37803220F2E7207B97
:101B20009146022800D0FFDF37803320EAE7207B90
:101B30001746022800D0FFDF3420A6F800A0288036
:101B4000002FC8D0A7F80A80C5E7207B17460428D5
:101B500000D0FFDF3520A6F800A02880002FBAD0E3
:101B60004046A7F80A8012E0207B1746052802D0DD
:101B7000062800D0FFDF1020308036202880002F7C
:101B8000A9D0E0897881A7F80E80B9F80E00B88155
:101B9000A1E7207B9146072800D0FFDF3780372060
:101BA000B0E72AE04FF0120018804FF0380017001D
:101BB000288090D0E0897881A7F80E80A7F810805F
:101BC00099F80C000A2805D00B2809D00C280DD054
:101BD000FFDF80E7207B0C2800D0FFDF01200AE038
:101BE000207B0D2800D0FFDF042004E0207B0E289E
:101BF00000D0FFDF052038736DE7FFDF6BE770B5BE
:101C00000C46054601F076FA20B10078222804D26D
:101C1000082070BD43F2020070BD052128460EF079
:101C20001DFF206008B1002070BD032070BD2DE9AC
:101C3000FF4784B00027824602970798904689465E
:101C400012300AF0E2F8401D20F00306079828B988
:101C500007A95046FFF7D3FF002853D1B9F1000F71
:101C600005D00798017B19BB052504681BE098F88F
:101C70000000092803D00F2812D0FFDF45E00799A4
:101C800003254868B0B3497B42887143914238D9F3
:101C90008AB2B3B2011D0EF03AFD0446078002E09D
:101CA000079C042508340CB1208810B1032D28D0DE
:101CB0002BE00798012112300AF0DFF8ADF80C0094
:101CC000024602AB2946504608F0B1F9070001D19F
:101CD000A01C029007983A461230C8F80400A8F8F1
:101CE00002A003A94046029B0AF0D4F8C0B107281D
:101CF00014D200E005E0DFE800F0060811110F0A39
:101D00000C00132026E6002024E6112022E60820FD
:101D100020E643F203001DE607201BE6032019E638
:101D2000BDF80C002346CDE900702A4650460799BD
:101D300000F035FD57B9032D08D10798B3B2417BA8
:101D4000406871438AB2011D0EF0F5FCB9F1000F35
:101D5000D9D0079981F80C90D5E72DE9FE4F91462F
:101D60001A881C468A468046FAB102AB494608F0FA
:101D70005EF9050019D04046A61C27880EF08AFFA0
:101D80003246072629463B4600960EF049FB20883E
:101D90002346CDE900504A465146404600F0FFFC3C
:101DA000002020800120BDE8FE8F0020FBE710B559
:101DB00086B01C46AAB104238DF800301388ADF814
:101DC00008305288ADF80A208A788DF80E200988EC
:101DD000ADF80C1000236A462146FFF728FF06B035
:101DE00010BD1020FBE770B50D4605210EF036FE44
:101DF000040000D1FFDF294604F11200BDE8704065
:101E00000AF024B82DE9F8430D468046002607F075
:101E1000CCFA0446287812287BD2DFE800F07A5406
:101E2000543C355632321332323209323232323287
:101E30002879001FC0B2022801D0102810D114BB8D
:101E4000FFDF35E004B9FFDF052140460EF006FE56
:101E5000007B032806D004280BD0072828D0FFDFFA
:101E6000072657E02879801FC0B2022820D050B141
:101E7000F6E72879401FC0B2022819D0102817D0E1
:101E8000EEE704B9FFDF13E004B9FFDF287901288A
:101E90000ED1172139E0052140460EF0DFFD070085
:101EA00000D1FFDF07F11201404609F0A6FF2CB177
:101EB0002A462146404600F05CFC2BE013214046B8
:101EC00002F0AAFC26E0FFDF24E004B9FFDF0521D1
:101ED00040460EF0C3FD060000D1FFDF694606F163
:101EE000120009F094FF060000D0FFDFA98817292F
:101EF00001D2172200E00A46BDF80000824202D952
:101F0000014602E005E01729C3D3404600F057FC24
:101F1000CEE7FFDF3046BDE8F883401D20F0030226
:101F200019B102FB01F0001D00E0002010447047D1
:101F300013B5009850B100244FEA0D000EF091FB4C
:101F4000002C02D1F84A009911601CBD0124002028
:101F5000F4E72DE9F0470C461546242120461FF0F2
:101F600064FE05B9FFDFA87860732888DFF8B8A39E
:101F7000401D20F00301AF788946DAF800000EF02A
:101F80008EFB060000D1FFDF4FF000082660A6F8A8
:101F9000008077B109FB07F1091D0AD0DAF80000CB
:101FA0000EF07DFB060000D1FFDF6660C6F8008002
:101FB00001E0C4F80480298804F11200BDE8F0476C
:101FC00009F00DBF2DE9F047804601F112000D46E2
:101FD000814609F01AFF401DD34F20F003026E7BAB
:101FE0001446296838680EF085FB3EB104FB06F202
:101FF000121D03D0696838680EF07CFB05200EF0D6
:10200000D7FC044605200EF0DBFC201A012802D183
:1020100038680EF039FB49464046BDE8F04709F004
:10202000F3BE70B5054605210EF018FD040000D181
:10203000FFDF04F112012846BDE8704009F0DDBE63
:102040002DE9F04F91B04FF0000BADF834B0ADF882
:1020500004B047880C4605469246052138460EF0E6
:10206000FDFC060000D1FFDF24B1A780A4F806B074
:10207000A4F808B0297809220B20B2EB111F297AA5
:102080007DD104F110023827C91E4FF00C094FF022
:10209000010803920F2973D2DFE801F0F4F3F28113
:1020A00008D48A8FA13DDDF5F0B8B800307B022856
:1020B00000D0FFDFA88909EBC001ADF80410302182
:1020C000ADF83410002C25D06081B5F80E900027B3
:1020D0001DE004EBC708317C88F80E10F189A8F8E0
:1020E0000C10CDF800906888042304AA296900F038
:1020F00030FBBDF81010A8F8101009F10400BDF86D
:1021000012107F1C1FFA80F9A8F81210BFB2608964
:10211000B842DED80FE1307B022800D0FFDFE9892A
:1021200009EBC100ADF804003020ADF83400287B85
:102130000A90001FC0B20F90002CEBD06181B5F85F
:102140001090002727E000BFCDF8009068886969EB
:1021500003AA0A9B00F0FDFA0A9904EBC70809EBF1
:1021600001001FFA80F908F10C0204A90F9810F081
:10217000D3F818B188F80EB0A8F80CB001E0D7E099
:10218000D4E0BDF80C10A8F81010BDF80E107F1C9C
:10219000A8F81210BFB26089B842D5D8CBE00DA81C
:1021A000009001AB224629463046FFF728FBC2E0EB
:1021B000307B082805D0FFDF03E0307B082800D003
:1021C000FFDFE8891030ADF804003620ADF83400A8
:1021D000002C3FD0A9896181F189A18127E0307B62
:1021E000092800D0FFDFA88900F10C01ADF8041028
:1021F0003721ADF83410002C2CD06081E889009094
:10220000AB89688804F10C02296956E0E889392114
:10221000103080B2ADF80400ADF83410002C74D04A
:10222000A9896181287A10280AD002212173E989BD
:10223000E181288A0090EB8968886969039A3CE00B
:102240000121F3E70DA8009001AB22462946304654
:10225000FFF766FB6FE0307B0A2800D0FFDF12201B
:10226000ADF80400ADF834704CB3A9896181A4F8CD
:1022700010B0A4F80EB084F80C805CE020E002E01E
:1022800031E039E042E0307B0B2800D0FFDF288AC4
:10229000ADF834701230ADF8040084B1042121731C
:1022A000A9896181E989E181298A2182688A00906E
:1022B0002B8A688804F11202696900F04AFA3AE050
:1022C000307B0C2800D0FFDF1220ADF80400ADF801
:1022D00034703CB305212173A4F80AB0A4F80EB001
:1022E000A4F810B027E00DA8009001AB22462946C3
:1022F0003046FFF769FA1EE00DA8009001AB2246B8
:1023000029463046FFF7C3FB15E036E03B21ADF828
:102310000400ADF8341084B3A4F80680A4F808B023
:1023200084F80AB007E0000010000020FFDF02E0A0
:10233000012919D0FFDFBDF80400AAF800007CB124
:10234000BDF834002080BDF804006080BDF8340082
:10235000392805D03B2803D03C2801D086F80CB0A2
:1023600011B00020BDE8F08F3C21ADF80400ADF8BD
:10237000341014B1697AA172DDE7FFE7AAF8000012
:10238000EEE72DE9F84356880F46804615460521AD
:1023900030460EF063FB040000D1FFDF12340094DE
:1023A0003B46414630466A6809F02EFFB3E570B5FA
:1023B0000D4605210EF052FB040000D1FFDF294637
:1023C00004F11200BDE8704009F02CBD70B50D4657
:1023D00005210EF043FB040000D1FFDF294604F184
:1023E0001200BDE8704009F050BD70B505460521EA
:1023F0000EF034FB040000D1FFDF04F10803214696
:102400002846BDE870400422A7E470B505460521C2
:102410000EF024FB040000D1FFDF2146284623688C
:10242000BDE87040052298E470B5064605210EF01F
:1024300015FB040000D1FFDF04F1120009F0E5FCF8
:10244000401D20F0030511E0011D00880322431800
:1024500021463046FFF781FC00280BD0607BABB2F1
:10246000684382B26068011D0EF09BF96068418884
:102470000029E9D170BD70B50E46054606F095FFFE
:10248000040000D1FFDF0120207266726580207891
:1024900020F00F00C01C20F0F00030302070BDE8AC
:1024A000704006F085BF2DE9F0438BB00D46144611
:1024B000814606A9FFF7A3FB002814D14FF6FF764B
:1024C00001274FF420588CB103208DF80000102014
:1024D000ADF8100007A8059007AA204604A90FF040
:1024E0003AFF78B107200BB0BDE8F0830820ADF8C3
:1024F00008508DF80E708DF80000ADF80A60ADF848
:102500000C800CE00698A17801742188C1818DF8B7
:102510000E70ADF80850ADF80C80ADF80A606A4650
:1025200002214846069BFFF782FBDCE708B5012243
:102530008DF8022042F60202ADF800200A4603237D
:102540006946FFF734FC08BD08B501228DF802206A
:1025500042F60302ADF800200A4604236946FFF75D
:1025600026FC08BD00B587B079B102228DF80020A5
:102570000A88ADF808204988ADF80A1000236A4699
:102580000521FFF754FB07B000BD1020FBE709B1A0
:1025900007230CE40720704770B588B00D46144639
:1025A000064606A9FFF72BFB00280ED17CB10620BA
:1025B000ADF808508DF80000ADF80A40069B6A4659
:1025C0000821DC813046FFF732FB08B070BD0520E2
:1025D0008DF80000ADF80850F0E700B587B059B1AC
:1025E00007238DF80030ADF80820039100236A46D8
:1025F0000921FFF71CFBC6E71020C4E770B588B0BF
:102600000C460646002506A9FFF7F9FA0028DCD19A
:1026100006980121123009F030FC9CB1217806297E
:1026200021D2DFE801F0200505160318801E80B2D4
:10263000C01EE28880B20AB1A3681BB1824203D9EE
:102640000C20C2E71020C0E7042904D0A08850B9AC
:1026500001E00620B9E7012913D0022905D0042999
:102660001CD005292AD00720AFE709208DF80000EB
:102670006088ADF80800E088ADF80A00A068039013
:1026800023E00C208DF800006088ADF80800E08899
:10269000ADF80A00A0680A25039016E00D208DF819
:1026A00000006088ADF80800A088ADF80A00E08856
:1026B000ADF80C00A0680B25049006E00E208DF804
:1026C000000060788DF808000C256A4629463046DF
:1026D000069BFFF7ACFA78E700B587B00F228DF8BC
:1026E0000020ADF8081000236A461946FFF79FFA4C
:1026F00049E700B587B071B102228DF800200A8841
:10270000ADF808204988ADF80A1000236A46062172
:10271000FFF78DFA37E7102035E770B586B006462B
:1027200001200D46ADF808108DF800000146002389
:102730006A463046FFF77BFA040008D12946304646
:1027400005F058FC0021304605F072FC204606B02A
:1027500070BDF8B51C4615460E46069F0EF088FA69
:102760002346FF1DBCB231462A4600940DF01FFEE1
:10277000F8BD10B548800878144620F00F00C01C42
:1027800020F0F00090300B4608701822214603F12B
:1027900008001FF0F6F9BDE8104006F009BE30B49D
:1027A0001146DDE902423CB1032903D0002330BCCD
:1027B00008F0D3BA0123FAE71A8030BC704770B52D
:1027C0000C460546FFF70FFB2146284605F021FC85
:1027D0002846BDE87040012105F02ABC4FF0E022F8
:1027E0004FF400410020C2F88011204908702049B0
:1027F00090020860704730B51C4D04462878A0420E
:1028000018BF002C02D0002818BFFFDF2878A04294
:1028100008BF30BD2C701749154A0020ECB1164D89
:10282000DFF858C0131F012C0DD0022C1CBFFFDF96
:1028300030BD086003200860CCF800504FF4000061
:102840001060186030BD086002200860CCF80050AD
:102850004FF040701060186030BD086008604FF0A5
:102860006070106030BD00B5FFDF00BD18000020B3
:1028700008F5014000F500402403002014F5004055
:1028800070B50B2000F0B5F9082000F0B2F9002176
:102890000B2000F0C4F90021082000F0C0F9EC4C36
:1028A00001256560A5600020C4F84001C4F844011A
:1028B000C4F848010B2000F0A7F9082000F0A4F9A3
:1028C0000B2000F08BF9256070BD10B50B2000F0D7
:1028D00090F9082000F08DF9DD4801214160816008
:1028E000DC490A68002AFCD10021C0F84011C0F878
:1028F0004411C0F848110B2000F086F9BDE81040E3
:10290000082000F081B910B50B2000F07DF9BDE87A
:102910001040082000F078B900B530B1012806D089
:10292000022806D0FFDF002000BDCB4800BDCB4809
:1029300000BDCA48001D00BD70B5C9494FF0004038
:102940000860C84DC00BC5F80803C74800240460E0
:10295000C5F840410820C43500F04BF9C5F83C41AA
:10296000C248047070BD08B5B94A002128B10128D9
:1029700011D002281CD0FFDF08BD4FF48030C2F810
:102980000803C2F84803B3483C300160C2F8401164
:10299000BDE80840D0E74FF40030C2F80803C2F8A1
:1029A0004803AC4840300160C2F84411AB480CE029
:1029B0004FF48020C2F80803C2F84803A548443009
:1029C0000160C2F84811A548001D0068009008BDCC
:1029D00070B516460D460446022800D9FFDF0022D6
:1029E0009B48012304F110018B4000EB8401C1F8E6
:1029F000405526B1C1F84021C0F8043303E0C0F8C7
:102A00000833C1F84021C0F8443370BD2DE9F041CE
:102A10001C46154630B1012834D0022839D0FFDFDA
:102A2000BDE8F081891E002221F07F411046FFF7AA
:102A3000CFFF012C24D000208C4E8A4F01247070CF
:102A40003C61894900203C3908600220091D08606A
:102A5000854904203039086083483D350560C7F852
:102A60000042082000F0D0F82004C7F80403082032
:102A700000F0B4F87A49E007091F08603470CFE726
:102A80000120D9E7012B02D00022012005E001221C
:102A9000FBE7012B04D000220220BDE8F04197E7BC
:102AA0000122F9E76B480068704770B500F0C7F87D
:102AB000674C0546D4F840010026012809D1D4F816
:102AC0000803C00305D54FF48030C4F80803C4F8E8
:102AD0004061D4F8440101280CD1D4F808038003E4
:102AE00008D54FF40030C4F80803C4F8446101204D
:102AF00010F0F6FBD4F8480101280CD1D4F80803F3
:102B0000400308D54FF48020C4F80803C4F8486196
:102B1000022010F0E5FB5648056070BD70B500F06E
:102B20008EF8524D0446287858B1FFF705FF6878B3
:102B300020B1002085F8010010F0D2FB4C48046061
:102B400070BD0320F8E74FF0E0214FF40010C1F80A
:102B500000027047152000F057B842490120086173
:102B6000082000F051B83F494FF47C10C1F8080329
:102B70000020024601EB8003C3F84025C3F8402142
:102B8000401CC0B20628F5D37047410A43F60952EB
:102B90005143C0F3080010FB02F000F5807001EB18
:102BA0005020704710B5430B48F2376463431B0C49
:102BB0005C020C602F4C03FB04002F4B4CF2F724FB
:102BC00043435B0D13FB04F404EB402000F58070DD
:102BD0004012107008681844086010BD00F01F0211
:102BE000012191404009800000F1E020C0F800116F
:102BF000704700F01F02012191404009800000F160
:102C0000E020C0F88011704700F01F0201219140C0
:102C10004009800000F1E020C0F8801270474907A9
:102C2000090E002806DA00F00F0000F1E02080F81D
:102C3000141D704700F1E02080F8001470470C4824
:102C4000001F00680A4A0D49121D116070470000FC
:102C500000B0004004B500404081004044B1004055
:102C600008F501400080004040850040340000200D
:102C700014050240F7C2FFFF6F0C010001000001C4
:102C80000A4810B50468094909480831086010F07D
:102C9000BBFB0648001D046010BD0649002008600B
:102CA0004FF0E0210220C1F8800270471005024079
:102CB00001000001FC1F004010B50D2000F06FF86E
:102CC000C4B26FF0040000F06AF8C0B2844200D0D1
:102CD000FFDF3A490120086010BD70B50D2000F0FB
:102CE00048F8374C0020C4F800010125C4F804530B
:102CF0000D2000F049F825604FF0E0216014C1F884
:102D0000000170BD10B50D2000F033F82C480121F2
:102D100041600021C0F80011BDE810400D2000F016
:102D200033B8284810B50468264927480831086098
:102D30002349D1F80001012804D0FFDF2148001DFC
:102D4000046010BD1D48001D00680022C0B2C1F81B
:102D5000002110F074FFF1E710B51948D0F8001108
:102D60000029FBD0FFF7DDFFBDE810400D2000F08B
:102D70000BB800F01F02012191404009800000F1D2
:102D8000E020C0F88011704700F01F02012191403F
:102D90004009800000F1E020C0F880127047002850
:102DA00006DA00F00F0000F1E02090F8140D03E0C7
:102DB00000F1E02090F800044009704704D500407D
:102DC00000D00040100502400100000110B5202095
:102DD00000F075F8202000F07DF84449202081F8AB
:102DE0000004434900060860091D42480860FEF7D8
:102DF00093FA3F49C83108603F48D0F8041341F0C6
:102E00000101C0F80413D0F8041341F08071C0F838
:102E10000413364901201C39C1F8000110BD10B55A
:102E2000202000F04CF8324800210160001D0160B4
:102E30002F4A481EE83A10602F4AC2F808032C4B6C
:102E4000C8331960C2F80001C2F860012B4908605C
:102E5000BDE81040202000F03DB825492848EC3955
:102E60000860704722492648E8390860704770B505
:102E70001F4A8069E83A224911601F49D1F8006170
:102E80000023204D1D4A5C1E1EB1A84206D300211E
:102E90000FE0D1F8606186B1A84209D2C1F80031D3
:102EA000C1F860311460BDE87040202000F012B815
:102EB0001168BDE870401EF0E3BEFFDF70BD00F09A
:102EC0001F02012191404009800000F1E020C0F87C
:102ED0008011704700F01F020121914040098000DD
:102EE00000F1E020C0F880127047000020E000E010
:102EF000000602406413002000000240000402406B
:102F000001000001003002000F4A12680D498A4298
:102F10000CD118470C4A12680A4B9A4206D101B5E7
:102F200010F00EFFFFF799FFBDE80140074909685F
:102F30000958084706480749054A064B70470000EC
:102F400000000000BEBAFECAB0000020040000204D
:102F5000E8120020E812002070B50C46054609F082
:102F6000F0FA21462846BDE870400AF0E2BB10B5F1
:102F700011F054FBFFF732FC11F0F0F9BDE81040FE
:102F800011F0A2BA01208107086070470120810773
:102F90004860704712480068C00700D001207047A1
:102FA0000F48001F0068C00700D0012070470C4880
:102FB00008300068C00700D0012070470848103072
:102FC0000068704706490C310A68D20306D50968C3
:102FD00001F00301814201D10120704700207047B8
:102FE0000C0400407047704770477047704702F00C
:102FF000FF0343EA032242EA02421EF0F6BD704795
:103000002CFFFFFFDBE5B151003002009D00FFFF08
:1030100084000000404B4C0066D342DA82CFB49D5E
:10302000E40AD77E68976592800939FF30B5FF4D75
:10303000044610280AD0112C06D02846122CC1783C
:1030400006D0132C08D0FFDFEC7030BDFFDFFBE7AC
:103050001129F9D0FFDFF7E71129F5D0FFDFF3E7FA
:1030600070B50FF0E3FA044610F0A0FC201AC4B2C9
:1030700006200DF09DFC054606200DF0A1FC2E1A41
:1030800007200DF095FC054607200DF099FCE74957
:10309000281A3218C87812280DD000231A44132891
:1030A0000BD0002002440878022808D000201044E9
:1030B000201AC0B270BD0123F0E70120F2E7012021
:1030C000F5E7DA4800B58079D849420897B051F859
:1030D000070F89880CD017228DF80020CDF8020048
:1030E000ADF806100BA968460AF0B4FF17B000BD92
:1030F0004422F1E702210DF0B1BC2DE9F04196B078
:103100001D4690460E460746FFF7F4FF04000BD01D
:103110002078222804D3A07FC0F34010A84206D113
:10312000082016B0BDE8F08143F20200F9E749201B
:103130008DF80000ADF802703DB101208DF804005B
:103140008DF805608DF8068002E000208DF80400FF
:103150000BA968460AF07EFFA07F65F34510A077B3
:103160000020DEE730B50446A1F120000D460A2814
:103170004AD2DFE800F005070C1C2328353A3F440B
:10318000FFDF42E0207820283FD1FFDF3DE0A74865
:103190000178032939D0C078132836D02078242824
:1031A00033D0252831D023282FD0FFDF2DE0207801
:1031B00022282AD0232828D8FFDF26E020782228BA
:1031C00023D0FFDF21E0207822281ED024281CD025
:1031D00026281AD0272818D0292816D0FFDF14E077
:1031E0002078252811D0FFDF0FE0207825280CD08B
:1031F000FFDF0AE02078252807D0FFDF05E02078F0
:10320000282802D0FFDF00E0FFDF257030BD30B599
:103210000B8840F67B444FF6FF72022801D09342A0
:1032200004D09D1FA54224D2022802D04D88954289
:1032300003D04D88AD1FA5421BD24C88A34218D89D
:103240008B88B3F5FA7F14D2022802D0C888904246
:1032500005D0C88840F677450A38A84209D2C88800
:10326000904208D0944206D05B1C6343B3EB800FBE
:1032700001DB072030BD002030BD70B514460D467F
:10328000064610F0EDFF60B90DB1A54201D90C2042
:1032900070BD002409E000BF56F8240010F0E0FFE4
:1032A00008B1102070BD641CE4B2AC42F4D300201D
:1032B00070BDF0B50024059D10B1A94203D850E0BF
:1032C00009B90020F0BD0920F0BD055DD5B1071991
:1032D00097F801C0BCF1150F2DD03BDCBCF1150FE8
:1032E00038D2DFE80CF037122020262628282F2F8E
:1032F000373737373737373737372000025D22BB4C
:10330000641CE4B28C42F9D3DBE7022DDBD1BD783B
:103310001D70072D01D26D0701D40A20F0BD15786C
:1033200045F0010515E0EF43FF0707E0012D07D049
:1033300010E00620F0BD2F07A7F18057002FF5D031
:103340003046F0BD1578AF0701D50B20F0BD45F034
:1033500002051570055D641C2C44E4B28C4202D950
:10336000B1E74FF448568C42AFD3AAE710B50278C4
:10337000540809D0012243F20223012C07D0022C69
:103380000DD0032C13D10FE00020087005E08079E8
:103390000324B4EB901F0AD10A70002010BD80797D
:1033A000B2EB901F03D1F7E780798009F4D018467B
:1033B00010BD1E4A117C39B1517C022908D0032965
:1033C00008D043F2022070470146901D01F0FCBC7A
:1033D000032100E0012101700020704738B50C4640
:1033E0000546694601F0F0FC00280DD19DF800105B
:1033F000207861F34700207055F8010FC4F80100F0
:10340000A888A4F80500002038BD38B51378E8B1C5
:1034100002281BD006A46D46246800944C7905EB65
:103420009414247864F34703137003E0CC01002064
:103430000302FF0103280ED003F0FE00107008689D
:10344000C2F801008888A2F8050038BD23F0FE0309
:1034500013700228E9D1D8B240F00100EEE730B590
:103460000C46097897B0222902D2082017B030BD47
:1034700028218DF80010ADF80200132A03D03B2A52
:1034800001D00720F2E78DF804200BA968460AF066
:10349000E1FD050003D121212046FFF763FE284608
:1034A000E4E700B597B023218DF80010ADF80200D5
:1034B0001088ADF804005088ADF80600D088ADF84B
:1034C0000A009088ADF808000020ADF80C00ADF8B7
:1034D0000E000BA968460AF0BDFD07E600B597B0DF
:1034E0002C22FA4968461EF04CFB0020CDF8030060
:1034F000ADF80700F648007C022801D0012000E06A
:1035000000208DF809000BA968460AF0A3FD0028E9
:1035100000D0FFDFEAE52DE9FF470220EC4E8DF8F1
:1035200004000027B08AADF80600B84643F202094D
:103530004DE001A80DF0FBF9050006D0B08AA8B354
:10354000A6F81480ADF806803FE0039CA07F010739
:103550002DD504F124000090A28EBDF8080021466C
:1035600004F1360301F00DFE050005D04D452BD0CA
:10357000112D3DD0FFDF3BE0A07F20F00800A077B9
:10358000E07F810861F30000C10861F34100E0774A
:1035900094F8210000F01F0084F8200020782828EB
:1035A00027D129212046FFF7DDFD22E015E0400765
:1035B0000BD5BDF80800214604F10E02FFF771FF9C
:1035C00005000DD04D4510D100257F1CFFB2022013
:1035D0000DF0EEF9401CB842ABD8052D12D008E032
:1035E000A07F20F00400A07703E0112D00D0FFDFC2
:1035F0000025BDF80600B082052D05D0284604B090
:10360000BDE8F087A6F814800020F8E770B50646FC
:10361000FFF770FD054605F0C8FE040000D1FFDF8E
:103620006680207820F00F00801C20F0F000203011
:1036300020700620207295F83E006072BDE8704050
:1036400005F0B6BE2DE9F04786B0040000D1FFDFDB
:1036500020789F4E20F00F00801C20F0F00070308A
:10366000207060680178091F182931D2DFE801F065
:10367000FD30303053FC300CFCFC40FD3030FD762A
:10368000FDFD3030FDFDFBFA86883046FFF732FD48
:103690000546304607F05FFAE0B16068807985F84A
:1036A0003E0021212846FFF75DFD3046FEF7B9FCBC
:1036B000304603F0C3FF3146022010F085FDA87F9D
:1036C00020F01000A877FFF726FF002800D0FFDFCA
:1036D00006B095E7207820F0F0002030207006201A
:1036E0002072668060688079607205F061FED8E7BC
:1036F00085882846FFF7FEFC00B9FFDF6068807808
:10370000012800D0FFDF6068817906B02846BDE857
:10371000F04707F0FDBD86883046FFF7EBFC05005B
:1037200000D1FFDF05F044FE60683146C088288183
:1037300060680089688160684089A881022010F073
:1037400043FD0020A875A87F00F003000228BFD128
:10375000FFF7E1FE0028BBD0FFDFB9E780783C2807
:1037600003D0002502280AD000E00125002720B15F
:103770003C2802D0022800D0FFDF17B1B8E00127B3
:10378000F5E705F015FE1DB1B07801F0DCFAA1E017
:103790006568B5F804A0A879AD1C012806D0307979
:1037A000814605F097FB070003D101E0B078F7E709
:1037B000FFDF0022022150460DF047F9040000D13E
:1037C000FFDF22212046FFF7CDFC2879012800D019
:1037D0000220A17F804668F30101A177288B208118
:1037E000688B6081A88BA08184F822908DF8088076
:1037F000B8680090F86801906A46032150460DF0C1
:1038000024F900B9FFDFB888ADF81000B8788DF85A
:10381000120004AA052150460DF017F900B9FFDF88
:10382000B888ADF80C00F8788DF80E0003AA0421D2
:1038300050460DF00AF900B9FFDF062105F112002C
:1038400001F0EDFA28B36879800700D5FFDF6979C8
:10385000E07D61F34700E075D5F80600A061688956
:10386000A08303E05EE057E050E062E0062105F14E
:103870000C0001F0D4FAB0B1B0794108607861F37E
:1038800047006070D6F80700C4F80200B6F80B00D5
:1038900012E0E07D20F0FE00801CE075D5F81200FB
:1038A000A061E88ADCE7607820F0FE00801C607090
:1038B000E868C4F80200288AE080B8F1010F09D056
:1038C000B8F1020F14D0FFDF02E70000CC1F0200A6
:1038D000CC0100203078032800D0FFDF002108460B
:1038E00010F072FC06B00120BDE8F04701F0FAB913
:1038F000F078132800D0FFDF0021062010F064FCD0
:1039000006B01120BDE8F047FFF790BB06B0204697
:10391000BDE8F04701F0E6BE05F04AFDB07C40F09E
:10392000020004E005F044FDB07C40F00400B074F7
:10393000CEE606B0BDE8F04705F03ABD2DE9F04708
:1039400005460078914600270209FF480C463E468E
:10395000012A6DD000234FF6FF71022A69D0072A91
:1039600009D00A2A71D0FFDFA9F800600CB12780C6
:103970006680002044E6D5F804C09CF80060142E50
:103980007DD010DC04F1080204F118080F2E21D0BC
:1039900004DC042E5AD0082E57D10DE0122E6FD021
:1039A000132EF9D11FE0153E072E4ED2DFE806F0A8
:1039B000C14D4D099FEAB00012271026BCF8040043
:1039C00014E11C27092694B3BCF80200A0806868A3
:1039D00000795AE11B2709264CB30320207268683E
:1039E0004088A080C0E79CF802003C2827D0102720
:1039F00018260CF1020CD4B1BCF80200A080BCF86F
:103A000018006082BCF818002082BCF81A00A0825E
:103A1000BCF81C00E0829CF805000CF10601FFF7E1
:103A2000F4FC9CF8040028B10120E0739CE703E05B
:103A3000BFE0DFE00220F8E7A9F8006099E71B2764
:103A40000926002CF8D023728EE720E11D273726A7
:103A5000002CF1D0A18069680879491DFFF7D5FCD9
:103A6000686890F82B00A0756868C0780428E07D2D
:103A700016D020F00100E0756968C97801E06DE0BA
:103A800011E061F34200E07569681F22C97A61F3B1
:103A9000C700E075696840460C311EF02DF863E7F9
:103AA00040F00100E7E71D273726002CC4D0A18095
:103AB0006868411D0079FFF7A8FC696804F10F02EE
:103AC00001F10C00CB7A01461846FFF79EFC6868AE
:103AD000807CA0756868C178E07D61F3420020F0C9
:103AE000F900E0751F2140461EF09FF83CE72027B3
:103AF0001026002CA0D0A180686804F10902407A49
:103B000020726968CB1C88781946FFF77EFC2BE78A
:103B100021270A26002C8FD0BCF80210A1806968EA
:103B200009792172696849796172817C21F0040107
:103B300057E022270B26002C84D0BCF80400A0807C
:103B40006868807820726868807901F077F960721F
:103B50006868C07901F072F9A07205E72427102681
:103B6000002CA3D0BCF80200A080686800792081F6
:103B70006868007A60816868C088A0816868408948
:103B8000E081F1E623271026002C8FD0BCF802102C
:103B9000A1806968898821816968C98861816968AB
:103BA0000989A18169684989E181817C21F002014B
:103BB00017E0297A012903D0022914D0FFDFD3E6C8
:103BC0001F271026002C95D06988A180A989218102
:103BD000E9896181298AA181698AE181817C21F059
:103BE00001018174C0E6122768881026214601F081
:103BF00003F9B9E6287A072850D2DFE800F0373D0C
:103C00003D484848040011270926002C94D0B5F8F7
:103C100002804046FFF76EFA90F822A0A4F80480D4
:103C2000687A2072042140460CF02AFF05214046A4
:103C30000CF026FF002140460CF022FF01214046F7
:103C40000CF01EFF032140460CF01AFF02214046F3
:103C50000CF016FF062140460CF012FF07214046EB
:103C60000CF00EFF504601F06EF87DE61B2709268A
:103C7000002C8AD0A180E6E61B270926002C84D0E0
:103C8000A180287A012800D0022020726CE64A46E2
:103C900021462846BDE8F04701F0AFBEFFDF63E6EE
:103CA00030B5294D97B0E878132802D0082017B016
:103CB00030BD22208DF800000BA968460AF0CAF931
:103CC000040002D1287901F03EF80021062010F00E
:103CD0007BFA2046EBE700B51B4897B0C078122866
:103CE00001D0082016E41E208DF8000000208DF879
:103CF00002008DF803000BA968460AF0ABF9002812
:103D0000F0D10021062010F05FFA1120FFF78EF9A4
:103D10000020E7E710B50C4C96B02078012815D0AC
:103D20001B208DF8000000208DF802000BA96846CA
:103D30000AF090F900280AD10021084610F044FA50
:103D40002078032805D007E0CC010020082016B019
:103D500010BDA07800F0F7FF012000F0C3FF0020A5
:103D6000F5E770B5002538B1022817D0062836D0FF
:103D7000072800D0FFDF70BDFFF7CCFF0028FAD185
:103D800005F013FB0028F6D0017821F00F01891C03
:103D900021F0F0012031017005723FE08EB2304613
:103DA000FFF7A8F9040000D1FFDF20782128E2D036
:103DB00005F0FBFA60B1017821F00F01891C21F0B8
:103DC000F00110310170022101724680A57525E0D5
:103DD00021463046BDE870401322FFF740BBFE4845
:103DE000C478122C03D0132C04D0FFDF70BDFFF772
:103DF00072FF01E0FFF754FF0028F7D105F0D5FA74
:103E00000028F3D0017821F00F01891C21F0F00186
:103E100020310170122C05D002210172BDE87040E2
:103E200005F0C6BA0121F8E72DE9F04116460C006D
:103E3000804600D1FFDF307820F00F00801C20F09A
:103E4000F000103030702078012804D0022817D0FC
:103E5000FFDFBDE8F0814046FFF74CF9050000D1D7
:103E6000FFDF0320A87505F0A3FA94E80F000836D9
:103E700086E80F00D848817C41F001018174E8E7B1
:103E80004046FFF737F9050000D1FFDFA1884FF664
:103E9000FF700027814202D1E288824203D0814232
:103EA00001D1E08840B105F083FA94E80F000836AC
:103EB00086E80F00AF75CCE7A87D0128C9D178232B
:103EC00000224146022010F0D5F80220A875C0E774
:103ED00030B5054697B00C46084610F0C1F978BBDE
:103EE00000210120203D072D73D2DFE805F00425D5
:103EF0004C515A6640000021072010F03BF908B1F0
:103F00001120D4E624208DF80000D4F80200CDF86A
:103F10000200A0798DF806000BA968460AF09AF80D
:103F2000050057D1002208231146072010F0A2F8FF
:103F300007284FD0FFDF4DE0606810F0D5F908B1D9
:103F40001020B4E64A208DF800002088ADF8020069
:103F50006088ADF804000BA968460AF07BF80500FC
:103F600038D1606898B3BDF83010018032E04C2041
:103F70008DF800002088ADF80200A07800F0010064
:103F80008DF8040014E0206801F0D5FF054621E01B
:103F90004B2207E08DF802000AE000BF8DF8021006
:103FA00006E046228DF800202278D207F6D0F1E70D
:103FB0000BA968460AF04EF8E8E738208DF80000B3
:103FC0002088ADF802006088ADF80400F0E701E059
:103FD000FFE7072528466AE630B5054697B00C4648
:103FE000084610F063F908B1102060E6203D072D67
:103FF00027D2DFE805F00424242426262400208884
:10400000FFF778F820B10078222804D208204EE685
:1040100043F202004BE625208DF800002088ADF821
:1040200002000BA968460AF015F80028DDD1DDF87A
:104030003210C4F802109DF83610A17137E6062040
:1040400035E6072033E66448801D704738B51621F1
:1040500061481DF0C8FD012000F044FE1120FEF76C
:10406000E5FF5D4C6846E11D05F0FFF89DF8001086
:10407000A07961F3470020F00100A07100202074B6
:104080004FF46170E08102206074FFF71AF800B10C
:10409000FFDFFDF769F901F0E2FA38BD10B50C4613
:1040A000402120461DF09FFDA07F20F00300A07757
:1040B000202020700020A07584F8230010BD7047D8
:1040C0007CB5054610F0CCF808B110207CBD424C00
:1040D000A11DD4F806000090D4F80A0001902846EB
:1040E000FFF77CF90028F1D1FEF7EBFF0028EDD0B7
:1040F0000099C4F80610BDF8041061819DF80610FF
:1041000021737CBD10B5044610F0D0F808B1102022
:1041100010BD314922468879C91D4008FFF775F95D
:10412000002010BD2DE9F0479CB00D4604004FF073
:10413000000812D00822FFF7A0F800281CD10026A2
:1041400009E000BF54F8260004A9FFF70FF9002882
:1041500012D1761CF6B2AE42F4D32F460A2006AD39
:104160000DF1440A8DF8180026465146284609F0FC
:1041700071FF20B143F203201CB0BDE8F087404638
:10418000DFF8548088F805002EB300244FF00B09A7
:104190001DE000BF56F8240005A9FFF7E7F800B1BD
:1041A000FFDF9DF81400A87056F8240050F8011F96
:1041B000C5F803108088A5F8070085F800905146DF
:1041C000284609F047FF00B1FFDF641CE4B2BC429F
:1041D000E0D388F8057001E0CC0100200020CBE797
:1041E0002DE9F0479EB01546894604001DD00F46C4
:1041F00008222946FFF741F8002810D1002612E0D6
:1042000054F8260005A9103000F0DEFD002806D184
:104210003FB157F8260010F023F810B110201EB05F
:10422000ABE7761CF6B2AE42EAD30026A5F1010850
:104230001CE000BF06F1010A0AF0FF0712E000BF10
:1042400054F82600017C4A0854F827100B7CB2EB86
:10425000530F05D10622113011311DF021FC78B128
:104260007F1CFFB2AF42EBD30AF0FF064645E1DB0D
:10427000C8462E4607AD0DF1480924B1012003E0E0
:1042800043F20520CBE700208DF81E0031208DF889
:104290001C004946284609F0DDFE38B934208DF867
:1042A0001C004946284609F0D5FE10B143F204200F
:1042B000B5E77CB300272BE054F82700A91C103089
:1042C00000F082FD00B1FFDF54F82700102250F803
:1042D000111FC5F803108088A5F8070054F82710AF
:1042E00005F109001DF008FCB8F1000F16D058F8D0
:1042F0002710102205F119001DF0FEFB3220287056
:104300004946284609F0A6FE00B1FFDF7F1CFFB238
:10431000B742D1D3FFF7E2F8002080E705F119009A
:1043200001F0FDFDEAE770B596B004460FF098FF86
:1043300018B960680FF0E1FF10B1102016B070BD21
:1043400060884AF2B811884207D82078FE4D6E4640
:1043500028B1012806D0022804D00720EEE7FEF796
:10436000B0FE1AE06078022804D0032802D043F29D
:104370000220E3E7687417208DF80000697C0020B4
:10438000CDF80200ADF80600022934D003292FD061
:10439000FFDF0BA9684609F05DFE0028CED16068FA
:1043A00001F0B0FD207870B101208DF80200F01C02
:1043B00001F0B5FD4E208DF800000BA9684609F00C
:1043C00049FE00B1FFDF20782874FFF787F8608886
:1043D00098B1E88180B2ADF8020030208DF800007D
:1043E0000BA9684609F036FE00B1FFDF0020A5E703
:1043F0008DF80700CDE74020FAE74FF46170E8E759
:1044000010B504460FF052FF20B9606838B10FF0C4
:104410006BFF08B1102010BD606801F080FDCA4834
:10442000C1896180417C6170007C2070002010BDDA
:104430002DE9F0419CB0054600208DF864008DF810
:1044400060008DF830008DF868001E4614468846DE
:1044500028460FF052FF18B920460FF04EFF10B15A
:1044600010201CB0F5E455EA040018D01F270CAB4F
:1044700019AA414628460097FEF71BFF0028F0D1F5
:104480001AAB18AA314620460097FEF712FF002803
:10449000E7D19DF86000C00703D00A20E1E70720BC
:1044A000DFE701AF7DB11A208DF804008DF806809A
:1044B00042462946F81C1DF01FFB0DA901A809F072
:1044C000C9FD0028CDD17CB120208DF804008DF8E5
:1044D000066032462146F81C1DF00EFB0DA901A80E
:1044E00009F0B8FD0028BCD197499DF8300048700C
:1044F0000020B6E72DE9F0479CB08A464FF000084F
:1045000092A104468DF83480D1E90001CDE919016A
:1045100020460FF0A5FE90B92078012803D16068ED
:104520000FF09EFE58B9884D4FF00109287C40B12C
:10453000687C022805D160680FF0DFFE08B110200A
:104540001AE62878012801D0082015E607200CF08B
:1045500037FA18B9207878B101280DD0FEF780FD20
:1045600060B1608943F6E172A0F1200191422178A7
:104570000CD3012904D0B6E01220FDE51320FBE5A1
:1045800000287DD1A18900297AD109E0012907D02D
:104590006978C90704D0A189002971D0B4296FD8DE
:1045A000217831B1012908D0022904D0032967D12B
:1045B0000AE0002609E0022607E008B9A08908B150
:1045C000042609E0012607E00326287C50B1687C18
:1045D000022807D1606828B10DA96068FEF7C6FE01
:1045E0000028ADD1207A30B1012806D0022806D0AB
:1045F000032878D105E0002704E0012702E0022724
:1046000000E003270EB1022E0ED16FB16879B8B366
:104610006878800702D043F20120ADE5022E03D175
:10462000022F60D0032F5ED0207808B1012806D178
:10463000504600F06BFB002887D185F802A01820B7
:104640008DF838006089ADF83A006089ADF83C001B
:104650008DF83E600DF13F00FEF7ABFE00B1FFDFCD
:104660009DF834008DF840002078012806D0287C81
:1046700068B1687C02280AD1606840B1606800E0D7
:1046800031E050F8011FCDF84110808802E040462B
:10469000CDF84180ADF845008DF84870A07BC0F39F
:1046A0004002014662F35F01C0F3800041EA8000EE
:1046B00019A9085C8DF84700A8B169460EA809F051
:1046C000C9FC0028A9D11B208DF838008DF83A903C
:1046D00069460EA809F0BEFC00289ED19DF8010095
:1046E0001B281CD101E0072046E5052E0CD2DFE88F
:1046F00006F0030308080300A87800F017FB032066
:1047000000E0022000F0EEFA012E0AD0A08940B1AC
:1047100000228300114610460FF0ACFC08B10320C4
:104720002AE5002028E52DE9FC4107460D46032631
:1047300008460FF0E2FD00286CD13846FEF7DAFC9F
:1047400004000CD0207805E0CC0100200706050409
:1047500003020100222805D20820BDE8FC8143F2B3
:104760000200FAE7A07F00F0030C2DB12946604655
:10477000FEF74DFD0600F0D1BCF1010F05D0BCF1F4
:10478000020F18D0FFDF3046E7E7A07D2946022858
:1047900001D011B107E01120DFE76846FCF7F2FE17
:1047A0000028DAD16946384606F075FD0600EAD1E0
:1047B0000120A075E7E7A07D032803D1FE48807C97
:1047C000C00701D035B30EE025B1A07F40071FD44C
:1047D000002100E00121384606F07DFD0600D2D11F
:1047E000A075002DCFD02A4621463846FEF759FE47
:1047F00006461128C7D1A07F4107C4D4296844F8D0
:104800000E1F6968616040F0040020740026BAE75A
:104810001126B8E71020A0E770B50C460546FEF754
:1048200069FC010005D022462846BDE87040FEF72D
:1048300016BE43F2020070BD00B597B043218DF85B
:1048400000108DF802000BA9684609F003FC17B0B0
:1048500000BD0123FEF751BC00231A461946FEF79E
:104860004CBC30B597B004460FF0FAFC10B11020E4
:1048700017B030BD204600F095FA0028F8D1CE4D93
:10488000E878112801D00820F2E7FEF7E9FBE0B351
:104890002078800701D56879C0B31D208DF800000D
:1048A0002078022200F001008DF802006088ADF847
:1048B0000400A088ADF806002078C0F3400102EAA9
:1048C000500001438DF8091002A8FEF772FD00B1F7
:1048D000FFDF0BA9684609F0BDFB0028C8D11E20E8
:1048E0008DF8000001208DF8020000208DF80300F3
:1048F0000BA9684609F0AEFB0028B9D1E08800F0AA
:104900006DFA0400B4D1122001E004E005E0FEF7E6
:104910008DFB2046ACE71320AAE70720A8E72DE986
:10492000F043A54E074697B0F078994615460C46D9
:10493000122803D1FFF7CFF9002816D120460FF037
:104940008FFCE8BB28460FF08BFCC8BB204600F06C
:1049500029FA002809D129460220FEF758FC002830
:1049600003D1F078112803D0082017B0BDE8F083F8
:1049700006200CF025F850B12078800701D5707919
:1049800038B1FEF76DFB022805D21320EDE71220A7
:10499000EBE70720E9E721208DF800006088ADF8FB
:1049A0000200A088ADF8040020784FF00008C0F3A2
:1049B00040008DF80600207880071FD4384600E0BC
:1049C00002E00FF04DFC08B11020CEE73878400827
:1049D00008D0012809D0022807D0032805D043F2C7
:1049E0000220C2E78DF8078002E001208DF8070061
:1049F00057F8010F0290B888ADF80C000DF10E00C9
:104A0000FEF7D7FC08B10320AFE72888ADF8100007
:104A10006888ADF81200A888ADF81400E888ADF8F1
:104A20001600ADF81880ADF81A80484600F06EF90F
:104A300000289AD186F804900BA9684609F00AFB71
:104A4000002892D1307900F071F9E08800F0C6F9C1
:104A500004008AD11320FEF7E9FA204685E730B535
:104A6000054697B00C4608460FF020FC08B1102010
:104A7000FEE62846FEF73EFB38B10178222902D334
:104A8000807F800604D40820F2E643F20200EFE6BD
:104A900013208DF80000ADF802500BA9684609F00C
:104AA000D9FA0028E4D19DF932107F2901D0217074
:104AB000DEE60520DCE630B5054697B00C46084634
:104AC0000FF0CEFB08B11020D2E62846FEF712FB0D
:104AD00020B10078222804D20820C9E643F202005F
:104AE000C6E63548807C400701D51120C0E6207815
:104AF000800802D16078800801D00720B8E65620EF
:104B00008DF80000ADF8025020788DF80400607830
:104B10008DF805000BA9684609F09CFAA8E62DE976
:104B2000F041B0B014460D460646FEF7E3FA070022
:104B300006D03878222806D2082030B0BDE8F081AF
:104B400043F20200F9E728460FF0D7FB30B94FF0E7
:104B500000084CB120460FF0C7FB08B11020ECE76D
:104B6000C4F80080A4F804801348807C800701D535
:104B70001120E2E797F8220004F0ACF98088011DCB
:104B8000FB2901D2001D00E0FB20C0B26A46294685
:104B900000F0E3F82C22094904A81CF0F2FFBDF84C
:104BA0000200ADF81400BDF80600ADF81600ADF82F
:104BB0001260BDF8000003E0CC010020A01F02003D
:104BC000ADF81800BDF80400ADF81A001AA904A841
:104BD00009F040FA00B1FFDFBDF86C00ADF8080045
:104BE000BDF86E00ADF80A00BDF87000BDF8721097
:104BF000BDF800200844ADF80C0007201B2A9CD308
:104C0000BDF802101B2998D3FB2A96D8FB2994D80B
:104C100006278A4210D10121104600F05AF8BDF84B
:104C20000410884208D1BDF80200012100F051F8BB
:104C3000BDF80610884201D038467EE7BDF808006E
:104C400028B9BDF80A1011B9BDF80C1029B35DB12F
:104C5000298849B1698839B124B102982060BDF82A
:104C60000C00A080132068E7BDF80010BDF80A20F2
:104C7000081A80B2ADF80000BDF80210891AADF82C
:104C80000210012100F025F8ADF80400BDF8020083
:104C9000012100F01EF8ADF806002C226B490FA888
:104CA0001CF06FFFADF83E60BDF80200ADF84000AB
:104CB000BDF80600ADF84200BDF80000ADF84400B4
:104CC000BDF80400ADF8460025A90FA809F0C2F907
:104CD00033E7022903D0C000703080B270478000F3
:104CE0003C30FAE730B55A4D040008D0012C04D00E
:104CF000022C06D0032C04D0FFDF2C7030BDFFDF68
:104D0000FBE728780128F8D0FFDFF6E710B5044666
:104D100004F0E0F830B1407830B1204604F0EEFB0A
:104D2000002010BD072010BD122010BD10B504F0EA
:104D3000D1F8040000D1FFDF607800B9FFDF6078B0
:104D4000401E607010BD10B504F0C4F8040000D11E
:104D5000FFDF6078401C607010BD10B5144631B1A3
:104D60000A68226049686160218839B107E02080C3
:104D700060800121FFF7ADFFA0800DE020806188F9
:104D800001B96080A08820B920880121FFF7A1FF28
:104D9000A080E088002804D160880121FFF799FFF6
:104DA000E08010BD418843F6FD730A1F9A4209D284
:104DB0008088042806D3B0F5804F03D8884201D8F4
:104DC00000207047072070470278520804D0012A5B
:104DD00002D043F202207047FEF7C8BA10B548B1BE
:104DE00083000022114606200FF044F9062801D066
:104DF000032010BD002010BD70B50C0006460DD07C
:104E0000FEF778F9050000D1FFDFA6802889208110
:104E1000288960816889A081A889E08170BD10B56A
:104E200000231A4603E0845C2343521CD2B28A4218
:104E3000F9D30BB1002010BD012010BD00B5012831
:104E400003D0022801D0FFDF002000BDF81F0200C0
:104E5000CC01002010B504460FF002FA08B1102072
:104E600010BD2078C0F30210042807D86078072806
:104E700004D3A178102901D8814201D2072010BDA6
:104E8000E078410706D421794A0703D4000701D40A
:104E9000080701D5062010BD002010BD10B51378FD
:104EA0005C08C37F64F30003C3771478A40864F339
:104EB0004103C3771078C309487863F34100487011
:104EC00013781C090B7864F347130B701378DB0815
:104ED00063F3000048705078487110BD10B5C47875
:104EE0000B7864F300030B70C478640864F3410327
:104EF0000B70C478A40864F382030B70C478E408D0
:104F000064F3C3030B700379117863F3000111702C
:104F100003795B0863F34101117003799B0863F324
:104F2000820111700079C00860F3C301117010BDD7
:104F300070B514460D46064604F037FA80B1017884
:104F4000182221F00F01891C21F0F001A03100F896
:104F5000081B21461CF015FEBDE8704004F028BA7D
:104F600029463046BDE870401322FEF778BA10B5E6
:104F7000FE4C94F8300000280CD104F120014FF6CB
:104F8000FF72A1F110000DF04DF900B1FFDF01201B
:104F900084F8300010BD2DE9F047064608A8894680
:104FA00090E830041F469046142128461CF03DFE30
:104FB0000021CAF80010B8F1000F03D0B9F1000FBA
:104FC00003D114E03878C00711D020680FF06EF9D3
:104FD000F0BBB8F1000F07D12068123028602068BC
:104FE000143068602068A8602168CAF8001038781A
:104FF000800728D560680FF077F948BBB9F1000F3A
:105000002DD0FFF720F80168C6F8C8118188A6F8EE
:10501000CC11807986F8CE01FFF7A9FFDFF84C8329
:1050200008F12008C5F80C80626862B196F8C801E2
:1050300006F2C91140081032FEF7E7F91022414686
:1050400060681CF059FD3878400712D5A06800E070
:1050500002E00FF02BF950B11020BDE8F087606836
:105060000028F9D0E8606068C6F8C401EBE7A068E2
:1050700028610020F1E730B5054608780C4620F09D
:105080000F00401C20F0F0011031217000206070F2
:1050900095F8230030B104280FD0052811D0062838
:1050A00014D0FFDF20780121B1EB101F04D295F856
:1050B000200000F01F00607030BD21F0F0002030B3
:1050C00002E021F0F00030302070EBE721F0F0003A
:1050D0004030F9E710B510B190F8BD4044B1A34895
:1050E00090F83540002064B108601060186010BD71
:1050F00000F1BC040C6000F1E40100F58670116061
:10510000F4E79A4C34340C60EFE700B58BB007231A
:10511000CDE902128DF801300191944900236431E8
:105120000591099301468DF8103068460DF052F84C
:10513000002800D0FFDF0BB000BD70B590B0154661
:105140000C4602220646ADF80820092103AB04F004
:105150006EFF0490002812D00C208DF8010004206E
:105160008DF8040004F59A74099605948DF818508A
:105170000AA968460DF02EF800B1FFDF012010B03B
:1051800070BD30B597B00C462C251A998DF800509B
:10519000ADF80200B3B11868019058680290ADF8FC
:1051A0000C2010220DF10E001CF0A6FC0BA9684685
:1051B00008F050FF002803D1A17F41F01001A17732
:1051C00017B030BD00200190E8E72DE9F047064612
:1051D000808A8CB080B20D468246FDF78BFF044674
:1051E000624F3078283FDFF884914FF00008112893
:1051F00073D2DFE800F072F1350936777E98A7F2B6
:10520000EFEEEDEC5BECEC00A07F00F0030001287A
:1052100006D0002150460BF021FC050003D101E02F
:105220000121F7E7FFDF99F85C10C90702D0D9F830
:1052300060000BE0032105F121000EF0E2FCD5F83F
:1052400021004B49B0FBF1F201FB1200C5F821002F
:105250007068A867B068E8672078252800D0FFDF6D
:10526000ECE0A07F00F00300012806D000215046AA
:105270000BF0F4FB060003D101E00121F7E7FFDFAB
:105280003078810702D52178252904D040F001002B
:1052900030700CB0E1E60220287096F820002871EA
:1052A00006F121003136C5E90206F2E7A07F00F0E1
:1052B0000300012806D0002150460BF0CFFB04006C
:1052C00003D101E00121F7E7FFDF2078C10605D512
:1052D0001320287041346C60DBE7BEE140F0080029
:1052E0002070D6E72148082128380EF08AFC0320D8
:1052F00016E02A208DF8000010220DF102007168DE
:105300001CF0FAFB10220DF11200B1681CF0F4FB46
:10531000164968462C3908F09DFE00B1FFDF0420D5
:1053200028706F60B5E7E07FC00600D5FFDF307CF6
:10533000B28800F001030CB05046BDE8F0470921E7
:1053400005F00BBD04B9FFDF716821B1102204F133
:1053500024001CF0D1FB28212046FDF703FFA07F8D
:1053600000F00300022814D104E00000180200201D
:1053700040420F0004F12400002300901A46214609
:105380005046FFF7FEFE112807D029212046FDF7E1
:10539000E9FE307A84F820007BE7A07F000700D583
:1053A000FFDF14F81E0F40F008002070A4F81680EC
:1053B000C4F81880C4F81C806178084661F3820044
:1053C000410861F3C3006070307AE07061E727E064
:1053D0003FE17AE051E000E037E0A07F00F0030019
:1053E000012806D0002150460BF038FB040003D101
:1053F00001E00121F7E7FFDF022104F189000EF04F
:1054000000FC1020287004F5E4706860B4F889107E
:10541000298204F18000FD496861C5E9029138E7FD
:10542000A07F00F00300012805D0002150460BF0BA
:1054300015FB18B901E00121F8E7FFDF0CB0324697
:1054400021465046BDE8F04772E504B9FFDF2078F9
:105450002128A1D93079012803D1E07F40F0100044
:10546000E077324621465046FFF762FD0CB02046F9
:10547000BDE8F0472321FDF775BE3279AA8005F11A
:1054800008030921504604F0D2FDE86010B1112054
:105490002870FEE6A07F00F00300012806D000215E
:1054A00050460BF0DBFA040003D101E00121F7E7DD
:1054B000FFDF04F1660102231022081F0BF03BF905
:1054C00080F8008031794170E3E6A07F00F00300AE
:1054D000012806D0002150460BF0C0FA050003D188
:1054E00001E00121F7E7FFDF95F8880000F00300F5
:1054F000012879D1A07F00F00307E07FC0F34006C8
:1055000016B1012F04D02BE095F8A400C0072AD0D3
:10551000D5F8C00118B395F88720017C62F38701A4
:105520000174E27FD5F8C00162F341010174D5F83E
:10553000C00166F300010174AEB1D5F8C0011022BC
:1055400004F124018C351CF0D7FA287E40F00100CC
:105550002876287820F0010005F88C0900E016B1C3
:10556000022F04D02CE095F88C00C00726D0D5F887
:10557000BC1119B395F88720087C62F38700087482
:10558000E27FD5F8BC1162F341000874D5F8BC1174
:1055900066F3000008748EB1D5F8BC01102204F146
:1055A00024018C351CF0A8FA287840F0010005F899
:1055B000180B287820F0010005F8A409022F44D028
:1055C0005FF0000000EB400005EBC00090F88C009D
:1055D000800709D595F88000D5F8C421400805F169
:1055E00081011032FDF711FF05208DF8000095F8BC
:1055F00088006A4600F003008DF8010095F88C10D1
:105600008DF8021095F8A4008DF80300214650464D
:1056100001F046FA2078252805D0212807D0FFDFA1
:105620002078222803D922212046FDF79BFDA07F68
:1056300000F0030001280AD0002150460BF020FAA8
:1056400000283FF432AEFFDF23E60120BAE7012154
:10565000F3E7716881F801801BE6FFDF19E670B59A
:105660006A4C0025103C04F85C5F65600CF07FFD1F
:105670006649A1F1100003F02AFE04F82C5C062014
:10568000607262487C3020615030A0611030E0616F
:1056900070BD70B50D46FDF72DFD040000D1FFDF94
:1056A0004FF4E87128461CF0C0FA5848543068613D
:1056B00004F124002861A07F00F00300012809D034
:1056C0005FF0020105F59A700CF052FD002800D041
:1056D000FFDF70BD0121F5E70A46014602F59A7029
:1056E0000CF066BD70B5054640689CB0017809298C
:1056F00006D00C2937D00D2933D0FFDF1CB070BD88
:1057000046883046FDF7F6FC040000D1FFDF207824
:105710002128F3D0282821D1686802210C3001F01B
:10572000B4F9D8B168680821001D01F0AEF9A8B13C
:105730002D208DF80000ADF80260102204F1240144
:1057400001A81CF0D9F90BA9684608F083FC00B148
:10575000FFDF29212046FDF705FDCFE703F028FEF6
:10576000CCE701218171686886883046FDF7C2FC6C
:10577000040000D1FFDFA07F00F00301022902D165
:1057800020F01000A077207821280AD0686881795D
:1057900009B1807880B1A07F00F0030002285ED0BC
:1057A000FFDFA07F00F003000228A7D1FDF7B3FEC2
:1057B0000028A3D0FFDFA1E703F0FAFDE07FC107D7
:1057C00028D0800705D594F8200000F01F0010288D
:1057D0001ED0052084F82300207829281CD02428F6
:1057E000DFD1314605200EF0EFFC22212046FDF7E7
:1057F000B9FCA07F00F0030001282ED00021304624
:105800000BF03EF90028CCD0FFDFCAE728020020C9
:105810000620DFE70420DDE7A07F00F00300012879
:1058200006D0002130460BF019F9050003D101E044
:105830000121F7E7FFDF25212046FDF793FC0F202C
:105840008DF8580016A905F59A700CF0A8FC0228EE
:10585000A7D00028A5D0FFDFA3E70121CFE703F001
:10586000A7FD9EE72DE9F0438BB099461546884683
:105870000646FDF73FFC04004FD0207822284CD389
:1058800023284AD0E07FC00647D4A07F00F0030061
:10589000012806D0002130460BF0E0F8070002D0C6
:1058A0000CE00121F7E7A07F00F00300012805D1FB
:1058B0000121002230460BF0C8F8074601AB02AACE
:1058C00003A93846FFF706FC039800B9FFDF4FB184
:1058D000039807F59A7787612078222806D0242834
:1058E00004D007E003990020886103E025212046C9
:1058F000FDF738FC03980B21417046628580C0E9B2
:105900000289029901610199416104A90CF062FCCC
:10591000022802D0002800D0FFDF0BB0BDE8F083E2
:1059200070B586B00546FDF7E5FB017822291CD944
:10593000807F00F00300012806D0002128460BF0EC
:105940008DF8040030D101E00121F7E7FFDF2BE003
:10595000B4F8620004F1660630440178427831B14F
:1059600021462846FFF7E9FBB8B906B070BDADF88F
:1059700004200921284602AB04F059FB03900028BB
:10598000F3D011208DF80000694604F59A700CF0F0
:1059900006FC022801D000B1FFDF022310223146AD
:1059A00004F162000AF0FDFEB4F864000028CFD1D3
:1059B000DBE710B586B00446FDF79CFB0178222991
:1059C00019D9807F00F00300012806D0002120466D
:1059D0000BF044F8040003D101E00121F7E7FFDFF9
:1059E00012208DF80000694604F59A700CF0D7FB80
:1059F000002800D0FFDF06B010BD2DE9F05F05469E
:105A00000C4600270078904601093E46BA4604F14C
:105A1000080B02297ED0072902D00A2909D142E0C9
:105A200068680178092905D00C292CD00D292AD0C5
:105A3000FFDFB2E114271C26002C6CD04088A08028
:105A4000FDF758FB5FEA000900D1FFDF99F8170066
:105A50005A46400809F11801FDF7D7FC68688089AB
:105A6000208269684868C4F812008868C4F8160083
:105A7000A07E20F0060040F00100A07699F81E00FC
:105A800040F040014DE01A270A26002CD5D080882E
:105A9000A080FDF72FFB050000D1FFDF5946284607
:105AA000FFF7E9FA79E10CB1A88BA080287A0D28DC
:105AB0007ED006DC01287CD0022808D0032804D13F
:105AC00035E00F2876D0102875D0FFDF65E11E275E
:105AD0000926002CB1D0A088FDF70CFB5FEA000975
:105AE00000D1FFDF287B00F003000128207A1BD0C3
:105AF00020F001002072297B890861F341002072A7
:105B0000297BC90861F382002072297B090961F3AE
:105B1000C30001E036E1E9E0207299F81E0040F090
:105B2000800189F81E1038E140F00100E2E71327F8
:105B30000D26002CAAD0A088FDF7DCFA8146807FD4
:105B400000F00300012806D00021A0880AF086FF9B
:105B5000050003D101E00121F7E7FFDF99F81E00FE
:105B600000F00302012A59D0E86F817801F00301A7
:105B70000129217A54D021F00101217283789B08F8
:105B800063F3410121728378DB0863F382012172A0
:105B900083781B0963F3C3012172037863F3061151
:105BA0002172437863F3C711217284F809A003E0DE
:105BB0005EE0A4E08BE09CE0C178A172012A32D0C3
:105BC0004279E17A62F30001E1724279520862F3AC
:105BD0004101E1724279920862F38201E1724279F5
:105BE000D20862F3C301E1720279217B62F3000102
:105BF00021730279520862F34101217302799208FC
:105C000062F3820121730079C00860F3C30121733C
:105C100099F80000232859D9262168E0A86FA4E745
:105C200041F00101A9E70279E17A62F30001E17232
:105C30000279520862F34101E1720279920862F33B
:105C40008201E1720279D20862F3C301E172427902
:105C5000217B62F3000121734279520862F3410112
:105C600021734279920862F3820121734079CBE774
:105C700018271026D4B3A088FDF73CFA8346807F0E
:105C800000F00300012807D00021A0880AF0E6FEFA
:105C90005FEA000903D101E00121F6E7FFDFE868D0
:105CA000A06099F8000040F0040189F8001099F80C
:105CB0000100800708D5012020739BF800002328ED
:105CC0006BD9272158464FE084F80CA065E01527D2
:105CD0000F265CB1A088FDF70DFA814606225946D1
:105CE000E86808F01FFA0120A0739BE03FE04846F7
:105CF0003AE016270926D4B3287B20724DE0287B92
:105D000019270E269CB3C4F808A0A4F80CA00128FB
:105D100007D0022805D0032805D0042803D0FFDFD0
:105D20000DE0207207E0697B042801F00F0141F0CB
:105D3000800121721CD0607A20F003006072A0887C
:105D4000FDF7D8F905460078212826D0232800D071
:105D5000FFDFA87F00F00300012811D00021A088F8
:105D60000AF08EFE22212846FDF7FCF915E004E03A
:105D7000607A20F00300401CE0E7A8F8006011E022
:105D80000121ECE70CB16888A080287A03282BD089
:105D900004280AD005284BD0FFDFA8F800600CB11A
:105DA000278066800020BDE8F09F15270F26002C75
:105DB000E3D0A088FDF79EF9807F00F00300012862
:105DC00006D00021A0880AF049FE050003D101E0B9
:105DD0000121F7E7FFDFD5F821000622594608F038
:105DE000A1F984F80EA0D8E717270926002CC4D003
:105DF000A088FDF77FF98146807F00F0030001282D
:105E000006D00021A0880AF029FE050003D101E098
:105E10000121F7E7FFDF6878800701D5022000E065
:105E20000120207299F800002328B6D927215EE7C7
:105E300019270E26002CA0D0A088FDF75BF95FEA99
:105E4000000900D1FFDFC4F808A0A4F80CA084F872
:105E500008A0A07A40F00300A07299F81F1061F327
:105E60008200A07299F81F10C1F34002114205D0C0
:105E700099F8201001F01F0110292CD020F0080003
:105E8000A07299F81F004108607A61F3C300607244
:105E9000697A01F003010129A5D140F00400607284
:105EA00099F81E00E97A00F00300012816D0607B03
:105EB00061F300006073AA7A217B62F30001217311
:105EC000EA7A520862F341006073A87A400860F3EE
:105ED0004101217361E740F00800D1E7207B61F3C5
:105EE00000002073AA7A617B62F300016173EA7A91
:105EF000520862F341002073A87A400860F3410120
:105F000061734AE710B5FE4C30B10146102204F12E
:105F100020001BF0F1FD012084F8300010BD10B509
:105F20000446FFF724F8F64920461022BDE8104049
:105F300020311BF0E1BD70B5F14D06004FF00004BB
:105F400012D00EF08DF908B110240BE00621304676
:105F500008F0CFF8411C04D02866012085F85C00C9
:105F600000E00724204670BD0020F7E7007810F01D
:105F70000F0204D0012A05D0022A0CD110E000093A
:105F800009D10AE00009012807D0022805D003281A
:105F900003D0042801D00720704708700020704704
:105FA0000620704705282AD2DFE800F003070F1704
:105FB0001F00087820F0FF001EE0087820F00F0096
:105FC000401C20F0F000103016E0087820F00F00A0
:105FD000401C20F0F00020300EE0087820F00F0088
:105FE000401C20F0F000303006E0087820F00F0070
:105FF000401C20F0F000403008700020704707205F
:1060000070472DE9F041804688B00D4600270846CC
:106010000EF073F9A8B94046FDF76CF8040003D000
:106020002078222815D104E043F2020008B0BDE830
:10603000F08145B9A07F010603D500F003000228D6
:1060400001D01020F2E7A07FC10601D4010702D5DC
:106050000DB10820EAE7E17FC90601D50D20E5E78B
:1060600000F00300022805D125B12846FEF7F2FE14
:106070000700DBD1A07F00F00300012806D000213B
:1060800040460AF0EBFC060002D00DE00121F7E7E4
:10609000A07F00F0030001280CD000210022404620
:1060A0000AF0D3FC060007D0A07F00F0030002280E
:1060B00004D009E00121F1E70420B7E725B12A4621
:1060C00031462046FEF7EAFE07AB1A4669463046DF
:1060D000FFF700F8009800B9FFDF00990C20487026
:1060E00006F59A70C1F82480486100200881A07FDD
:1060F00000F00300012828D0EDB302200871301D04
:1061000088613078400908777078C0F3400048779C
:10611000287800F00102887F62F301008877E27F2F
:1061200062F382008877E27F520862F3C3008877C7
:10613000727862F304108877A878C87701F1210299
:1061400028462031FEF7CAFE22E001200871287897
:1061500000F00102087E62F3010008762A785208F6
:1061600062F3820008762A78920862F3C300087608
:106170002A78D20800E007E062F3041008762421B0
:106180002046FCF7EFFF0BE003200871052008769E
:1061900025212046FCF7E6FFA07F20F08000A077B5
:1061A00001A900980CF016F8022801D000B1FFDF19
:1061B00038463BE72DE9FF4F524A0D4699B09A46C3
:1061C00007CA14AB002783E807001998FCF792FF71
:1061D000060006D03078262806D008201DB0BDE87D
:1061E000F08F43F20200F9E7B07F00F00309B9F144
:1061F000010F03D0B9F1020F07D008E03DB91B9899
:10620000FEF728FE0028E9D101E01B9880BBB07F93
:1062100000F00300012806D0002119980AF01EFCA6
:10622000040003D101E00121F7E7FFDF852D28D02D
:1062300007DCF5B1812D1ED0822D1ED0832D08D113
:106240001DE0862D1FD0882D1FD0892D1FD08A2DAF
:106250001FD00F2020710F281DD003F0A6F8E0B149
:1062600001208DF83400201D0E902079B8B160E136
:1062700011E00020EEE70120ECE70220EAE703202E
:10628000E8E70520E6E70620E4E70820E2E7092042
:10629000E0E70A20DEE70720A0E711209EE7B9F13A
:1062A000010F17D0D4E91E50804602200190012032
:1062B0000090A87898F80210C0F3C000C1F3C001A4
:1062C00008405FEA000B63D050460DF0C9FF00287C
:1062D00072D133E0D4E91E850120019002200090A4
:1062E000214630461B9AFEF7D9FD1B98007800F036
:1062F0000101A87861F30100A870F17F04E00000BB
:10630000180200202420020061F38200A870F17FAF
:10631000490861F3C300A870617861F30410A870A4
:106320002078400928706078C0F3400068701B989E
:106330008078E870002068712871BAE7DAF80C00FC
:106340000DF08EFFC0BBDAF81C000DF089FF98BB82
:10635000DAF80C00A060DAF81C00E06098F80100A0
:10636000617800F0010041EA4000607098F8021086
:10637000C0B2C1F30011891E08406070002084F88B
:106380002000009906F1170002290BD001210AE034
:1063900098F80110607801F00101FD2242EA410104
:1063A0000840E2E7002104EB810188610199701C3B
:1063B000022902D0012101E028E0002104EB810143
:1063C0008861A87800F00300012849D198F80200FC
:1063D00000F00300012843D1B9F1010F04D12A1DB7
:1063E000691D1B98FEF77AFD287998F8041008407B
:1063F0008DF82C00697998F8052011408DF830103F
:1064000008432DD050460DF02BFF08B11020E5E6D3
:106410000AF1100004F5DE7104F190020490B9F164
:10642000020F3CD00090CDE9012100210BAB5A4670
:106430002046FEF7B0FD0028E9D104F5E07104F133
:10644000A802B9F1010F30D004980090CDE90121E4
:1064500000210CAB5A462046FEF79DFD0028D6D100
:106460006078800740D4A87898F80210C0F38000C4
:10647000C1F38001084337D0297898F8000014AAA6
:10648000B9F1010F17D032F810204B00DA4012F0AA
:10649000030718D0012F1ED0022F12D11DE0CDF816
:1064A00000A0CDE901210121C0E7CDF800A0CDE990
:1064B00001210121CDE732F811204300DA4002F03A
:1064C0000307032F07D0BBF1000F0DD0012906D021
:1064D000042904D008E00227F5E70127F3E70128A3
:1064E00001D0042800D10427F07F40F001006BF3B5
:1064F0004100F077607881074FF003000CD5A07160
:10650000BBF1000F15D100BF8DF85C0017AA314612
:10651000199800F0C5FA0CE00221022F18D0012FC3
:1065200018D0042F22D00020A071F07F20F00100AD
:10653000F07725213046FCF715FE0DA904F59A7079
:106540000BF02DFE10B1022800D0FFDF002045E641
:10655000A171D9E7A1710D2104F124001BF065FBA5
:10656000207840F0020020700420CDE70120A071C7
:10657000DFE72DE9F04387B09046894604460025C1
:10658000FCF7B8FD060006D03078272806D0082092
:1065900007B0BDE8F08343F20200F9E7B07F00F0F6
:1065A0000300012806D0002120460AF057FA040013
:1065B00003D101E00121F7E7FFDFA7795FEA0900D6
:1065C00005D0012821D0B9F1020F26D110E0B8F191
:1065D000000F22D1012F05D0022F05D0032F05D0A7
:1065E000FFDF2DE00C252BE0012529E0022527E027
:1065F00040460DF035FEB0B9032F0ED110224146B2
:1066000004F121001BF078FA1AE0012F02D0022FCA
:1066100003D104E0B8F1000F12D00720B8E74046DC
:106620000DF01EFE08B11020B2E7102104F1210088
:106630001BF0D9FA0621404607F05BFDC4F82100A3
:106640002078252140F0020020703046FCF78AFDBA
:106650002078C10714D020F00100207002208DF8AE
:10666000000004F1210002908DF80450694604F501
:106670009A700BF094FD022804D018B1FFDF01E0FE
:1066800084F82050002083E730B587B00D460446DB
:10669000FCF730FD88B1807F00F0030001280FD0A7
:1066A000002120460AF0DAF904000ED028460DF049
:1066B000D7FD38B1102007B030BD43F20200FAE731
:1066C0000121EEE72078400701D40820F3E72946AE
:1066D00004F14100202205461BF00EFA207840F01C
:1066E0001000207001070FD520F008002070132043
:1066F0008DF80000694604F59A7001950BF04FFD86
:10670000022801D000B1FFDF0020D4E770B50D46AC
:106710000646FCF7EFFC18B1017827291FD102E0EB
:1067200043F2020070BD807F00F00300012806D014
:10673000002130460AF092F9040003D101E0012162
:10674000F7E7FFDFA079022809D16078C00706D0FB
:106750002A4621463046FEF7F0FC10B10FE0082033
:1067600070BDB4F864000E280BD204F16601022358
:106770001022081F09F0DFFF012101704570002081
:1067800070BD112070BD70B5064686B014460D462A
:1067900008460DF065FD18B920460DF087FD10B1D3
:1067A000102006B070BDA6F57F40FF380ED03046F1
:1067B000FCF7A0FC38B1417822464B08811C1846F2
:1067C000FCF723FE07E043F20200EAE72046FDF76C
:1067D00099FC0028E5D11021E01D0DF012FAE21D10
:1067E00029466846FEF791FC102204F11700019932
:1067F0001BF082F90020D4E72DE9F041044686B071
:1068000015468846002708460DF077FD18B928463A
:106810000DF073FD10B1102006B008E42046FCF71F
:1068200069FC060003D03078272818D102E043F233
:106830000200F1E7B07F00F00300012806D000213C
:1068400020460AF00BF9040003D101E00121F7E72B
:10685000FFDF2078400702D56078800701D4082048
:10686000DAE7B07F00F00300012818D0D4E91E0158
:10687000407800B1B5B1487810B1B8F1000F11D02F
:10688000C5B1EA1D6846E168FEF73FFC102205F13C
:10689000170001991BF004F930B104270AE0D4E98C
:1068A0001E10E5E70720B7E71022E91D04F13100CB
:1068B0001BF022F9B8F1000F06D0102208F10701F1
:1068C00004F121001BF018F92078252140F0020086
:1068D00020703046FCF746FC2078C10716D020F027
:1068E0000100207002208DF8000004F121000290C8
:1068F000103003908DF80470694604F59A700BF01F
:106900004EFC022804D018B1FFDF01E084F82070AB
:10691000002081E7F8B515460E460746FCF7EAFB6E
:10692000040004D02078222804D00820F8BD43F2C7
:106930000200F8BDA07F00F00300022802D043F25D
:106940000400F8BD30460DF08BFC18B928460DF058
:1069500087FC08B11020F8BD00953288B31C214691
:106960003846FEF70EFC112814D00028F3D1297CFC
:106970004A08E17F62F30001E1772A7C62F341017A
:10698000E177297C890884F82010A17F21F080011B
:10699000A177F8BDA17F0907FBD4D6F80200C4F89F
:1069A0003600D6F80600C4F83A003088A0861022D7
:1069B000294604F124001BF09FF8287C4108E07F61
:1069C00061F38200E077297C61F3C300E077287CE3
:1069D000800884F82100A07F40F00800A077002004
:1069E000D3E770B596B00D46064613B1072016B032
:1069F00070BDFCF77FFB040007D02078222802D36B
:106A0000A07F400604D40820F1E743F20200EEE73D
:106A1000C5B12D208DF80000ADF802601022294686
:106A200001A81BF069F8287C4108E07F61F30000B1
:106A3000E077297C61F34100E077287C800884F8C6
:106A4000200004E02E208DF80000ADF802600BA9B4
:106A5000684607F0FFFAA17F21F04001A177C6E761
:106A600070B50D46FCF746FB040005D028460DF036
:106A70001DFC20B1102070BD43F2020070BD2946FC
:106A80002046FEF7F8FA002070BD04E010F8012B54
:106A90000AB100207047491E89B2F7D20120704721
:106AA00070B51546064602F080FC040000D1FFDFF9
:106AB000207820F00F00801C20F0F00020302070A3
:106AC00066802868A060BDE8704002F071BC0000DC
:106AD00018B18178012938D101E010207047018870
:106AE00042F60112881A914231D018DC42F60102B6
:106AF000A1EB020091422AD00CDC41B3B1F5C05F9A
:106B000025D06FF4C050081821D0A0F57060FF3870
:106B10001BD11CE001281AD002280AD117E0B0F5D9
:106B2000807F14D008DC012811D002280FD0032860
:106B30000DD0FF2809D10AE0B0F5817F07D0A0F57C
:106B40008070033803D0012801D0002070470F2047
:106B500070470B2826D008DC1BD2DFE800F01C2091
:106B600025251A25292325271E0011281CD008DCDD
:106B70000C2817D00D281DD00F2815D0102808D1AB
:106B800010E0822809D0842810D0852810D08728CA
:106B900012D003207047002070470520704743F251
:106BA00003007047072070470F207047042070478C
:106BB000062070470C20704743F20200704738B53A
:106BC0000C46050041D06946FFF7D0F9002819D1DD
:106BD0009DF80010607861F3020060706946681CDF
:106BE000FFF7C4F900280DD19DF80010607861F31B
:106BF000C5006070A978C1F34101012903D00229C1
:106C000005D0072038BD217821F0200102E021784D
:106C100041F020012170410704D0A978C90861F32F
:106C200086106070607810F0380F07D0A9780909D5
:106C300061F3C710607010F0380F02D16078400621
:106C400003D5207840F040002070002038BD70B59A
:106C500004460020088015466068FFF7B0FF002852
:106C600016D12089A189884211D860688078C00730
:106C70000AD0B1F5007F0AD840F20120B1FBF0F252
:106C800000FB1210288007E0B1F5FF7F01D90C202E
:106C900070BD01F201212980002070BD10B504787B
:106CA000137864F3000313700478640864F34103F9
:106CB00013700478A40864F3820313700478E40862
:106CC00064F3C30313700478240964F3041313708A
:106CD0000478640964F3451313700078800960F345
:106CE0008613137031B10878C10701D1800701D52F
:106CF000012000E0002060F3C713137010BD42783C
:106D0000530702D002F0070306E012F0380F02D05A
:106D1000C2F3C20300E001234A7863F302024A701F
:106D2000407810F0380F02D0C0F3C20005E04307EE
:106D300002D000F0070000E0012060F3C5024A70B5
:106D400070472DE9F04F95B00D00804615D0B8F191
:106D5000000F16D0122128461AF045FF4FF6FF7B90
:106D600005AA0121584606F0C0FF002426463746F2
:106D70004FF420596FF4205A75E0102015B0BDE88B
:106D8000F08F0720FAE700BF9DF81E0001280AD106
:106D9000BDF81C0048450BD010EB0A000AD00128B2
:106DA0000CD002280CD0042C0ED0052C0FD10DE0F5
:106DB000012400E00224BDF81A6008E0032406E084
:106DC0000424BDF81A7002E0052400E00624BDF892
:106DD0001A10414547D12C74BEB34FF0000810AAD9
:106DE0004FF0070ACDE90282CDE900A80DF13C0978
:106DF0001023CDF8109042463146584607F028F847
:106E000008BBBDF83C002A46C0B210A90BF084FABA
:106E1000C8B9AE81CFB1CDE900A80DF1080C0AAE1A
:106E200040468CE84102132300223946584607F0B9
:106E30000FF840B9BDF83C00F11CC01EC0B22A1DBD
:106E40000BF06AFA10B1032098E70AE0BDF82900B8
:106E5000E881062C05D19DF81E00A872BDF81C0023
:106E6000288100208AE705A806F04BFF00288BD078
:106E7000FFF76FFE82E72DE9F0471C46DDE9097850
:106E8000DDF8209015460E00824600D1FFDF0CB1E0
:106E9000208818B1D5B11120BDE8F087022D01D0AE
:106EA000012100E0002106F1140005F003FEA8F81E
:106EB000000002463B462946504603F0B8F8C9F8A0
:106EC000000008B9A41C3C600020E5E71320E3E7BC
:106ED000F0B41446DDE904528DB1002314B1022C44
:106EE00009D101E0012306E00D7CEE0703D025F077
:106EF000010501230D742146F0BC03F02EBF1A805A
:106F0000F0BC70472DE9FE4F91461A881C468A4610
:106F10008046FAB102AB494603F089F8050019D062
:106F20004046A61C278809F0B5FE324607262946AA
:106F30003B46009609F074FA20882346CDE90050BC
:106F40004A4651464046FFF7C3FF002020800120FB
:106F5000BDE8FE8F0020FBE72DE9F04786B09146A3
:106F6000DDE90E460F46824603AA05A904A8109D36
:106F70008DE807009846324621465046FFF77BFFD2
:106F8000049909B1012200E000222A70002817D1DB
:106F9000F84A03AB1060059A009104F11400CDE9A2
:106FA00001204A463946504606F048F990B1082873
:106FB0000ED2DFE800F00407040D0D090B0B0020D2
:106FC00006B069E71120FBE70720F9E70820F7E79B
:106FD0000320F5E7BDF80C100498CDE90001434605
:106FE000324621465046FFF773FFE8E72DE9F043AC
:106FF00089B00D46DDE9108781461C4616461421EE
:1070000003A81AF012FE012002218DF810108DF84D
:107010000C008DF81170ADF8146064B1A278D2073D
:1070200009D08DF81600E088ADF81A00A088ADF8F8
:107030001800A068079008A80095CDE90110424605
:1070400003A948466B68FFF787FF09B0BDE8F083E6
:10705000F0B58BB0002406460694079407270894E1
:1070600005A80994019400970294CDE903400D46C8
:1070700010232246304606F0EBFE78B90AA806A98E
:10708000019400970294CDE90310BDF8143000225A
:107090002946304606F0B2FC002801D0FFF759FD22
:1070A0000BB0F0BD06F052BB2DE9FC410C4680460A
:1070B000002602F07AF9054620780D287ED2DFE816
:1070C00000F0BC0713B325BD49496383AF959B000E
:1070D000A848006820B1417841F010014170ADE04E
:1070E000404602F092F9A9E00421404609F0B6FCBE
:1070F000070000D1FFDF07F11401404605F06EFCE8
:10710000A5BB13214046FDF787FB97E004214046CD
:1071100009F0A4FC070000D1FFDFE088ADF8000013
:107120000020B8819DF80000010704D5C00602D5F3
:10713000A088B88105E09DF8010040067ED5A088B2
:10714000F88105B9FFDF22462946404601F068FC78
:10715000022673E0E188ADF800109DF801100906E1
:107160000FD5072803D006280AD00AE024E004211E
:10717000404609F073FC060000D1FFDFA088F081D3
:107180000226CDB9FFDF17E00421404609F066FC76
:10719000070000D1FFDF07F1140006F00EFB90F0AE
:1071A000010F02D1E079000648D5387C022640F074
:1071B0000200387405B9FFDF224600E03DE02946B1
:1071C000404601F02DFC39E00421404609F046FC20
:1071D000017C002D01F00206C1F340016171017CC8
:1071E00021F002010174E7D1FFDFE5E7022601216A
:1071F000404602F045F921E00421404609F02EFC0A
:107200000546606800902089ADF8040001226946B7
:10721000404602F056F9287C20F0020028740DE068
:10722000002DC9D1FFDFC7E7022600214046FBF74A
:10723000CDF8002DC0D1FFDFBEE7FFDF3046BDE84F
:10724000FC813EB50C0009D001466B4601AA002026
:1072500006F080FE20B1FFF77CFC3EBD10203EBD55
:1072600000202080A0709DF8050002A900F0070012
:10727000FEF798FE50B99DF8080020709DF80500B3
:1072800002A9C0F3C200FEF78DFE08B103203EBD87
:107290009DF8080060709DF80500C109A07861F3B1
:1072A0000410A0709DF80510890961F3C300A07057
:1072B0009DF80410890601D5022100E0012161F347
:1072C00042009DF8001061F30000A07000203EBD58
:1072D00070B5144606460D4651EA040005D075B156
:1072E00008460DF001F878B901E0072070BD294685
:1072F000304606F090FE10B1BDE8704029E454B16C
:1073000020460CF0F1FF08B1102070BD2146304638
:10731000BDE8704095E7002070BD2DE9FC5F0C468C
:1073200090460546002701780822007A3E46B2EBD7
:10733000111F7DD104F10A0100910A31821E4FF024
:10734000020A04F1080B0191092A72D2DFE802F067
:10735000EDE005F528287BAACE006888042109F015
:107360007DFB060000D1FFDFB08928B15227072638
:10737000C3E000001403002051271026002C7DD00C
:107380006888A0800120A071A88900220099FFF7D9
:107390009FFF002873D1A8892081288AE081D1E04D
:1073A000B5F81290072824D1E87B000621D5512793
:1073B00009F1140086B2002CE1D0A88900220099BE
:1073C000FFF786FF00285AD16888A08084F806A0BD
:1073D000A88920810120A073288A2082A4F8129015
:1073E000A88A009068884B46A969019A01F0F5FACD
:1073F000A8E0502709F1120086B2002C3ED0A889DF
:1074000000225946FFF764FF002838D16888A08021
:10741000A889E080287A072813D002202073288AC0
:10742000E081E87BC0096073A4F81090A88A01E0AD
:1074300085E082E0009068884B4604F11202A96959
:10744000D4E70120EAE7B5F81290512709F11400BA
:1074500086B2002C66D06888042109F0FFFA8346C2
:107460006888A080A88900220099FFF731FF0028D2
:107470006ED184F806A0A889208101E052E067E07F
:107480000420A073288A2082A4F81290A88A009071
:1074900068884B46A969019A01F09FFAA989ABF85F
:1074A0000E104FE06888FBF725FE07466888042128
:1074B00009F0D4FA064607B9FFDF06B9FFDF687B9B
:1074C000C00702D05127142601E0502712264CB3E2
:1074D0006888A080502F06D084F806A0287B5946E3
:1074E00001F08BFA2EE0287BA11DF9E7FE49A8895F
:1074F0004989814205D1542706269CB16888A0801D
:1075000020E053270BE06888A080A889E08019E07C
:107510006888042109F0A2FA00B9FFDF5527082680
:10752000002CF0D1A8F8006011E056270726002CA7
:10753000F8D06888A080002013E0FFDF02E0012877
:1075400008D0FFDFA8F800600CB12780668000201B
:10755000BDE8FC9F57270726002CE3D06888A08051
:10756000687AA071EEE7401D20F0030009B14143A5
:10757000091D01EB4000704713B5DB4A0020107174
:10758000009848B10024684609F06BF8002C02D13D
:10759000D64A009911601CBD01240020F4E770B5A3
:1075A0000D46064686B014465C2128461AF03DFB7F
:1075B00004B9FFDFA0786874A2782188284601F01A
:1075C00046FA0020A881E881228805F1140130469E
:1075D00005F0E9F96A460121304606F086FB19E01C
:1075E0009DF80300000715D5BDF806103046FFF7DB
:1075F0002FFD9DF80300BDF8061040F010008DF837
:107600000300BDF80300ADF81400FF233046059ACF
:1076100006F0CCFC684606F074FB0028E0D006B00B
:1076200070BD10B50C4601F1140005F0F3F90146E8
:10763000627C2046BDE8104001F03EBA70B50546B8
:10764000042109F00BFA040000D1FFDF04F114015A
:107650000C46284605F0C2F921462846BDE8704090
:1076600005F0C3B970B58AB00C460646FBF742FD7B
:10767000050014D02878222827D30CB1A08890B117
:1076800001208DF80C0003208DF8100000208DF8EB
:10769000110054B1A088ADF81800206807E043F24B
:1076A00002000AB070BD0920FBE7ADF81800059094
:1076B0000421304609F0D2F9040000D1FFDF04F1C3
:1076C000140005F0BEF9C00601D40820E9E701F076
:1076D0006CFE60B108A802210094CDE9011095F874
:1076E000232003A930466368FFF736FCD9E7112051
:1076F000D7E72DE9F04FB2F802A0834689B01546CE
:1077000089465046FBF7F6FC07460421504609F02F
:10771000A5F90026044605964FF002080696ADF836
:107720001C6007B9FFDF04B9FFDF4146504603F094
:107730007CFE60B907AA06A905A88DE807004246A5
:10774000214650466368FFF796FB00B1FFDF6648AD
:1077500007AB0660DDE9051204F11400CDF80090D6
:10776000CDE90320CDE9013197F823205946504651
:107770006B6805F0AFF906000AD0022E04D0032E84
:1077800014D0042E00D0FFDF09B03046BDE8F08FE2
:10779000BDF81C000028F7D00599CDE9001042463D
:1077A000214650466368FFF793FBEDE7687840F0A9
:1077B00008006870E8E72DE9F04F9BB004464FF0F1
:1077C00000084948ADF85480ADF83080ADF85080DD
:1077D000A0F80880ADF81480ADF81880ADF82080CE
:1077E000ADF81C80007916460D464746012808D0A2
:1077F000022806D0032804D0042802D008201BB099
:10780000C4E720460CF02CFDD0BB28460CF028FD28
:10781000B0BB60680CF071FD90BB606848B16089D6
:107820002189884202D8B1F5007F01D90C20E6E712
:1078300080460BAA06A92846FFF709FA0028DED1E0
:1078400068688078C0F34100022808D19DF81900CB
:1078500010F0380F03D028690CF046FD80B905A957
:107860002069FFF7ACF90028C9D1206950B16078D0
:1078700080079DF8150000F0380002D5C0B301E084
:1078800011E0A8BB9DF8140080060ED59DF81500E8
:1078900010F0380F03D060680CF026FD18B960684E
:1078A0000CF02BFD08B11020A9E707A96069FFF7CC
:1078B00086F90028A3D1606940B19DF81D0000F051
:1078C000070101293FD110F0380F3CD008A9A06969
:1078D000FFF775F9002892D19DF81C00800632D47C
:1078E0009DF82000800604E014030020140000200E
:1078F00029E028D4A06940B19DF8210000F00701DB
:10790000012920D110F0380F1DD0E06818B100789F
:10791000C8B11C2817D20EAA611C2046FFF7BEF979
:107920000120B94660F30F27BA4607468DF84E008E
:1079300042F60300ADF84C000DF13B0217A9286890
:107940000AF009FD08B1072059E79DF85C0016A967
:10795000CDF80090C01CCDE9019100F0FF0B002391
:107960000BF20122514613A806F002F9F0BBBDF854
:1079700058000990FE482A8929690092CDE9011032
:107980006B89BDF82C202868069906F0F1F80100F3
:107990007ED120784FF0020AC10601D480062BD593
:1079A000ADF80C90606950B907A906A8FFF7A7F9D0
:1079B0009DF81D0020F00700401C8DF81D009DF86B
:1079C0001C008DF84E7040F0C8008DF81C0042F687
:1079D0000210ADF84C000CA903AACDF800A0CDE927
:1079E0000121002340F2032213A800E01EE00799C2
:1079F00006F0BEF801004BD1DD484D4608385B4625
:107A00000089ADF839000EA8CDE90290CDF80490B8
:107A1000CDF810904FF007090022CDF80090BDF886
:107A200058104FF6FF7005F0E9FF10B1FFF791F81D
:107A3000E5E69DF83800000625D52946012060F3CB
:107A40000F218DF84E704FF42450ADF84C00ADF876
:107A5000105062789DF81000002362F300008DF84A
:107A600010006278CDF800A0520862F341008DF852
:107A7000100004AACDE9012540F2032213A806F064
:107A800077F8010004D1606888B32069A8B900E0E4
:107A900086E005A906A8FFF732F96078800706D4CA
:107AA0009DF8150020F038008DF8150005E09DF8D0
:107AB000140040F040008DF814008DF84E7042F62E
:107AC0000110ADF84C00208940F20121B0FBF1F229
:107AD00001FB1202606814ABCDF80080CDE9010310
:107AE000002313A8059906F043F8010058D1207827
:107AF000C00729D0ADF80C50A06950B908A906A854
:107B0000FFF7FDF89DF8210020F00700401C8DF8DC
:107B100021009DF820008DF84E7040F040008DF857
:107B2000200042F60310ADF84C0015A903AACDF8C9
:107B300000A0CDE90121002340F2032213A80899F7
:107B400006F016F801002BD1E06868B32946012041
:107B500060F30F218DF84E7042F60410ADF84C0022
:107B6000E068002302788DF8602040788DF861008D
:107B7000E06818AA4088ADF86200E06800798DF8E6
:107B80006400E068C088ADF86500CDF80090CDE9EC
:107B900001254FF4027213A805F0EAFF010003D09B
:107BA000099800F0B5FF2AE67148032108380171F1
:107BB00056B100893080BDF850007080BDF83000AB
:107BC000B080BDF85400F080002018E670B50125A3
:107BD0008AB016460B46012802D0022816D104E0CE
:107BE0008DF80E504FF4205003E08DF80E5042F601
:107BF0000100ADF80C005BB10024601C60F30F24A1
:107C000004AA08A918460AF0A6FB18B1072048E5FF
:107C1000102046E504A99DF820205548CDE9002113
:107C2000801E02900023214603A802F2012205F0E3
:107C30009FFF10B1FEF78DFF33E54D4808380EB1B8
:107C4000C1883180057100202BE5F0B593B007465F
:107C500001268DF83E6041F60100ADF83C0012AA05
:107C60000FA93046FFF7B2FF002848D1404C00254D
:107C7000083CE7B31C2102A819F0D7FF9DF80800C3
:107C80008DF83E6040F020008DF8080042F6052097
:107C9000ADF83C000E959DF83A00119520F00600D5
:107CA000801C8DF83A009DF838006A4620F0FF00ED
:107CB0008DF838009DF8390009A920F0FF008DF8F3
:107CC00039000420ADF82C00ADF830000EA80A9061
:107CD00011A80D900FA80990ADF82E5002A8FFF73B
:107CE0006AFD00280BD1BDF80000608100E008E0CB
:107CF000BDF80400A081401CE0812571002013B074
:107D0000F0BD6581A581BDF84800F4E72DE9F74F86
:107D10001749A0B00024083917940A79A146012A0E
:107D200004D0022A02D0082023B02FE5CA8882425C
:107D300001D00620F8E721988A46824201D1072027
:107D4000F2E701202146ADF848004FF6FF7860F3D6
:107D50000F21ADF84A808DF86E0042F6020B0691B5
:107D60008DF87240ADF86CB0ADF870401CA901E020
:107D70001C0300201391ADF8508012A805F0E5FF18
:107D800000252E462F460DAB072212A9404605F0CE
:107D9000DFFF78B182285DD195B38EB3ADF8645022
:107DA000ADF866609DF85E008DF8144019AC0128AE
:107DB00064D06BE09DF83A001FB3012859D1BDF89B
:107DC000381059451FD118A809A901940294CDE98A
:107DD000031007200090BDF8361010230022404603
:107DE00006F036F8B0BBBDF86000042801D00628C4
:107DF0004AD1BDF82410219881423AD10F2093E74F
:107E00003AE0012835D1BDF83800B0F5205F03D045
:107E100042F6010188422CD1BAF80600BDF83610AE
:107E2000884201D1012700E0002705B19EB12198C9
:107E300081421ED118A809AA01940294CDE9032019
:107E4000072000900D4610230022404606F000F85F
:107E500000B902E02DE04E460BE0BDF860000228BC
:107E600001D0102810D1C0B217AA09A90AF054FAFB
:107E700050B9BDF8369086E7052055E705A917A843
:107E8000221D0AF068FA08B103204DE79DF814009E
:107E90000023001DC2B28DF8142022980092CDE973
:107EA00001401BA8069905F063FE10B902228AF86A
:107EB0000420FEF74EFE37E710B50B46401E88B093
:107EC00084B205AA00211846FEF7E8FE00200DF155
:107ED000080C06AA05A901908CE80700072000906D
:107EE0000123002221464FF6FF7005F087FD04466E
:107EF000BDF81800012800D0FFDF2046FEF729FE5C
:107F000008B010BDF0B5F94F044687B038790E4679
:107F1000032804D0042802D0082007B0F0BD04AA2A
:107F200003A92046FEF793FE0500F6D1606880782D
:107F3000C0F3410002280AD19DF80D0010F0380F5F
:107F400005D020690CF0D0F908B11020E5E72089B0
:107F500005AA21698DE807006389BDF81020206813
:107F6000039905F005FE10B1FEF7F3FDD5E716B154
:107F7000BDF814003080042038712846CDE7F8B5EC
:107F80000C0006460BD001464FF6FF7500236A46EB
:107F9000284605F0DFFF20B1FEF7DBFDF8BD10201D
:107FA000F8BD69462046FEF70AFE0028F8D1A07801
:107FB000314600F001032846009A05F0F7FFEBE791
:107FC00030B587B0144600220DF1080C05AD0192C2
:107FD0008CE82C00072200920A46014623884FF6BF
:107FE000FF7005F00BFDBDF814102180FEF7B1FD08
:107FF00007B030BD70B50D46042108F02FFD040018
:1080000000D1FFDF294604F11400BDE8704004F000
:1080100011BD70B50D46042108F020FD040000D10B
:10802000FFDF294604F11400BDE8704004F025BDCF
:1080300070B50D46042108F011FD040000D1FFDFEA
:10804000294604F11400BDE8704004F03DBD70B550
:108050000546042108F002FD040000D1FFDF21469F
:1080600028462368BDE870400122FEF74BBF70B57B
:108070000646042108F0F2FC040000D1FFDF04F101
:10808000140004F0C7FC401D20F0030511E0011DA1
:1080900000880022431821463046FEF733FF0028AF
:1080A0000BD0607CABB2684382B2A068011D08F0BF
:1080B00078FBA06841880029E9D170BD70B50546FC
:1080C000042108F0CBFC040000D1FFDF2146284644
:1080D0006368BDE870400222FEF714BF70B50E461B
:1080E000054601F062F9040000D1FFDF0120207293
:1080F00066726580207820F00F00001D20F0F000EF
:1081000040302070BDE8704001F052B910B504460F
:10811000012900D0FFDF2046BDE810400121FAF719
:1081200055B92DE9F04F97B04FF0000A0C00834687
:10813000ADF818A0D04619D0E06830B1A068A8B159
:108140000188ADF81810A0F800A05846FAF7D2FF41
:10815000070043F2020967D03878222862D304214D
:10816000584608F07BFC050005D103E0102017B04D
:10817000BDE8F08FFFDF05F1140004F04BFC401D5B
:1081800020F00306A078012803D0022801D00720A0
:10819000EDE7208878B1401C81B209AA584605F065
:1081A000A4FD09A805F0ADFD9DF82E204FF4505117
:1081B000012A0DD102E043F20300D8E7BDF82C20DC
:1081C000A2F52453023B03D1822801D0A0B901E0DB
:1081D0000846CCE7E068B0B1CDE902A0072006AAC6
:1081E000CDF804A000900492A2882188BDF8183030
:1081F000584605F003FC10B1FEF7ABFCB7E7A168E9
:10820000BDF8180008809DF82700C00602D543F28B
:108210000140ACE70D9838B1A1780078012905D06C
:1082200080071AD40820A2E74846A0E7C007F9D083
:1082300002208DF83C00A8684FF00009A0B1697CCD
:108240004288714391420FD98AB2B3B2011D08F03E
:108250005EFA8046A0F800A006E003208DF83C00FE
:10826000D5F800804FF001099DF8280010F0380F74
:1082700000D1FFDF9DF828001D49C0F3C20008446B
:1082800097F8231010F8010C884201D90F206EE7EF
:108290002088ADF8400014A90095CDE9019143462E
:1082A00007220FA95846FEF757FE002885D19DF8F2
:1082B000500050B9A078012807D1687CB3B2704350
:1082C00082B2A868011D08F036FA00204FE770B5A9
:1082D000064615460C460846FEF7FAFB002809D16B
:1082E0002A4621463046BDE870406FE41403002062
:1082F0002E20020070BD09E570B51E4614460D0023
:1083000009D044B1616831B138B1F849C9888142B6
:1083100003D0072070BD102070BD2068FEF7D8FB89
:108320000028F9D1324621462846BDE87040FFF7C3
:1083300042BA70B515460C0006D038B1EB49098930
:10834000814203D0072070BD102070BD2068FEF769
:10835000BFFB0028F9D129462046BDE87040D1E591
:1083600070B5064686B00D46144610460BF09EFFCB
:10837000D0BB60680BF0C1FFB0BBA6F57F40FF38F3
:1083800003D03046FAF7B6FE80B128466946FEF7BC
:10839000D8FC00280CD19DF810100F2008293CD2E1
:1083A000DFE801F008060606060A0A0843F20200A2
:1083B00006B070BD0320FBE79DF80210012908D12B
:1083C000BDF80010B1F5C05FF2D06FF4C052D142D9
:1083D000EED09DF8061001290DD1BDF80410A1F5CD
:1083E0002851062907D200E028E0DFE801F0030366
:1083F00004030303DCE79DF80A1001290ED1BDF840
:108400000810B1F5245FD3D0A1F524510239CFD0A3
:108410000129CDD0022901D1CAE7FFDF606878B910
:10842000002305AA2946304605F094FD10B1FEF759
:1084300090FBBDE79DF81400800601D41020B7E73B
:108440006188224628466368FFF7BAFDB0E72DE948
:10845000F043814687B08846144610460BF026FF4D
:1084600018B1102007B0BDE8F083002306AA4146EA
:10847000484605F06FFD10B1FEF76BFBF2E79DF883
:108480001800C00602D543F20140EBE7002507279C
:1084900005A8019500970295CDE9035062884FF633
:1084A000FF734146484605F0D3FC060013D16068CF
:1084B0000BF0FCFE60B960680195CDE902500097B1
:1084C0000495238862884146484605F0C1FC06466B
:1084D000BDF8140020803046CEE739B1834B0A88BE
:1084E0009B899A4202D843F20300704719E610B5FF
:1084F00086B07E4C0423ADF81430638943B1A4895F
:108500008C4201D2914205D943F2030006B010BD5E
:108510000620FBE7ADF81010002100910191ADF8A5
:10852000003002218DF8021005A9029104A90391DF
:10853000ADF812206946FFF7F4FDE7E72DE9FC47A7
:1085400081460E4608460BF08BFE88BB4846FAF77C
:10855000D1FD5FEA00080AD098F80000222829D34C
:108560000421484608F07AFA070005D103E043F2F7
:108570000200BDE8FC87FFDF07F1140004F061FA98
:1085800005463078012803D0022804D00720F0E700
:10859000A8070FD502E015F0340F0BD0B079341DC9
:1085A000C00709D0E08838B1A0680BF059FE18B1B7
:1085B0001020DEE70820DCE732782088002628B388
:1085C000A0F201130721112B18D20CD2DFE803F01F
:1085D0000B090D0B1D0B121D100B0B1D1D1D1D0B73
:1085E0001D00022A11D10846C3E7012AFBD00CE086
:1085F000EA0600E0AA06002AF5DA06E0A0F5C07255
:108600001F2A02D97D3A022AEDD8C6B200F0CDFE6B
:1086100050B198F82300CDE90006FA89234639467F
:108620004846FEF7E3FCA4E71120A2E72DE9F04F4E
:108630008BB01F4615460C4683460026FAF75AFDB6
:1086400028B10078222805D208200BB090E543F22B
:108650000200FAE7B80801D00720F6E7032F00D19F
:1086600000274FF6FF79CCB1022D72D320460BF0D4
:1086700044FE30B904EB0508A8F101000BF03DFE03
:1086800008B11020E1E7AD1EAAB22146484605F028
:108690005AFD38F8021C88425BD1ADB21349B807C5
:1086A00002D58889401C00E001201FFA80F8F807F5
:1086B00001D08F8900E04F4605AA4146584605F093
:1086C00014FB4FF0070A4FF00009D4B3204608E02E
:1086D000408810283DD8361D304486B2AE4238D28C
:1086E000A01902884245F3D353E000001403002090
:1086F0009DF8170002074CD594B304EB0608361D0D
:10870000B8F80230B6B2102B23D89A19AA4220D852
:10871000B8F8002091421CD1C0061CD5CDE900A9B3
:108720000DF1080C0AAAA11948468CE80700B8F810
:1087300000100022584605F061F920B1FEF709FA51
:1087400083E726E005E0B8F80200BDF8281088426B
:1087500001D00B2079E7B8F80200304486B207E078
:10876000FFE7C00604D55846FEF772FC002889D101
:108770009DF81700BDF81A1020F010008DF81700B2
:10878000BDF81700ADF80000FF235846009A05F029
:108790000DFC05A805F0B5FA18B9BDF81A10B942D4
:1087A000A6D90421584608F059F9040000D1FFDF8A
:1087B000A2895AB1CDE900A94D4600232146584669
:1087C000FEF714FC0028BBD1A5813EE700203CE762
:1087D0002DE9FF4F8BB01E4617000D464FF00004E9
:1087E00012D0B00802D007200FB0C1E4032E00D190
:1087F00000265DB108460BF077FD28B93888691E60
:1088000008440BF071FD08B11020EDE7C64AB0072F
:1088100001D5D18900E00121F0074FF6FF7802D0A1
:10882000D089401E00E0404686B206AA0B9805F0AB
:108830005CFA4FF000094FF0070B0DF1140A38E015
:108840009DF81B00000734D5CDF80490CDF800B09A
:10885000CDF80890CDE9039A434600220B9805F025
:10886000F7FA60BB05B3BDF814103A882144281903
:10887000091D8A4230D3BDF81E2020F8022BBDF816
:10888000142020F8022BCDE900B9CDE90290CDF8F3
:1088900010A0BDF81E10BDF8143000220B9805F092
:1088A000D7FA08B103209FE7BDF814002044001D4B
:1088B00084B206A805F025FA20B1822806D0FEF77A
:1088C00048F991E7BDF81E10B142B9D934B17DB174
:1088D0003888A11C884203D20C2085E7052083E755
:1088E00022462946404605F02EFC01462819018003
:1088F000A41C3C80002077E710B504460BF0D6FCA2
:1089000008B1102010BD8848C0892080002010BD0B
:10891000F0B58BB00D460646142103A819F085F971
:1089200001208DF80C008DF8100000208DF811004A
:10893000ADF814503046FAF7DDFB48B10078222834
:1089400012D30421304608F089F8040005D103E071
:1089500043F202000BB0F0BDFFDF04F11400074644
:1089600004F06FF8400601D40820F3E7207C0221D0
:1089700040F00100207409A80094CDE901100722FD
:1089800003A930466368FEF7E7FA20B1217C21F0A5
:1089900001012174DEE729463046F9F708FD08A9F0
:1089A000384604F03DF800B1FFDFBDF82040172C39
:1089B00001D2172000E02046A84201D92C4602E04F
:1089C000172C00D2172421463046FFF722FB214600
:1089D0003046F9F708FA0020BCE7F8B51C46154602
:1089E0000E46069F08F044F92346FF1DBCB23146EF
:1089F0002A46009407F0DBFCF8BD70B50C4605462E
:108A00000E21204619F0EFF8002020802DB1012D15
:108A100001D0FFDF70BD062000E00520A07170BD11
:108A200010B548800878134620F00F00001D20F094
:108A3000F00080300C4608701422194604F108003A
:108A400019F09FF800F0B4FC3748046010BD2DE920
:108A5000F047DFF8D890491D064621F0030117467C
:108A60000C46D9F8000007F01AFE050000D1FFDF20
:108A70004FF000083560A5F800802146D9F80000C5
:108A800007F00DFE050000D1FFDF7560A5F800803E
:108A90007FB104FB07F1091D0BD0D9F8000007F0E6
:108AA000FEFD040000D1FFDFB460C4F80080BDE823
:108AB000F087C6F80880FAE72DE9F0411746491D0E
:108AC00021F00302194D064601681446286807F094
:108AD00011FE22467168286807F00CFE3FB104FBC6
:108AE00007F2121D03D0B168286807F003FE0420C6
:108AF00007F05EFF0446042007F062FF201A0128F9
:108B000004D12868BDE8F04107F0BEBDBDE8F081A2
:108B100010B50C4605F0B5F800B1FFDF2046BDE802
:108B20001040FEF716B800001403002014000020C7
:108B300010B50C460246817B808819B1518981426B
:108B400000D908462080D18800F0C5FF032800D353
:108B50000320C1B22088BDE8104000F0B1BF10B5BD
:108B60000C460246817B808819B11189814200D967
:108B700008462080D18800F0AEFF022800D30220F2
:108B8000C1B2208800F09CFF401CC0B210BD2DE98E
:108B9000F04F0C00F84999B08146D1E90201CDE9C6
:108BA0000C0109F10300F54E20F003010091357E20
:108BB00005F1010504D1E8B209F054FB00B1FFDF73
:108BC00000984FF0000B00EB0510C01C20F00301D3
:108BD00000915CB9707A327A81F800B01044C2B268
:108BE000B08B80B204F0D5FE00B1FFDF0098F169D0
:108BF000084400902146684600F02CFF0098C01CF5
:108C000020F003000090737A327AB17A04B1002028
:108C100007F016FE0099084400902146684600F0CF
:108C20006EFF00273D46B24696F801800CE02846CC
:108C300000F0F3FE064681788088F9F76EF97178C6
:108C40006D1C00FB0177EDB24545F0D10098C01CCA
:108C500020F00300009004B100203946F9F768F9CC
:108C600000990027084400903D469AF801800CE0E6
:108C7000284600F0D2FE0646C1788088FEF773FCD5
:108C800071786D1C00FB0177EDB24545F0D100987D
:108C9000C01C20F00300009004B100203946FEF70C
:108CA0006BFC00994FF000080844009045469AF884
:108CB00001700EE0284600F0B0FE0646807B30B121
:108CC00006F1080001F0F9FE727800FB02886D1CC5
:108CD000EDB2BD42EED10098C01C20F00300009020
:108CE00004B10020414601F0ECFE00990844C01D8B
:108CF00020F007000090E4BBA24AA1491160111DB9
:108D0000401E086001222C219F4807F062FCFAF700
:108D10002EF99E484178806805F09CFB42208DF832
:108D200004009A480C30C0788DF8060010B1012874
:108D300004D005E001208DF8060001E08DF806B0B2
:108D400001A806F0C5FE10B10EA805F042FC0021F6
:108D50001E22084603F03CF8FBF778F987480CAA76
:108D600000210C30F8F706FB00B1FFDF9AF819007C
:108D700000E015E0FEF769FF00B1FFDF7F484FF428
:108D8000F671443018F051FF7C480421443080F8DB
:108D9000E91180F8EA11062180F8EB110321017135
:108DA000009919B0A1EB0900BDE8F08F70B5734CC4
:108DB00006464434207804EB4015E078083590B935
:108DC000A01990F8E80100280ED0A0780F2800D351
:108DD000FFDF2021284618F028FF687866F302009C
:108DE00068700120E070284670BD2DE9F04105460D
:108DF0000C4600270078052190463E46B1EB101F37
:108E000000D0FFDF287A58B101280FD0FFDF00BF64
:108E1000A8F800600CB1278066800020BDE8F081D2
:108E20000127092674B16888A08008E0022714266B
:108E300044B16888A0802869E060A88A2082287BE5
:108E40002072E5E7A8F80060E7E710B54F4C6068CE
:108E5000C11D21F00701814200D0FFDF47480121F9
:108E60000022017042700172032343728172027307
:108E7000052282821F22C282417345A202610A2218
:108E8000027641764FF4B061C1616168416010BD06
:108E900030B53E4C1568636810339D4202D2042001
:108EA000136030BD354B5D785A6802EB05121070C7
:108EB00051700320D080172090800120D0709070D6
:108EC000002090735878401C5870606810306060C3
:108ED000002030BD70B5064628480024457807E0DC
:108EE000204600F09AFD0178B14204D0641CE4B23F
:108EF000AC42F5D1002070BDF7B5064608780C46A7
:108F000008B3FFF7E7FF0546202E08D0232E17D021
:108F1000212E41D0222E3FD0242E2BD114E000F060
:108F200087FD0DB1697800E00021401A81B2A07878
:108F30000144FF291ED830B1A08802282CD219E0A4
:108F40006088172828D215E0227A2AB36188172969
:108F500010D3A08817280DD3A3795BB1E3794BB167
:108F6000402A07D84FF6FB72914201D8904213D99C
:108F70000420FEBD0720FEBD342002003004002086
:108F80000000002000060240600600201C000020B7
:108F90006E5246357800000065B9207802AA01219A
:108FA000FFF776FF0028E6D12078FFF793FF050052
:108FB00000D1FFDF203E052E18D2DFE806F0030BBC
:108FC0000E081100A0786870A088E8800FE0608823
:108FD000A8800CE0A078A87009E0A078E87006E00E
:108FE00054F8020FA8606068E86000E0FFDF00202E
:108FF000C1E700B597B053218DF8001000780BA998
:1090000000F001008DF80200684605F023F817B063
:1090100000BD00B5017897B001F001018DF8021094
:10902000417801F001018DF803100178C1F340018E
:109030008DF804104178C1F340018DF805100178D6
:1090400089088DF80610417889088DF80710817815
:109050008DF80810C1788DF8091000798DF80A0094
:109060004D208DF800000BA9684604F0F3FFCEE711
:109070002DE9F04FDFF8F883FE4C97B000271BE096
:10908000012000F07FFD0120FFF790FE0546FA4821
:1090900007F0C8FA686000B9FFDF686805F027F8D4
:1090A000A0B12846FAF7CEFA284600F071FD18B9AB
:1090B000F148696807F0BFFA94F9E9010428DFDA9A
:1090C000022007F075FC06460025AAE0EA48696818
:1090D00007F0B1FAF4E7B8F802104046491C89B22B
:1090E000A8F80210B14201D3002141800221B8F852
:1090F000020007F0B3FC00286BD0B8F8020054213E
:109100008DF80010ADF802000BA9684604F0A2FF2C
:1091100000B1FFDF9DF8300010F0010F0FD0B8F85C
:10912000020007F0B7FD5FEA000900D1FFDF484603
:1091300006F0A3FF18B1B8F8020002F065F9B8F81C
:10914000020007F095FD5FEA000900D1FFDF484605
:1091500006F08CFFE8BB0321B8F8020007F07EFCA4
:109160005FEA000B48D1FFDF46E000BFDBF81000EC
:1091700010B10078FF2849D0022000F003FD022042
:10918000FFF714FE8246484607F0A2F8CAF804002A
:1091900000B9FFDFDAF8040007F07CF90021009045
:1091A0000170B8F802105046AAF8021001F032FE21
:1091B000484607F071F900B9FFDF504600F0E8FCBF
:1091C00018B99AF80100000704D50098CBF81000F0
:1091D00012E024E0DBF8100038B10178491C11F0EE
:1091E000FF01017008D1FFDF06E00022114648466A
:1091F00000F011FC00B9FFDF94F9EA01022805DB59
:10920000B8F8020001F0CAFD0028AFD194F9E901D5
:10921000042804DB484607F0B5F900B101276D1CAE
:10922000EDB2B54204D294F9EA010228BFF653AF79
:10923000002F7FF423AF17B00320BDE8F04F00F0FC
:10924000A1BC10B58A4CA0600868E060AFF2DF10E6
:1092500002F031FD607010BD864800214438017075
:109260008348017085494160704730B505464FF02D
:1092700080500C46D0F8A41097B0491C05D1D0F806
:10928000A810C9430904090C08D050F8A01F01F028
:10929000010129704168216080680EE02B208DF863
:1092A00000000BA9684604F0D5FE00B1FFDF0120E5
:1092B00028700C982060BDF83400A0802878002821
:1092C00003D0607940F0C000607117B030BDF0B5D8
:1092D0004FF080540746D4F8800097B00D462B26F7
:1092E000401C0BD1D4F88400401C07D1D4F888006E
:1092F000401C03D1D4F88C00401C0BD0D4F8800063
:109300003860D4F884007860D4F88800B860D4F865
:109310008C0016E08DF82C6069460BA804F09AFECC
:1093200000B1FFDF01983860029878608DF82C60FA
:1093300069460BA804F08EFE00B1FFDF0198B8600B
:109340000298F860D4F89000401C0BD1D4F8940037
:10935000401C07D1D4F89800401C03D1D4F89C00DD
:10936000401C08D054F8900F286060686860A068BE
:10937000A860E06816E08DF800600BA9684604F06C
:1093800069FE00B1FFDF0C9828600D9868608DF8C9
:1093900000600BA9684604F05DFE00B1FFDF0C9889
:1093A000A8600D98E86017B0F0BD32480079FDE480
:1093B00070B5304CE07830B3207804EB4010407A40
:1093C00000F00700204490F9E801002800DCFFDFEE
:1093D0002078002504EB4010407A00F007000119C6
:1093E00091F8E801401E81F8E8012078401CC0B2E5
:1093F00020700F2800D12570A078401CA0700AF0C2
:109400001BFBE57070BDFFDF70BD3EB50546032157
:1094100007F024FB0446284607F02AFC054604B959
:10942000FFDF206918B10078FF2800D1FFDF01AA13
:109430006946284600F0EFFA60B9FFDF0AE0002233
:1094400002A9284600F0E7FA00B9FFDF9DF80800FE
:1094500000B1FFDF9DF80000411E8DF80010EED234
:1094600020690199884201D1002020613EBD0000A1
:109470001C000020740400206006002068130020F7
:1094800070B50546A0F57F400C46FF3800D1FFDFE0
:10949000012C01D0FFDF70BDFFF787FF040000D172
:1094A000FFDF207820F00F00401D20F0F00050304A
:1094B000207065800020207201202073BDE870407C
:1094C00076E72DE9F04116460D460746FFF76DFF9A
:1094D000040000D1FFDF207820F00F00401D20F0B5
:1094E000F0005030207067800120207228682061D1
:1094F000A888A0822673BDE8F04159E730B599B03D
:10950000FFF7E8FC040000D1FFDF0CA92046FFF7BD
:109510000FFB05460BA92046FFF721FB0146522011
:109520008DF80000BDF830008DF80250001DADF838
:109530000400BDF82C008DF80310001DADF80600E6
:10954000E088ADF808000DA9684604F083FD002806
:1095500000D0FFDF19B030BD2DE9F047DFF80094EF
:109560000546002799F8000010B10820BDE8F087F3
:1095700028460AF09BFE08B11020F7E7F94C207846
:1095800008B9FFF762FC607A217A0844C6B200F09D
:109590004FFAB04207D2301AC1B22A460020FFF774
:1095A00077FC0700E2D1D9F804004E46C01C20F039
:1095B0000300C9F8040000F05EFB716800EB0108CD
:1095C00001214046FFF7E3FA0646296840448842F5
:1095D00002D8B6F5803F15D328600020FFF77AFC4B
:1095E00005000DD005F11300D9F8041020F0030098
:1095F0004E46884200D0FFDF6078401E6070756084
:109600000420B3E700214046FFF7C1FA0446A64212
:1096100000D0FFDF04EB0801C9F8041029604FF601
:10962000FF71A9F80210012189F8001038469DE762
:109630002DE9F0410446CA4817460D46007810B19E
:109640000820BDE8F08108460AF00AFE08B11020A3
:10965000F7E7C44E307808B9FFF7F7FB601E1E2805
:1096600007D8012C3FD12878FE283CD8307600203E
:10967000E7E7A4F120001F2805D8E0B23A462946C2
:10968000BDE8F04138E4A4F140004FF000081F2885
:1096900021D8402C02D0412C25D117E068782978B8
:1096A0004418A97881421ED8FF2C08D808F0BEFFC4
:1096B00007460AF07BF9381A801EA04201DA122010
:1096C000BFE728883081A878B07224E02846BDE83A
:1096D000F04100F085BAA4F1A0001F2803D8A02C07
:1096E00003D0A12C06D00720ABE7287800F00100BA
:1096F000707610E029680920F829A2D38A07A0D142
:10970000727B02F00302012A04D1F28AD73293B2AB
:109710008B4296D8F161404693E72DE9F0478146A8
:109720000E4608460AF0C2FD48B948460AF0DCFD7C
:1097300028B909F1030020F00301494501D01020A8
:1097400014E788484FF0000A4430817869B14178C5
:10975000804600EB41140834378832460021204609
:1097600000F024FA050004D027E0A6F800A00520A8
:10977000FCE6B9F1000F24D03088B84201D90C259D
:109780001FE0607800F00705284600F0FBF908EBC1
:109790000507324697F8E8014946401C87F8E8017A
:1097A000204607F5F47700F001FA05463878401EA8
:1097B0003870032000F0E6F92DB10C2D01D0A6F889
:1097C00000A02846D2E66078654F00F00701012925
:1097D00023D002290CD0032932D0FFDF98F80110E2
:1097E0004046491CC9B288F801100F2933D034E033
:1097F000616821B1000702D46088FFF706FE98F87F
:10980000EA014646012802D1787802F073FA96F907
:10981000EA010428E2DBFFDFE0E7616811B15248AA
:1098200006F009FF98F8E9014646032802D1787846
:1098300002F060FA96F9E9010428CFDBFFDFCDE7FB
:10984000C00602D56088FFF7E0FD98F9EB01062815
:10985000C4DBFFDFC2E780F801A08178491E817078
:10986000617801F0070101EB080090F8E811491C4C
:1098700080F8E811A5E770B50D4604460AF0F0FC43
:1098800018B928460AF012FD08B1102070BD29460B
:109890002046BDE8704008F01CBD70B50446154672
:1098A0000E4608460AF0DCFC18B928460AF0FEFC11
:1098B00008B1102070BD022C03D0102C01D009205B
:1098C00070BD2A463146204608F026FD0028F7D014
:1098D000052070BD70B514460D4606460AF0C0FC62
:1098E00038B928460AF0E2FC18B920460AF0FCFC18
:1098F00008B1102070BD22462946304608F02BFDE5
:109900000028F7D0072070BD10B596B004460AF0C5
:10991000CDFC10B1102016B010BD0F208DF8000046
:109920000BA9684604F096FB0028F4D19DF834009A
:109930002070BDF836006080BDF83800A08000209F
:10994000E9E770B505460C4608460AF0CDFC20B99B
:1099500074B120680AF0AAFC40B1102070BD00006C
:109960001C0000203004002060060020A08828B1E0
:1099700021462846BDE87040FDF774BE0920EDE79A
:1099800070B504460D4608460AF06AFC30B9601E00
:109990001E2814D828460AF063FC08B11020DDE721
:1099A000022C01D90720D9E704B9FFDFE64800EB14
:1099B000840050F8041C2846BDE870400847A4F114
:1099C00020001F28EED829462046BDE87040FAF74F
:1099D0007FBA70B504460D4608460AF067FC30B9F8
:1099E000601E1E280DD828460AF03AFC08B1102047
:1099F000B4E7012C01D0022C01D10620AEE70720EC
:109A0000ACE7A4F120001F28F9D829462046BDE87C
:109A10007040FAF7E1BA06F0E4BA30B5CB4D04462F
:109A20006878A04200D8FFDF686800EB041030BD02
:109A300070B5C64800252C46467807E02046FFF75B
:109A4000ECFF4078641C2844C5B2E4B2B442F5D1BE
:109A5000284683E72DE9F0410C46064600F043F91D
:109A600007463068C01C20F0030232601CBBB748B8
:109A70003B46092120300AF0CDFA002408E0092CE9
:109A800011D2DFE804F005070509090B05050700F9
:109A9000AF4804E0AF4802E0AF4800E0AF480AF04A
:109AA000D9FA054600E0FFDFA54200D0FFDF641CC5
:109AB000E4B2092CE3D3306800EB07103060C0E556
:109AC000021D5143452900D245210844C01CB0FB6A
:109AD000F2F0C0B2704700B597B055228DF8002063
:109AE000001DADF80200ADF804100BA9684604F0A3
:109AF000B1FA00B1FFDFBDF8300017B000BD2DE9AD
:109B0000FC5F064691484FF000088B4647464446A6
:109B100090F8019022E02046FFF77FFF050000D17A
:109B2000FFDF687869463844C7B22846FFF700F877
:109B3000824601A92846FFF712F80346BDF8040043
:109B40005246001D81B2BDF80000001D80B206F033
:109B5000DBFF6A78641C00FB0288E4B24C45DAD172
:109B60003068C01C20F003003060BBF1000F00D053
:109B700000204246394606F0D5FF3168084430607F
:109B8000BDE8FC9F7149443108710020C8707047DE
:109B90006E494431CA782AB10A7801EB4211083182
:109BA000814201D001207047002070472DE9F0412B
:109BB00006460078154600F00F0400201080601E55
:109BC0000F46052800D3FFDF5F482A46103000EB20
:109BD0008400394650F8043C3046BDE8F04118474F
:109BE00038B50446407800F00300012803D002286D
:109BF0000BD0072038BD606858B10AF07EFBD0B9A1
:109C000060680AF071FB20B915E060680AF028FB73
:109C100088B969462046FCF7A9F90028EAD160789E
:109C200000F00300022808D19DF8000028B1606808
:109C30000AF05AFB08B1102038BD6189F8290DD807
:109C4000208988420AD8607800F003023F48012A40
:109C500006D1D731C26989B28A4201D2092038BD02
:109C600094E80E0000F10C0585E80E000AB9002109
:109C70008182002038BD2DE9F05F4FF000093348A4
:109C8000C8464F464E464D46CB464C4690F801A03E
:109C900011E02046FFF7C1FE4178827809F1010901
:109CA000884412FB0177C27812FB0166807B10FBAF
:109CB0000155641CE4B25445EBD10BEB890000EB79
:109CC000C80000EB870000EB860000EBC5011F48D1
:109CD000027A01EBC201427A807A01EBC20101EB08
:109CE000C000BDE8F09F2DE9F047DFF86090002547
:109CF0002C4699F8092099F8081099F801700A443F
:109D0000D6B299F80A20114401F0FF0808E0204675
:109D1000FFF783FE817B407811FB0055641CE4B2A1
:109D2000BC42F4D199F80800401C3044304440440F
:109D3000401C0EB1012100E0002108444419FF2C11
:109D400000D9FFDFE0B211E434200200300400202B
:109D5000633D00008DAB0000592F00003120010051
:109D60002DE9F041074614468846084601F02EFDCD
:109D7000064608EB88001C22796802EBC0000D182B
:109D8000688C58B14146384601F028FD0146786894
:109D90000078C200082305F120000CE0E88CA8B18F
:109DA0004146384601F021FD014678680823407895
:109DB000C20005F1240006F0F4FC38B1062121723E
:109DC0006681D0E90010C4E9031009E02878092869
:109DD0000BD00520207266816868E0600020287042
:109DE0002046BDE8F04101F0E7BC07202072668103
:109DF000F4E72DE9F04116460D460746406801EBB1
:109E000085011C2202EBC1014418204601F00FFD20
:109E100040B10021708865F30F2160F31F410820D5
:109E20000AF0D2F909202070324629463846BDE8AA
:109E3000F04195E72DE9F0410E46074600241C212C
:109E4000F07816E004EB8403726801EBC303D25C84
:109E50006AB1FFF7AAFA050000D1FFDF6F802A463A
:109E600021463046FFF7C5FF0120BDE8F081641CA4
:109E7000E4B2A042E6D80020F7E770B50646002419
:109E80001C21C0780AE000BF04EB8403726801EB78
:109E9000C303D5182A782AB1641CE4B2A042F3D8CF
:109EA000402070BD2821284617F09DFE70688089EB
:109EB0002881204670BD70B5034600201C25DC7843
:109EC0000DE000BF00EB80065A6805EBC606324481
:109ED000167816B1128A8A4204D0401CC0B284425D
:109EE000F0D8402070BDF0B5044600201C26E5786F
:109EF0000EE000BF00EB8007636806EBC7073B443A
:109F00001F788F4202D15B78934204D0401CC0B2CC
:109F10008542EFD84020F0BD0078032801D0002012
:109F20007047012070470078022801D00020704758
:109F3000012070470078072801D0002070470120D9
:109F400070472DE9F041064688461078F1781546AD
:109F5000884200D3FFDF2C781C27641CF078E4B221
:109F6000A04201D8201AC4B204EB8401706807EB48
:109F7000C1010844017821B14146884708B12C70DD
:109F800073E72878A042E8D1402028706DE770B5CB
:109F900014460B880122A240134207D113430B80C1
:109FA00001230A22011D06F0C6FB047070BD2DE9D5
:109FB000FF4F81B00878DDE90E7B9A4691460E4648
:109FC00040072CD4019806F065FE040000D1FFDFA5
:109FD00007F1040820461FFA88F105F0A9FE0500E4
:109FE00000D1FFDF204629466A4606F092F9009824
:109FF000A0F80370A0F805A0284606F04BFA0178F7
:10A0000069F306016BF3C711017020461FFA88F14E
:10A0100005F0DEFE00B9FFDF019804F07CF906EBE5
:10A020000900017F491C017705B0BDE8F08F2DE9DB
:10A03000F84F0E469A4691460746032106F00EFD5C
:10A040000446008DDFF8B085002518B198F80000AF
:10A05000B0421ED1384606F01DFE070000D1FFDFDA
:10A0600009F10401384689B205F062FE050010D0FE
:10A07000384629466A4606F04CF9009800210A46FF
:10A080000180817004F00AFA0098C01DCAF800002F
:10A0900021E098F80000B04216D104F1260734F808
:10A0A000341F012000FA06F911EA090F00D0FFDF82
:10A0B0002088012340EA090020800A22391D384601
:10A0C00006F054FB067006E0324604F1340104F158
:10A0D0002600FFF75CFF0A2188F800102846BDE83B
:10A0E000F88FFEB514460D46064602AB0C2206213B
:10A0F000FFF79DFF002826D00299687812220A7087
:10A10000801C487008224A80A87020888880608857
:10A11000C880A0880881E088488100240C20CDE90F
:10A1200000040523062229463046FFF740FF21465A
:10A1300066F31F41F0230022012009F09BFF68789D
:10A14000801C68700120FEBDFEB514460D46062237
:10A15000064602AB1146FFF76AFF002812D0029BA9
:10A16000132000211870A8785870022058809C8015
:10A170000620CDE900010246052329463046FFF7B7
:10A1800016FF0120FEBD2DE9FE430C46804644E04B
:10A1900002AB0E2207214046FFF749FF002841D0BD
:10A1A00060681C2267788678BF1C06EB860102EB8C
:10A1B000C101451802981421017047700A2141809D
:10A1C000698A0181E98A4181A9888180A98981817F
:10A1D000304601F0FBFA029905230722C8806F7010
:10A1E0000420287000250E20CDE9000521464046B8
:10A1F000FFF7DDFE294666F30F2168F31F41F023C8
:10A200000022082009F036FF6078FC49801C60704D
:10A2100062682046921CFFF794FE606880784028B0
:10A22000B6D10120BDE8FE83FEB50D46064638E0F6
:10A2300002AB0E2207213046FFF7F9FE002835D089
:10A2400068681C23C17801EB810203EBC202841809
:10A25000029815220270627842700A224280A28916
:10A260004281A2888281084601F0B0FA0146029834
:10A270008180618AC180E18A0181A088B8B1002013
:10A28000207000210E20CDE9000105230722294678
:10A290003046FFF78CFE6A68D9492846D21CFFF782
:10A2A00050FE6868C0784028C2D10120FEBD06205B
:10A2B000E6E72DE9FE430C46814644E0204601F0E6
:10A2C000A0FAD0B302AB082207214846FFF7AFFE41
:10A2D0000028A7D060681C2265780679AD1C06EBC3
:10A2E000860102EBC10147180298B7F810800621D9
:10A2F0000170457004214180304601F067FA014643
:10A30000029805230722C180A0F804807D700820F0
:10A3100038700025CDE9000521464846FFF747FE85
:10A32000294666F30F2169F31F41F023002208201C
:10A3300009F0A0FE6078801C60706268B149204618
:10A34000121DFFF7FEFD606801794029B6D101209A
:10A3500068E72DE9F34F83B00E4680E0304601F008
:10A3600050FA002875D071681C2091F8068008EB1F
:10A37000880200EBC2000C184146304601F035FA65
:10A380000146A078C30070684078C20004F1240040
:10A3900006F023FA07468088E18B401A80B2002538
:10A3A00081B3AA46218B814200D8084681460246E5
:10A3B00002AB07210398FFF73AFE010028D0BAF15B
:10A3C000000F03D0029AB888022510808B46E28BDA
:10A3D0003968A9EB05001FFA80FA0A440398009235
:10A3E00006F058FCED1D009A59465346009506F0BC
:10A3F00017F8E08B504480B2E083B988884209D1D5
:10A40000012508E0FFE7801C4FF0010A80B2C9E790
:10A41000002009E60025CDE90095238A0722314670
:10A420000398FFF7C4FDE089401EE0818DB1A0785C
:10A43000401CA0707068F178427811FB02F1CAB23A
:10A44000816901230E3006F076F980F80080002043
:10A45000E08372686C493046921DFFF772FD7068A8
:10A46000817940297FF47AAF0120DDE570B5064699
:10A4700048680D4614468179402910D104EB8401C7
:10A480001C2202EBC101084401F0F2F9002806D0B9
:10A490006868294684713046BDE8704059E770BD50
:10A4A000FEB50C460746002645E0204601F0A9F916
:10A4B000D8B360681C22417901EB810102EBC10134
:10A4C0004518688900B9FFDF02AB0822072138462A
:10A4D000FFF7ADFD002833D00299607816220A708C
:10A4E000801C4870042048806068407901F06EF953
:10A4F000014602980523072281806989C1800820CE
:10A50000CDE9000621463846FFF751FD6078801CF2
:10A510006070A88969890844B0F5803F00D3FFDFE7
:10A52000A88969890844A8816E81626837492046F4
:10A53000521DFFF706FD606841794029B5D1012021
:10A54000FEBD30B5438C458BC3F3C704002345B132
:10A55000838B641EED1AC38A6D1E1D4495FBF3F3B5
:10A56000E4B22CB1008918B1A04200D820460344BF
:10A570004FF6FF70834200D3034613800C7030BD4A
:10A580002DE9FC41074616460D46486802EB860158
:10A590001C2202EBC101441801AA69462046FFF7BC
:10A5A000D0FFA1896389BDF80420C81880B2824217
:10A5B0001FD001280AD99DF800C0BCF1000F03D0BC
:10A5C000B4F808C0844501D8002B12D0501A00D529
:10A5D000002060816868407940280AD1204601F057
:10A5E0003DF9002805D06868294646713846FFF7CE
:10A5F00057FFBDE8FC8100002C000020199F0000DF
:10A60000279F0000359F000071B800005DB8000072
:10A610002DE9FE4F8946804615465088032106F0F5
:10A620001DFA8346B8F80200402801D2402000E01D
:10A63000403880B282460146584601F0E2F80028D0
:10A640007ED00AEB8A001C22DBF8041002EBC0006B
:10A650000C18204601F0EBF8002877D1B8F800007C
:10A66000E18A88423CD8A189D1B348456ED1002601
:10A670005146584601F0B2F8218C0F18608B48B94A
:10A68000B9F1020F62D3B8F804006083618A88428E
:10A6900026D80226A9EB06001FFA80F9B888A28BFB
:10A6A000801A002814DD4946814500DA084683B245
:10A6B00068886968029139680A44CDE9003206F079
:10A6C000D7FADDE90121F61D009B009605F06FFE2B
:10A6D000A18B01EB090080B2A083618B884207D96E
:10A6E000688803B052465946BDE8F04F01F0DDB826
:10A6F0001FD14FF009002872B8F802006881D7E92D
:10A700000001C5E90401608BA881284601F054F8D6
:10A710005146584601F062F80146DBF80400082370
:10A720000078C20004F1200006F03BF80020A0836E
:10A730006083A0890AF0FF02401EA081688800E0C3
:10A7400004E003B05946BDE8F04F19E7BDE8FE8FBD
:10A750002DE9F041064615460F461C46184609F0FD
:10A760007FFD18B9206809F0A1FD08B1102007E4A9
:10A770007168688C0978B0EBC10F01D3132005E430
:10A780003946304601F02AF80146706808230078FF
:10A79000C20005F1200005F0CEFFD4E90012C0E9A7
:10A7A00000120020E3E710B50446032106F056F935
:10A7B0000146007800F00300012804D08A8A204670
:10A7C000BDE81040C0E42046BDE8104001F114028D
:10A7D00087E470B50446032106F040F905460146BA
:10A7E0002046FFF766FD002816D029462046FFF7D1
:10A7F00057FE002810D029462046FFF715FD0028F7
:10A800000AD029462046FFF7BEFC002804D029467E
:10A810002046BDE870409CE570BD2DE9F0410C4636
:10A8200080461EE0E178427811FB02F1CAB28169EC
:10A8300001230E3005F0B5FF077860681C22C1794E
:10A84000491EC17107EB8701606802EBC101461820
:10A850003946204600F0D5FF18B1304600F0E0FF41
:10A8600020B16068C1790029DCD180E7FEF79DFD49
:10A87000050000D1FFDF0A202872384600F0A6FF4D
:10A8800068813946204600F0B0FF01466068082321
:10A890004078C20006F1240005F083FFD0E90010E3
:10A8A000C5E90310A5F80280284600F085FFB078BE
:10A8B00000B9FFDFB078401EB07058E770B50C46A5
:10A8C0000546032106F0CAF801464068C2792244D1
:10A8D000C2712846BDE870409FE72DE9FE4F8246D1
:10A8E000507814460F464FF0000800284FD001283A
:10A8F00007D0022822D0FFDF2068B8606068F860C7
:10A9000024E702AB0E2208215046FFF790FB0028F7
:10A91000F2D00298152105230170217841700A2197
:10A920004180C0F80480C0F80880A0F80C806288DC
:10A9300082810E20CDE90008082221E0A678304669
:10A9400000F044FF054606EB86012C22786802EBF6
:10A95000C1010822465A02AB11465046FFF767FB79
:10A960000028C9D002980721017021784170042184
:10A97000418008218580C680CDE9001805230A465C
:10A9800039465046FFF713FB87F80880DEE6A678C5
:10A99000022516B1022E13D0FFDF2A1D914602AB0D
:10A9A00008215046FFF743FB0028A5D0029801215B
:10A9B000022E0170217841704580868002D005E02A
:10A9C0000625EAE7A188C180E1880181CDE90098E8
:10A9D0000523082239465046D4E710B50446032122
:10A9E00006F03CF8014600F108022046BDE81040A0
:10A9F00073E72DE9F05F0C4601281DD0957992F898
:10AA00000480567905EB85011F2202EBC10121F07C
:10AA1000030B08EB060111FB05F14FF6FF7202EA8A
:10AA2000C10909F1030115FB0611F94F21F0031AC1
:10AA300040B101283DD124E06168E57891F80080BB
:10AA40004E78DFE75946786805F029FE606000B966
:10AA5000FFDF5946606817F0E8F8E57051467868FE
:10AA600005F01DFE6168486100B9FFDF606842695A
:10AA700002EB09018161606880F8008060684670BF
:10AA800017E0606852464169786805F033FE5A461F
:10AA90006168786805F02EFE032005F089FF044602
:10AAA000032005F08DFF201A012802D1786805F0F7
:10AAB000EBFD0BEB0A00BDE8F09F024600210220EF
:10AAC00097E713B5009858B10024684605F0C9FD12
:10AAD000CF490A22002C0A7001D1009A4A601CBD9D
:10AAE00001240020F2E770B50C46154638212046B7
:10AAF00017F09BF8012666700A2104F11C0017F07C
:10AB000094F805B9FFDF297A207861F301002070FD
:10AB1000A879002817D02A4621460020FFF769FFB0
:10AB20006168402088706168C870616808716168F8
:10AB300048716168887161682888088161686888DF
:10AB400048816068868170BDC878002802D00022E4
:10AB500001204EE7704770B50546002165F31F419F
:10AB6000012009F031FB0321284605F077FF04009E
:10AB700000D1FFDF21462846FFF75CF9002804D00A
:10AB8000207840F010002070012070BD2DE9FF41B9
:10AB900080460E460F0CFEF708FC050007D06F80BC
:10ABA0000321384605F05AFF040008D106E004B03E
:10ABB0003846BDE8F0411321F9F72EBEFFDFB8F1AA
:10ABC000010F05D0B8F1080F18D0FFDFBDE8FF81F5
:10ABD00020782A4620F0080020700020ADF80200FE
:10ABE00002208DF800004FF6FF70ADF80400ADF8BC
:10ABF000060069463846F9F717F9E7E7C6F3072173
:10AC000001EB81021C23606803EBC202805C042814
:10AC100003D008280AD0FFDFD8E7012000904FF4C6
:10AC200040432A46204600F009FECFE704B02A46FA
:10AC30002046BDE8F041FFF7DCB82DE9F05F0027C2
:10AC4000B0F80A9090460C4605463E46B9F1400FD2
:10AC500001D2402001E0A9F140001FFA80FA287AD1
:10AC6000C01E08286BD2DFE800F00D04192058360A
:10AC70003C4772271026002C6CD0D5E90301C4E9AB
:10AC800002015CE070271226002C63D00A2205F135
:10AC90000C0104F1080016F074FF50E071270C2637
:10ACA000002C57D0E868A06049E0742710269CB3B8
:10ACB000D5E90301C4E902016888032105F0CEFE4D
:10ACC0008346FEF772FB024668885080514658461C
:10ACD000FFF746F833E075270A26ECB1A8892081F2
:10ACE0002DE076271426BCB105F10C0004F1080311
:10ACF00007C883E8070022E07727102664B1D5E96A
:10AD00000301C4E902016888032105F0A7FE01469A
:10AD10006888FFF782FD12E01CE073270826CCB19B
:10AD20006888032105F09AFE01460078C00606D522
:10AD30006888FFF77FF810B96888F8F767FCA8F80B
:10AD400000602CB12780A4F8069066806888A080F7
:10AD50000020B0E6A8F80060FAE72DE9FC410C46B7
:10AD60001E4617468046032105F078FE05460A2C4C
:10AD70000AD2DFE804F005050505050509090907FC
:10AD8000042303E0062301E0FFDF0023CDE9007682
:10AD9000224629464046FFF70AF92AE438B5054617
:10ADA000A0F57F40FF3830D0284605F061FF040051
:10ADB00000D1FFDF204605F08BFA002815D00146B0
:10ADC0006A46204605F0A5FA00980321B0F8054030
:10ADD000284605F043FE0546052C03D0402C05D23D
:10ADE000402404E0007A80B1002038BD403CA4B289
:10ADF000214600F006FD40B1686804EB84013E2264
:10AE000002EBC101405A0028EFD0012038BD0000FC
:10AE10002C0000202DE9F04F044689B0408805F051
:10AE200027FF050000D1FFDF06AA2846616800F071
:10AE3000C1FC069D001F81B235F8032F6B888A4242
:10AE400005D1042B0AD0052B1DD0062B15D0224688
:10AE50002846FFF7DDFB09B0BDE8F08F16462D1D33
:10AE6000224629463046F7F78CFA0828F3D12246C5
:10AE700029463046FCF73DFCEDE76088291D6368F4
:10AE8000FAF7F0FCE7E717466088032105F0E6FDD6
:10AE90004FF000088DF804800646ADF80680042FB8
:10AEA000D9D36A79002AD6D028794FF6FF794FF0A6
:10AEB0001C0A13282CD008DC012878D0062847D09B
:10AEC000072875D0122874D106E0142872D01528EE
:10AED00071D016286DD1ACE10C2F6AD1307800F01A
:10AEE0000301012965D040F0080030706879B07026
:10AEF00001208DF804002889ADF808006889ADF8B4
:10AF00000A00A889ADF80C00E889ADF80E0019E038
:10AF1000B07890429FD1307801079CD5062F9AD106
:10AF200020F0080030706088414660F31F41012026
:10AF300009F04AF902208DF80400ADF8089028893C
:10AF4000ADF80A006088224601A9F8F76DFF82E794
:10AF5000082F80D12F89B5F80A90402F01D24020C8
:10AF600001E0A7F1400080B280460146304600F083
:10AF700048FC08B3716808EB88002C2202EBC00083
:10AF8000095A4945E3D1FE4807AAD0E90210CDE9A4
:10AF9000071068798DF81C0008F0FF058DF81E5029
:10AFA00060883146FFF799FC2246294639E0B6E031
:10AFB00014E03CE039E0E6E0F148D0E90010CDE9EA
:10AFC00007106879ADF820708DF81C00ADF822905C
:10AFD000608807AA3146FFF780FC3CE7082FB6D10E
:10AFE0006889B5F80880402801D2402000E0403848
:10AFF00087B23946304600F004FC0028A7D007EBA2
:10B00000870271680AEBC2000844028A42459ED159
:10B01000017808299BD140786979884297D1F9B2A3
:10B0200022463046FEF7E5FE15E70E2F07D0CDF895
:10B030001C80CDF8208068798DF81C00C8E76989EC
:10B04000EF898B46B5F80C903046FEF734FFABF134
:10B050004001402901D309204AE0B9F1170F01D37B
:10B06000172F01D20B2043E040280ED000EB8002C6
:10B0700071680AEBC20008440178012903D14078C5
:10B0800069798842A9D00A2032E03046FEF7F5FE01
:10B09000014640282BD001EB810372680AEBC30004
:10B0A00002EB0008012288F800206A7988F8012064
:10B0B00070682A894089B84200D938462D8A03230E
:10B0C0002372A282E7812082A4F80C906582084650
:10B0D00000F07CFB6081A8F81490A8F81870A8F81C
:10B0E0000E50A8F810B0204600F066FBB3E604202E
:10B0F00005212172A4F80A80E08101212173A04971
:10B10000D1E90421CDE9072169798DF81C10ADF84A
:10B110001E00608807AA3146FFF7DFFBE3E7062F32
:10B12000E4D3B078904215D13078010712D520F0E1
:10B13000080030706088414660F31F41012009F02B
:10B1400043F802208DF804002889ADF80800ADF816
:10B150000A90F7E604213046FEF7C5FE0546402872
:10B16000C4D002208303009022462946304600F0D6
:10B1700065FB4146608865F30F2160F31F4108209D
:10B1800009F022F867E60E2FB0D104213046FEF711
:10B19000AAFE81464028A9D04146608869F30F2164
:10B1A00060F31F41082009F00FF8288A0790E8890A
:10B1B00000907068AF894089B84200D9384683460C
:10B1C000B5F80A8028890590484600F0FFFA6081AA
:10B1D000079840B10220079B00902246494630461E
:10B1E00000F02CFB37E6B8F1170F1ED3172F1CD336
:10B1F0000420207200986082E781A4F810B0A4F8BF
:10B200000C8009EB890271680AEBC2000D180099E5
:10B210000598A5F81480A5F818B0E9812882204681
:10B2200000F0CAFA0620287015E601200B230090D2
:10B23000D3E7082FA6D129893046FEF73CFE074602
:10B2400040289FD007EB870271680AEBC2000844D0
:10B25000804600F0ECFA002894D16D89B8F80E0011
:10B260002844B0F5803F05D360883A46314600F067
:10B270001CFBF0E5002D85D0A8F80E0060883A464A
:10B280003146FFF7F3F808202072384600F09EFAA6
:10B290006081A58127E770B50D460646032105F0BC
:10B2A000DDFB040004D02078000704D5112070BD18
:10B2B00043F2020070BD2A4621463046FEF711FFD8
:10B2C00018B9286860616868A061207840F00800BB
:10B2D0002070002070BD70B50D460646032105F0B4
:10B2E000BDFB040004D02078000704D4082070BD02
:10B2F00043F2020070BD2A4621463046FEF724FF85
:10B3000000B9A582207820F008002070002070BDD0
:10B310002DE9F04F0E4691B08046032105F09EFBCB
:10B320000446404605F0B6FC07460020079008900A
:10B330000990ADF830000A9002900390049004B98F
:10B34000FFDF0DF1080917BBFFDF20E038460BA92E
:10B35000002204F046FE9DF82C0000F07F050A2D27
:10B3600000D3FFDF6019017F491E01779DF82C0093
:10B3700000060CD52A460CA907A8FEF708FE01E036
:10B380005C20020019F80510491C09F80510761E0A
:10B39000F6B2DBD204F13400FC4D04F1260BDFF8E9
:10B3A000F0A304F12A07069010E05846069900F031
:10B3B0006EFA064628700A2800D3FFDF5AF82610D6
:10B3C00040468847E08CC05DB04202D0208D002806
:10B3D000EBD10A202870EE4D4E4628350EE00CA920
:10B3E00007A800F054FA0446375D55F8240000B968
:10B3F000FFDF55F82420394640469047BDF81E002F
:10B400000028ECD111B027E510B5032105F026FB8B
:10B41000040000D1FFDF0A2104F11C0016F005FC36
:10B42000207840F00400207010BD10B50C460321B8
:10B4300005F014FB01190A7F01211AB9808EA14081
:10B44000084000D0012010BD2DE9F84F894615466F
:10B450008246032105F002FB070004D0284608F0CD
:10B46000FFFE40B903E043F20200BDE8F88F484612
:10B4700008F01CFF08B11020F7E7786828B1698848
:10B480000089814201D90920EFE7B9F800001C24A6
:10B4900018B1402809D2402008E03846FEF7EDFCFC
:10B4A0008046402819D11320DFE7403880B280461B
:10B4B0000146384600F0A5F948B108EB88007968E4
:10B4C00004EBC000085C012803D00820CDE705206C
:10B4D000CBE7FDF76AFF06000BD008EB8800796820
:10B4E00004EBC0000C18B9F8000020B1E88910B1D5
:10B4F00013E01120B9E72888172802D36888172895
:10B5000001D20720B1E7686838B12B1D22464146B9
:10B510003846FFF71DF90028A7D104F10C0269464F
:10B520002046FFF70EF8288860826888E082B9F824
:10B53000000030B102202070E889A080E889A0B125
:10B540002BE003202070A889A080786881784029AA
:10B5500005D180F8028039465046FEF714FE404679
:10B5600000F034F9A9F8000021E07868218B4089C7
:10B57000884200D908462083A6F802A00420307231
:10B58000B9F800007081E0897082F181208B3082EF
:10B59000A08AB081304600F00FF97868C178402960
:10B5A00005D180F8038039465046FEF73DFE002065
:10B5B0005BE770B50D460646032105F04FFA04001F
:10B5C00003D0402D04D2402503E043F2020070BDB9
:10B5D000403DADB2294600F014F958B105EB8501A4
:10B5E0001C22606802EBC101084400F020F918B188
:10B5F000082070BD052070BD2A462146304600F067
:10B6000054F9002070BD2DE9F0410D4616468046E4
:10B61000032105F023FA0446402D01D2402500E025
:10B62000403DADB28CB1294600F0EBF880B105EB9E
:10B6300085011C22606802EBC1014718384600F002
:10B64000F6F838B10820BDE8F08143F20200FAE7CD
:10B650000520F8E733463A4629462046FFF778F8B2
:10B660000028F0D1EAB221464046FEF789FF0020CB
:10B67000E9E72DE9F0410D4616468046032105F025
:10B68000EDF90446402D01D2402500E0403DAFB227
:10B6900024B1304608F0E4FD38B902E043F202007C
:10B6A000D1E7306808F0DCFD08B11020CBE739465F
:10B6B000204600F0A6F860B107EB87011C22606805
:10B6C00002EBC1014518284600F0B1F818B1082076
:10B6D000B9E70520B7E7B088A98A884201D90C20CC
:10B6E000B1E76168E88C4978B0EBC10F01D3132052
:10B6F000A9E73946204600F078F80146606808233B
:10B700004078C20005F1240005F015F8D6E90012D2
:10B71000C0E90012FAB221464046FEF7A7FE00201B
:10B7200091E72DE9F0470D461F46904681460321DB
:10B7300005F094F90446402D01D2402001E0A5F126
:10B74000400086B23CB14DB1384608F0CDFD50B155
:10B750001020BDE8F08743F20200FAE76068C8B144
:10B76000A0F80C8024E03146204600F04AF888B169
:10B7700006EB86011C22606802EBC10145182846D1
:10B7800000F055F840B10820E3E700002C0000204D
:10B79000742002000520DCE7A5F80880F2B22146FB
:10B7A0004846FEF7EDFE1FB1A88969890844388034
:10B7B0000020CEE704F0ADBD017821F00F01491C57
:10B7C00021F0F00110310170FDF7F2BD10B5044613
:10B7D000402800D9FFDF4034A0B210BD4068426964
:10B7E0000078484302EBC0007047C2784068037895
:10B7F00012FB03F24378406901FB032100EBC10017
:10B800007047C2788A4209D9406801EB81011C2245
:10B8100002EBC101405C08B1012070470020704775
:10B820000078062801D90120704700207047007871
:10B83000062801D00120704700207047F0B401EBCA
:10B8400081061C27446807EBC6063444049D052680
:10B850002670E3802571F0BCFEF782BA10B54189ED
:10B8600011B1FFF7DDFF08B1002010BD012010BDB0
:10B8700010B5C18C8278B1EBC20F04D9C18911B166
:10B88000FFF7CEFF08B1002010BD012010BD10B59C
:10B890000C4601230A22011D04F083FF0078218851
:10B8A000012282409143218010BDF0B402EB820559
:10B8B0001C264C6806EBC505072363554B681C79AD
:10B8C000402C03D11A71F0BCFEF7F3BCF0BC7047FA
:10B8D00010B5EFF3108000F0010472B6E94841782A
:10B8E000491C41704078012801D1F7F74BFB002C2F
:10B8F00000D162B610BD70B5E24CE07848B90125C0
:10B90000E570FFF7E5FFF7F745FB20B1002008F0F1
:10B910009AF8002070BD4FF080406571C0F8045364
:10B92000F7E770B5EFF3108000F0010572B6D54C63
:10B93000607800B9FFDF6078401E6070607808B9F9
:10B94000F7F724FB002D00D162B670BDCD4810B5CD
:10B95000C17821B100214171C170FFF7E2FF0020E1
:10B9600010BD10B50446F7F715FBC649C978084065
:10B9700000D001202060002010BD2DE9F05FDFF82D
:10B9800004934278817889F80620002689F8071008
:10B99000074689F808600078354620B101280FD0A5
:10B9A00002280FD0FFDFF7F702FB98B1F7F706FB8D
:10B9B000B0420FD13046F7F705FB0028FAD047E038
:10B9C0000126F0E7FFF784FFF7F7E4FA0028FBD041
:10B9D0000226E8E701208407E060C4F80451AA4980
:10B9E0000E600107D1F84412A74AC1F34231243254
:10B9F0001160A549343108604FF0020BC4F804B35C
:10BA0000A060DFF888A2DAF80010C94341F3001102
:10BA100001F10108DAF8001041F01001CAF8001035
:10BA200000E020BFD4F804010028FAD03046F7F730
:10BA3000C9FA0028FAD0B8F1000F05D1DAF80010E1
:10BA400021F01001CAF80010C4F808B3C4F804517A
:10BA500099F807004C4670B1387860B9F7F79AFA50
:10BA6000074608F09FF96FF0004117B1C4E90310D1
:10BA700001E0C4E9030116B12571BDE8F09F01277B
:10BA8000BE0727714FF01908C6F80883B761C6F8DA
:10BA90000051C6F80C51C6F81051F7F77BFA10B1F7
:10BAA000A770376100E02770FFF712FF7649A07991
:10BAB00020310860C6F80483DFE770B5050000D1C7
:10BAC000FFDF4FF080424FF0FF30C2F80803002143
:10BAD000C2F80011C2F80411C2F80C11C2F810111A
:10BAE000684C6170F7F75CFA10B10120E07060708B
:10BAF0002846BDE8704040E72DE9F05F6448D0F883
:10BB000000B0634A6349083211608406D4F8080122
:10BB100010B14FF0010801E04FF00008D4F8000127
:10BB200000B101208146D4F8040108B1012600E0EB
:10BB30000026D4F80C0100B101208246D4F810018F
:10BB400008B1012700E0002748EA090126EA0100C0
:10BB500020EA0A00B84300D0FFDF0025B8F1000F4B
:10BB600004D0C4F80851012007F06DFF5FEA090016
:10BB7000DFF810814FF0010913D0C4F8005198F894
:10BB8000050020B188F80550002007F05CFF98F808
:10BB9000000030B1F7F7FEF918B188F80290C4F848
:10BBA00010900EB1C4F80451BAF1000F0CD0C4F8D3
:10BBB0000C5198F80200464600B9FFDFB5703570A9
:10BBC000C4F81490FFF7ADFE37B1C4F8105198F8DF
:10BBD000040008B100F020F82D49091DC1F800B09B
:10BBE0004BE770B5274DE87808B9F7F7CFF9012092
:10BBF0008407A061A87850B1D4F80C0120B90020C6
:10BC0000F7F7E0F90028F7D10020C4F80C014FF055
:10BC1000FF30C4F8080370BD2DE9F041194C4FF016
:10BC200080470125E079F0B1012803D0217A401E38
:10BC3000814218DAF7F7AEF9064608F0B3F8E17971
:10BC4000012902D9217A491C21720EB1216900E033
:10BC5000E168411A022902DA11F1020F0BDC0EB180
:10BC6000206100E0E060FFF733FEF7F793F928B1B9
:10BC70003D61A57003E07D61BDE8F0812570002085
:10BC80002072F9E7380000201805004010ED00E0B0
:10BC900010050240010000014FF0E0214FF000705C
:10BCA000C1F88001C1F88002384B802283F800245B
:10BCB000C1F80001704700B502460420344903E092
:10BCC00001EBC0031B792BB1401EC0B2F8D2FFDFDD
:10BCD000FF2000BD41F8302001EBC00100224A7175
:10BCE0008A7101220A7100BD294A002102EBC000BD
:10BCF0000171704710B50446042800D3FFDF2448C3
:10BD000000EBC4042079012800D0FFDF6079A1791D
:10BD1000401CC0B2814200D060714FF0E0214FF072
:10BD20000070C1F8000210BD2DE9F0411948056806
:10BD300018491948083108601448042690F800048E
:10BD4000134F4009154C042818D0FFDF16E0217866
:10BD500007EBC1000279012A08D1427983799A421E
:10BD600004D04279827157F8310080472078401C16
:10BD7000C0B22070042801D300202070761EF6B2D5
:10BD8000E5D20448001D0560BDE8F08119E000E03F
:10BD90009006002010050240010000014C00002028
:10BDA000F8B51D46DDE906470E000AD004F072FF23
:10BDB0002346FF1DBCB231462A46009404F030FBF6
:10BDC000F8BDD0192246194615F096FE2046F8BD5A
:10BDD000F84B586019721A80C90015F026BF70B56B
:10BDE0000D460446102115F0FEFE258117206081C6
:10BDF000A07B40F00A00A07370BD4FF6FF720A806E
:10BE00000146032008F0E0B9704700897047827B43
:10BE1000D30701D1920703D480890880002070479E
:10BE200005207047827B920700D5818170470146CB
:10BE30000020098847F2FE12114200D00120DD499E
:10BE4000497A002901D040F00800704700B5034648
:10BE5000807BC00701D0052000BD59811846FFF73F
:10BE6000E6FFC00703D0987B40F004009873987BEE
:10BE700040F001009873002000BD827B520700D57E
:10BE800009B14089704717207047827B61F3C30274
:10BE9000827370472DE9F04F0E46017804464FF04B
:10BEA000010B0BFA01F047F2FF1100EA010961688A
:10BEB0004FF6FF7887B008881D469646404506D065
:10BEC000B9F1000F07D047F2FE12104203D0012053
:10BED00007B0BDE8F08F40EA090008804FF0000A83
:10BEE00095B185F800A022780027052003210223C0
:10BEF000102A6FD2DFE802F06E0D2C35546F768079
:10BF000054CBC79CCFFEFDFC20780B28EBD004203F
:10BF1000DEE762682089937B9B077DD5172851D384
:10BF200013898342FBD39289172A01D3824249D1D4
:10BF30002A7822F03F02921C2A70A5F80100318075
:10BF4000616888816068817B21F00201817342E130
:10BF5000042129702189A5F801106189A5F8031031
:10BF60008FE0208A3188C01D1FFA80F84145D6D362
:10BF7000062028702089A5F801006089A5F8030033
:10BF8000A089A5F805000721208ACDE90001608875
:10BF90002A4671466369FFF703FFA6F800801AE19D
:10BFA000082A10D0082129702189A5F8011061897B
:10BFB000A5F8031030806A1D694604F10C0006F0F4
:10BFC000CAF910B1CCE01021EDE730889DF80010DF
:10BFD000084456E00EE10A2028702089A5F80100E7
:10BFE0003180B2E00C2129702189A5F80110618906
:10BFF000A5F803103080A8E0218933880BEB4102BB
:10C000001FFA82FA534576D3BAF1050F73D30E2285
:10C010002A7008EA410100E07FE0CDE9001B60885A
:10C020002A467146E368FFF7BBFEA6F800A0D2E0FF
:10C030006048417A002970D0491E41724068217AD7
:10C04000E26800EBC105D046A9882868D2F800C094
:10C050000844A0F1080140F808CC506848608DF809
:10C0600000308DF801A028680290A888ADF804007F
:10C0700060886946F5F7C6FEA5F80480002E01D059
:10C0800040463080A7E0287840F080022A70287867
:10C0900040F040022A7060893288C01C1FFA80F884
:10C0A00042455DD3287820F03F0012302870228965
:10C0B000A5F801206089CDE9000160882A46714613
:10C0C000E368FFF76DFEA6F80080287841063CD5AE
:10C0D00000065ED58DF800B08DF801A03188CDE95D
:10C0E000025A091DADF804100420DFF8C88003E0EF
:10C0F00059E04FE02DE033E0049098F808008DF807
:10C10000140060886946F5F77DFE074630880C30DC
:10C110003080022F02D0E7B36FE048E09DF8142092
:10C12000D8F8041098F80830404601EBC2019A4252
:10C1300016D28A88A2B9427A521C88F809200D606A
:10C1400030888880A6F800A057E061682089888040
:10C1500041E0A1893288491D1FFA81F8424501D288
:10C1600004274AE029782A4621F03F011631297038
:10C170002189A5F801106189A5F80310A189CDE9ED
:10C180000010608871462369FFF70AFEA6F8008058
:10C19000DBE720E0287820F03F0018302870207A74
:10C1A0006870338017E060680188090404D40527AB
:10C1B00023E00000B0060020C0882189884201D019
:10C1C00006271AE01E202870A6F800B060680188D3
:10C1D00021F400410180B9F1000F0ED0DF486188E1
:10C1E000002200888300032007F044FF6168207864
:10C1F000887007E0A6F800A003276068018821EA9C
:10C2000009010180384663E62DE9F04F87B01746F3
:10C21000109C0D0083461E461AD03078C10703D00B
:10C2200000F03F00192801D9012100E0002120463B
:10C23000FFF723FEA8420BD32088A0F57F41FF39EA
:10C2400006D03078410601D4000603D508203FE629
:10C2500007203DE600208DF800008DF801003078C1
:10C260006B1E00F03F0C0122A81E4FF0050A4FF094
:10C27000020999B2BCF1200F76D2DFE80CF08C10E5
:10C28000755F7569758D759E75B875BD75CB75D7FC
:10C2900075E4757575F475F275F175F0758C052D8D
:10C2A00079D104208DF80000A0788DF80400708802
:10C2B000ADF8060030798DF80100707800F03F008D
:10C2C0000C2829D00ADCA0F10200092863D2DFE89B
:10C2D00000F0126215621A621D622000122824D03A
:10C2E00004DC0E281BD01028DAD11BE016281FD042
:10C2F0001828D5D11FE02078800701E0207840077A
:10C30000002848DAF1E020780007F9E72078C00635
:10C31000F6E720788006F3E720784006F0E72078FB
:10C320000006EDE72088C005EAE72088C004E7E7BB
:10C3300020888004E4E720884004E1E72078800733
:10C3400029D5032D27D18DF800A0B6F8010083E090
:10C35000217849071FD5062D1DD381B27078012899
:10C3600003D0022817D102E0CCE0022000E0102028
:10C3700006228DF8002072788DF80420801CB1FB15
:10C38000F0F2ADF8062092B242438A4203D10397FD
:10C39000ADF80890A9E07BE02078000778D5072168
:10C3A00098B28DF800108108ADF80410B0EB810F41
:10C3B0006ED10297ADF8062097E02178C90667D5BF
:10C3C000022D65D381B208208DF800007078022814
:10C3D0005ED300BFB1FBF0F28DF80400ADF806208B
:10C3E00092B242438A4253D1ADF808907CE0207863
:10C3F00080064DD5092003E02078400648D50A2064
:10C400008DF80000A088ADF80400ADF80610ADF876
:10C41000082069E02078000672D50B20ADF80410E2
:10C420008DF80000ADF8062002975EE02188C9056E
:10C4300066D5022D64D381B20C208DF8000070788F
:10C4400004285DD3C6E72088C00459D5012D57D1F3
:10C450000D208DF80000A088ADF8040045E021E033
:10C4600026E016E0FFE72088800449D5052D47D354
:10C470000E208DF80000A088ADF80400B6F8030087
:10C480006D1FADF80850ADF80600ADF80AA02BE01E
:10C4900036E02088400433D5012D31D10F208DF8AE
:10C4A000000022E0208800042AD4B6F80100E080D1
:10C4B000A07B000724D5032D22D3307800F03F0065
:10C4C0001B2819D011208DF80000208840F400406E
:10C4D000A4F80000B6F80100ADF80400ED1E03203A
:10C4E000ADF80650ADF80800039769465846F5F7D1
:10C4F00089FC050008D016E010208DF80000E9E75F
:10C50000072510E008250EE0307800F03F001B28DA
:10C5100009D01D2807D05946032007F055FE208872
:10C5200000F400402080A07B400708D52046FFF79C
:10C530007EFCC00703D1A07B20F00400A073284636
:10C54000C6E400B587B0032805D18DF8000088B295
:10C550006946F5F757FC07B000BD0000B0060020A3
:10C56000F8B51D46DDE906470E000AD004F092FB3F
:10C570002346FF1DBCB231462A46009403F050FF0B
:10C58000F8BDD0192246194615F0B6FA2046F8BD76
:10C590002DE9FF4F8DB09B46DDE91B57DDF87CA0F0
:10C5A0000C46082B05D0E06901F00CF950B11020C1
:10C5B000D2E02888092140F0100028808AF8001075
:10C5C000022617E0E16901208871E2694FF42051E9
:10C5D0009180E1698872E06942F601010181E069B8
:10C5E000002181732888112140F0200028808AF8DA
:10C5F0000010042638780A900A2038704FF002099B
:10C6000004F118004D460C9001F09FFBB04681E00C
:10C61000BBF1100F0ED1022D0CD0A9EB0800801C2D
:10C6200080B20221CDE9001005AB52461E990D984B
:10C63000FFF796FFBDF816101A98814203D9F74804
:10C6400000790F9004E003D10A9808B138702FE008
:10C650004FF00201CDE900190DF1160352461E9963
:10C660000D98FFF77DFF1D980088401B801B83B24B
:10C67000C6F1FF00984200D203461E990BA8D9B11B
:10C680005FF00002DDF878C0CDE9032009EB060178
:10C6900089B2CDE901C10F980090BDF816100022B3
:10C6A0000D9801F0D5FB387070B1C0B2832807D067
:10C6B000BDF8160020833AE00AEB09018A19E1E788
:10C6C000022011B0BDE8F08FBDF82C00811901F0F7
:10C6D000FF08022D0DD09AF80120424506D1BDF881
:10C6E0002010814207D0B8F1FF0F04D09AF80180E2
:10C6F0001FE08AF80180C94800680178052902D145
:10C70000BDF81610818009EB08001FFA80F905EBCF
:10C71000080085B2DDE90C1005AB0F9A01F018FB9B
:10C7200028B91D980088411B4145BFF671AF022D05
:10C7300013D0BBF1100F0CD1A9EB0800801C81B203
:10C740000220CDE9000105AB52461E990D98FFF776
:10C7500007FF1D980580002038700020B1E72DE903
:10C76000F8439C46089E13460027B26B9AB3491FB4
:10C770008CB2F18FA1F57F45FF3D05D05518AD88EE
:10C780002944891D8DB200E000252919B6F83C80A6
:10C790000831414520D82A44BCF8011022F8021B78
:10C7A000BCF8031022F8021B984622F8024B91466F
:10C7B00004F05EFA4FF00C0C41464A462346CDF891
:10C7C00000C003F0F4FDF587B16B00202944A41DDF
:10C7D0002144088003E001E0092700E08327384670
:10C7E000BDE8F88310B50B88848F9C420CD9846B0C
:10C7F000E018048844B1848824F40044A41D234430
:10C800000B801060002010BD822010BD2DE9F04784
:10C810008AB00025904689468246ADF81850072711
:10C820004BE0059806888088000446D4A8F800608C
:10C8300007A8019500970295CDE903504FF40073C6
:10C8400000223146504601F003FB04003CD1BDF804
:10C850001800ADF82000059804888188B44216D1EC
:10C860000A0414D401950295039521F40041009720
:10C87000049541F4804342882146504601F0BEF8B9
:10C8800004000BD10598818841F40041818005AAFC
:10C8900008A94846FFF7A6FF0400DCD000970598DA
:10C8A00002950195039504950188BDF81C3000227E
:10C8B000504601F0A3F8822C06D105AA06A94846E5
:10C8C000FFF790FF0400ACD0ADF8185004E00598D5
:10C8D000818821F40041818005AA06A94846FFF716
:10C8E00081FF0028F3D0822C03D020460AB0BDE897
:10C8F000F0870020FAE710B50C46896B86B051B17D
:10C900000C218DF80010A18FADF80810A16B0191DA
:10C910006946FAF7C9FB00204FF6FF71A063E18773
:10C92000A08706B010BD2DE9F0410D460746896B82
:10C930000020069E1446002911D0012B0FD132464B
:10C9400029463846FFF762FF002808D1002C06D0A0
:10C95000324629463846BDE8F04100F042BFBDE806
:10C96000F0812DE9FC411446DDE9087C0E46DDE945
:10C970000A15521DBCF800E092B2964502D207207B
:10C98000BDE8FC81ACF8002017222A70A5F80160F0
:10C99000A5F803300522CDE900423B462A46FFF7C1
:10C9A000DFFD0020ECE770B50C4615464821204617
:10C9B00015F03BF904F1080044F81C0F00204FF675
:10C9C000FF71E06161842084A5841720E08494F8DD
:10C9D0002A0040F00A0084F82A0070BD4FF6FF726A
:10C9E0000A800146042007F0EFBB30B585B00C4645
:10C9F0000546FFF780FFA18E284629B101218DF859
:10CA000000106946FAF750FB0020E0622063606383
:10CA100005B030BDB0F84000704700005000002065
:10CA200090F84620920703D4408808800020F3E75E
:10CA30000620F1E790F846209207EDD5A0F84410C3
:10CA4000EAE70146002009880A0700D5012011F015
:10CA5000F00F01D040F00200CA0501D540F00400FB
:10CA60008A0501D540F010004A0501D540F02000AC
:10CA70000905D1D540F04000CEE700B5034690F857
:10CA80004600C00701D0062000BDA3F8421018469A
:10CA9000FFF7D7FF10F0760F05D093F8460040F06F
:10CAA000040083F8460013F8460F40F001001870A8
:10CAB000002000BD90F84620520700D511B1B0F813
:10CAC0004200A9E71720A7E710F8462F61F3C30239
:10CAD0000270A1E72DE9FF4F9BB00E00DDE92B347A
:10CAE000DDE92978289D25D02878C10703D000F0FA
:10CAF0003F00192801D9012100E000212046FFF75D
:10CB0000D9FFB04216D3287841060FD400F03F0178
:10CB10001E2909D0218811F47F6F0BD13A884AB1C0
:10CB2000A1F57F42FF3A05D0010606D500F03F008F
:10CB3000122802D004201FB0C4E5FC491D984FF014
:10CB4000000A08718DF818A08DF830A00CAA0A60B0
:10CB5000ADF81CA0ADF824A02978994601F03F0259
:10CB6000701F5B1C04F1180CD3464FF0030ECDF878
:10CB700028C01F2A7ED2DFE802F07D7D107D227D55
:10CB8000AE7DF77DF67DF57DF47DF77DF37D7D7DD2
:10CB9000F27DF17D7D7D7D7DF00094F84610B5F845
:10CBA0000100890767D5032E65D14FF40061ADF808
:10CBB000241060808DF830E0ADF83400E9E2052EF5
:10CBC000F2D1B5F801002083ADF81C00B5F80310D0
:10CBD0006183002870D088426ED884F80AB0A4F827
:10CBE00008B04FF6FF7020840A9801F0AEF80520D7
:10CBF00089F8000002208346029011AB1D9A0A9921
:10CC00001B9801F0A5F820B15EE000BF8DF8180078
:10CC1000FEE29DF84A00012804D0022089F80100B4
:10CC2000102003E0012089F8010002200390002277
:10CC300004A912A805F08FFBE8BB9DF8101003981B
:10CC400088423ED13A88891CA2EB0B00884238DB2F
:10CC500002990220CDE900010DF146034A46414602
:10CC60001B98FFF77DFC02980BF1020B801C81B230
:10CC700017AA01E0ACE2B1E0029104A912A805F004
:10CC80006AFB02999DF81000CDE9000117AB4A46F6
:10CC900041461B98FFF764FC9DF8100011AB0BEBAD
:10CCA00000011FFA81FB02991D9A084480B202908C
:10CCB0000A991B9801E004E091E001F049F800288E
:10CCC000B5D0BBF1020F03D10A208DF818005DE248
:10CCD000A7F800B05AE2CDF80CB0072E7ED3B5F815
:10CCE00001002083ADF81C00B5F803206283002802
:10CCF00075D0904273D84FF0010B84F80AB0B5F8A4
:10CD0000050020810020A073E06900F05BFD80B980
:10CD1000E16942F6010081F806B0E2694FF4205162
:10CD20009180E16981F80AB0E1690881E169002038
:10CD30008873F01F20841E984FF0070B6062A4F8E0
:10CD400022B00A9801F001F889F800B0012083466A
:10CD500004900020ADF846002AE026E2B0E147E169
:10CD6000EDE01FE2B0E088E04FE000BFBBF1010F53
:10CD700015D0E0698079012803D1BDF84400ADF8F1
:10CD80000E0004990420CDE9000103AB4A46414658
:10CD90001B98FFF7E5FB0498001D80B20490BDF8D6
:10CDA0004600ADF80C00ADF80E0005981FFA80FBA8
:10CDB00011AB1D9A0A991B9800F0CAFF28B939884F
:10CDC0000BF1040005908142D0D2BBF1010F3FF47A
:10CDD0001BAFE0698079012808D001E098E023E0EA
:10CDE000BDF84410A1F57F40FF3803D1BDF84400E1
:10CDF000ADF80E0004990420CDE9000103AB4A46CA
:10CE000041461B98FFF7ACFB62E7072E01D0152EB9
:10CE10007ED1B5F801102183ADF81C10B5F80320C0
:10CE2000628309B1914201D90120EFE60121A1728B
:10CE3000A4F808B084F80EB0052E07D0C0B2691D62
:10CE4000E26905F069FA00287FF4DEAE4FF6FF7064
:10CE5000208401A806AA09A9CDF800B080E88603BD
:10CE60002878214600F03F031D9A1B98FFF790FB9E
:10CE70008246208BADF81C0088E10120032EC7D12B
:10CE80004021ADF82410B5F801102183ADF81C1035
:10CE90000AAAB8F1000F00D00023CDE902030492E2
:10CEA0001D98CDF80480009038880022401E83B27F
:10CEB0001B9800F0CDFF8DF8180050BB0B2189F8AE
:10CEC0000010BDF8280038E04FF0010C052E9FD16E
:10CED0008020ADF82400B5F801102183B5F80300D7
:10CEE0002084ADF81C10B0F5007F01D907208DE635
:10CEF00040F47C42228412A8B8F1000F00D0002335
:10CF0000CDE90330CDE9018C1D980090388801E00F
:10CF10009CE007E0401E83B21B9800F099FF8DF85B
:10CF2000180028B18328A7D10220C7E050000020B4
:10CF30000D2189F80010BDF84800401C25E1C80902
:10CF400000EB40020EEB8200B04203D948067DD5CB
:10CF500058461AE1B5F80110ADF81C102A785206AF
:10CF600008D506228DF830202A78120605D58DF8CE
:10CF700030B02FE107228DF830200323CDE9023BAA
:10CF8000DDF878C0CDF810B01D9AA6EB000800922D
:10CF9000CDF804C01FFA88F300221B9800F02EFD84
:10CFA0008DF818008DF830B0297849060DD5208805
:10CFB000C00506D5208BBDF81C10884201D1C4F8ED
:10CFC00024B058468DF818B0DFE0832801D14FF027
:10CFD000020A4FF48070ADF82400BDF81C002083D5
:10CFE000A4F820801E986062032060841321C9E0A9
:10CFF000052E2BD3B5F80110ADF81C10A28F32B35B
:10D00000A2F57F43FE3B29D008228DF8302005236E
:10D01000CDE9023BDDF878C0CDF810B01D9A80B2A2
:10D02000CDF804C040F400430092B5F803201B98EB
:10D0300000F0E4FC4FF400718DF818008DF830B06A
:10D04000ADF82410832813D010B301E0DBE005E035
:10D05000A08FA0F57F41FE3907D0D9E00B228DF8D3
:10D0600030204FF6FE72A287D1E7A4F83CB0CFE0A3
:10D0700000942B4631461E9A1B98FFF770FB8DF8E3
:10D08000180008B183284BD1BDF81C0020834BE762
:10D0900000942B4631461E9A1B98FFF760FB8DF8D3
:10D0A0001800E8BBE18FA06B0844831D8DE888035E
:10D0B0004388828801881B98FFF753FC824665E00D
:10D0C00095F80180022E6FD15FEA080002D0B8F116
:10D0D000010F7FD109208DF8300007A800908DF84E
:10D0E00034804346002221461B98FFF71CFC8DF834
:10D0F00036008DF837B050B9B8F1010F11D0B8F142
:10D10000000F04D1A08FA0F57F41FF3909D0A08F77
:10D1100038B14FF480608DF830B0ADF824000EE0E7
:10D1200034E00CA91B98F9F7BFFF82464FF48060EA
:10D130008DF830B0ADF82400BAF1020F06D0FB48EC
:10D140000068C07928B18DF8180027E0A4F818808D
:10D1500042E0BAF1000F03D081208DF818003BE0C7
:10D1600007A800904346012221461B98FFF7DBFBEE
:10D170008DF8180021461B98FFF7BDFB9DF818009D
:10D1800020B9192189F80010012038809DF830005D
:10D1900020B10CA91B98F9F787FF8246BAF1000F5E
:10D1A00033D019E0062031E514E02078000711D5CE
:10D1B000012E0FD10A208DF83000E088ADF8340040
:10D1C00004201B9907F000F80820ADF824007FE543
:10D1D000480618D54FF0040A2088BDF824100843EB
:10D1E0002080BDF8240080050BD5A18FA1F57F40DC
:10D1F000FE3806D11E98E06228982063A6864FF07C
:10D20000030A504697E4042000E59DF8180078B121
:10D21000012089F80000297889F80110BDF81C1058
:10D22000A9F802109DF8180089F80400052038803C
:10D230002088BDF8241088432080E2E72DE9FF4FC5
:10D240008846087895B0012181404FF20900249C5E
:10D250000140ADF820102088DDF88890A0F57F42CD
:10D260004FF0000AFF3A02D029B1000703D5012090
:10D2700019B0BDE8F08F239E4FF0000B0EA886F882
:10D2800000B018995D460988ADF83410A7498DF8AB
:10D290001CB0179A0A718DF838B0086098F8000031
:10D2A00001283BD0022809D003286FD1307820F024
:10D2B0003F001D303070B8F80400E08098F800108E
:10D2C0000320022904D1317821F03F011B31317054
:10D2D00094F84610090759D505ABB9F1000F13D0E2
:10D2E000002102AA82E80B000720CDE90009BDF861
:10D2F0003400B8F80410C01E83B20022159800F064
:10D30000A7FD0028D1D101E0F11CEAE7B8F804003C
:10D31000A6F80100BDF81400C01C04E198F805103F
:10D320008DF81C1098F80400012806D04FF4007AFC
:10D3300002282CD00328B8D16BE12188B8F8080066
:10D3400011F40061ADF8201020D017281CD3B4F8D8
:10D350004010814218D3B4F84410172901D38142F8
:10D3600012D1317821F03F01C91C3170A6F80100BB
:10D370000321ADF83410A4F8440094F8460020F0DE
:10D38000020084F8460064E105257DE176E120880D
:10D3900008F1080700F4FE60ADF8200010F0F00F6F
:10D3A0001BD010F0C00F03D03888228B9042EBD1F5
:10D3B00099B9B878C00710D0B9680720CDE902B193
:10D3C000CDF804B00090CDF810B0FB88BA88398849
:10D3D000159800F013FB0028D6D12398BDF8201033
:10D3E000401C80294ED006DC10290DD020290BD0FE
:10D3F000402987D124E0B1F5807F70D051456DD0B0
:10D40000B1F5806F97D1DDE0C80601D5082000E0B6
:10D41000102082460DA907AA0520CDE902218DF82A
:10D420003800ADF83CB0CDE9049608A93888CDE9BC
:10D4300000015346072221461598FFF7A9F8A7E0F7
:10D440009DF81C2001214FF00A0A002A9BD105AB50
:10D45000B9F1000F00D00020CDE902100720CDE97E
:10D460000009BDF834000493401E83B2218B0022D2
:10D47000159800F0EDFC8DF81C000B203070BDF805
:10D48000140020E09DF81C2001214FF00C0A002A16
:10D4900022D113ABB9F1000F00D00020CDE902106A
:10D4A0000720CDE900090493BDF83400228C401E0A
:10D4B00083B2218B159800F0CBFC8DF81C000D2059
:10D4C0003070BDF84C00401CADF8340005208DF8DC
:10D4D0003800208BADF83C00BBE000E028E0388845
:10D4E000218B88427FF450AF9DF81C004FF0120A48
:10D4F00000281AD1606A98B1B878C0073FF444AFE9
:10D50000BA680720CDE902B2CDF804B00090CDF89A
:10D5100010B0FB88BA88159800F070FA8DF81C00DE
:10D52000132030700120ADF8340092E0500000204C
:10D530003988208B8142D5D19DF81C004FF0160A06
:10D540000028A06B08D0E0B34FF6FF7000215F46C3
:10D55000ADF808B0019027E068B1B978C907C1D12A
:10D56000E18F0DAB0844821D03968DE80C024388C1
:10D570008288018809E0B878C007BFD0BA680DABCF
:10D5800003968DE80C02BB88FA881598FFF7E9F935
:10D5900005005ED0072D72D076E0019005AA02A9A1
:10D5A0002046FFF71FF90146E28FBDF808008242CE
:10D5B00001D00029F1D0E08FA16B084407800198C9
:10D5C000E08746E09DF81C004FF0180A40B1208B20
:10D5D000C8B13888208321461598FFF78CF938E0C8
:10D5E00004F118000090237E012221461598FFF7D0
:10D5F0009AF98DF81C000028EDD119203070012017
:10D60000ADF83400E7E7052521461598FFF773F9D3
:10D610003AE0208800F40070ADF8200050452DD18C
:10D62000A08FA0F57F41FE3901D006252CE0D8F867
:10D6300008004FF0160A48B1A063B8F80C10A18793
:10D640004FF6FF71E187A0F800B002E04FF6FF70DF
:10D65000A087BDF8200030F47F611AD07823002223
:10D660000420159906F006FD98F800002071208826
:10D67000BDF82010084320800EE000E00725208838
:10D68000BDF8201088432080208810F47F6F1CD0C4
:10D690003AE02188814321809DF8380020B10EA90D
:10D6A0001598F9F701FD05469DF81C000028EBD000
:10D6B00086F801A001203070208B70809DF81C003E
:10D6C00030710520ADF83400DEE7A18EE1B1189885
:10D6D0000DAB0088ADF834002398CDE90304CDE903
:10D6E0000139206B0090E36A179A1598FFF7F2F959
:10D6F000054601208DF838000EA91598F9F7D4FCDD
:10D7000000B10546A4F834B094F8460040070AD5A5
:10D710002046FFF796F910F0760F04D114F8460F63
:10D7200020F0040020701898BDF8341001802846BD
:10D730009EE500B585B0042806D102208DF80000D2
:10D7400088B26946F9F7B0FC05B000BD10B5384C99
:10D750000B782268012B02D0022B2AD111E013781A
:10D760000BB1052B01D10423137023688A889A809A
:10D770002268CB88D38022680B8913814989518123
:10D780000DE08B8893802268CB88D38022680B8938
:10D7900013814B8953818B899381096911612168B8
:10D7A000F9F782FC226800210228117003D00028BA
:10D7B00000D0812010BD832010BD806B002800D0D8
:10D7C000012070478178012909D10088B0F5205FD8
:10D7D00003D042F60101884201D1002070470720A2
:10D7E0007047F0B587B0002415460E460746ADF8E1
:10D7F000144010E0069801882980811DCDE902417E
:10D800000721019404940091838842880188384656
:10D8100000F0F4F830B906AA05A93046FEF7E2FF99
:10D820000028E7D0822800D1002007B0F0BD00001A
:10D830005000002010B58B7883B102789A4205D150
:10D840000B885BB102E08B79091D4BB18B789A4252
:10D85000F9D1B0F801300C88A342F4D1002010BDFA
:10D86000812010BD072826D012B1012A27D103E05C
:10D87000497801F0070102E04978C1F3C2010529A6
:10D880001DD2DFE801F00318080C12000AB10320D2
:10D8900070470220704704280DD250B10DE00528D2
:10D8A00009D2801E022808D303E0062803D00328EB
:10D8B00003D005207047002070470F20704781205B
:10D8C0007047C0B282060BD4000607D5FE48807AA6
:10D8D0004143C01D01EBD00080B27047084670473D
:10D8E0000020704770B513880B800B781C0625D577
:10D8F000F54CA47A844204D843F01000087000204C
:10D9000070BD956800F0070605EBD0052D78F54051
:10D9100065F304130B701378D17803F0030341EA25
:10D92000032140F20123B1FBF3F503FB15119268CB
:10D93000E41D00FB012000EBD40070BD906870BDB9
:10D9400037B51446BDF8041011809DF804100A067E
:10D950001ED5C1F30013DC49A568897A814208D835
:10D96000FE2811D1C91DC9085A422846F5F73FFBC8
:10D970000AE005EBD00100F0070201250878954088
:10D98000A843934018430870207820F010002070BE
:10D990003EBD2DE9F0410746C81C0E4620F00300AD
:10D9A000B04202D08620BDE8F081C74D0020344649
:10D9B0002E60AF802881AA72E8801AE0E988491CAD
:10D9C000E980810614D4E17800F0030041EA0020E8
:10D9D00040F20121B0FBF1F201FB12012068FFF7D8
:10D9E00070FF2989084480B22881381A3044A06029
:10D9F0000C3420784107E1D40020D4E72DE9FF4F13
:10DA000089B01646DDE9168A0F46994623F440454B
:10DA1000084600F00DFB04000FD0099802F0E6FF65
:10DA20000290207800060AD5A748817A02988142A0
:10DA300005D887200DB0BDE8F08F0120FAE7224617
:10DA400001A90298FFF74EFF834600208DF80C00D5
:10DA50004046B8F1070F1AD001222146FFF702FF16
:10DA60000028E7D12078400611D502208DF80C005F
:10DA7000ADF81070BDF80400ADF81200ADF81460F8
:10DA80001898ADF81650CDF81CA0ADF818005FEA54
:10DA9000094004D500252E46A84601270CE0217830
:10DAA000E07801F0030140EA012040F20121B0FBDF
:10DAB000F1F2804601FB12875FEA494009D5B8457B
:10DAC00007D1A178207901F0030140EA0120B0429A
:10DAD00001D3BE4201D90720ACE7A8191FFA80F98B
:10DAE000B94501D90D20A5E79DF80C0028B103A97F
:10DAF0000998F9F7D7FA00289CD1B84507D1A07842
:10DB00004FEA192161F30100A07084F804901A987B
:10DB100000B10580199850EA0A0027D0199830B151
:10DB20000BEB06002A46199913F0E6FF0EE00BEB0B
:10DB300006085746189E099803F09AF82B46F61DDA
:10DB4000B5B239464246009502F031FC224601A9A1
:10DB50000298FFF7C7FE9DF80400224620F010004F
:10DB60008DF80400DDE90110FFF7EAFE002061E70F
:10DB70002DE9FF4FDFF8509182461746B9F806109D
:10DB8000D9F8000001EB410100EB810440F20120D3
:10DB9000B2FBF0F185B000FB11764D46DDF84C800C
:10DBA00031460698FFF78DFE29682A898B46611A4F
:10DBB0000C3101441144AB8889B28B4202D88420D5
:10DBC00009B038E70699CDB2290603D5A90601D5D3
:10DBD0008520F5E7B9F806C00CF1010C1FFA8CFCA2
:10DBE000A9F806C0149909B1A1F800C0A90602D588
:10DBF000C4F8088007E0104480B2A9F80800191A98
:10DC000001EB0B00A0602246FE200699FFF798FE6C
:10DC1000E77026712078390A61F30100320AA17891
:10DC200040F0040062F30101A17020709AF8020034
:10DC30006071BAF80000E08000262673280602D53D
:10DC400099F80A7000E00127A80601D54FF00008F6
:10DC50004D4600244FF007090FE0CDE90268019618
:10DC6000CDF800900496E9882046129B089AFFF7A9
:10DC7000C5FE0028A4D1641CE4B2BC42EDD3002050
:10DC80009EE72DE9F047804600F0D2F9070005D065
:10DC9000002644460C4D40F2012919E00120BDE860
:10DCA000F087204600F0C4F90278C17802F0030240
:10DCB00041EA0222B2FBF9F309FB13210068FFF7E6
:10DCC00000FE304486B201E0BC060020641CA4B211
:10DCD000E988601E8142E4DCA8F10100E88028891F
:10DCE000801B288100203870D9E710B5144631B167
:10DCF000491E218002F07AFEA070002010BD012094
:10DD000010BD10B5D24904460088CA88904201D39C
:10DD1000822010BD096800EB400001EB80025079C1
:10DD2000A072D08820819178107901F0030140EA37
:10DD30000120A081A078E11CFFF7D4FD206120889C
:10DD4000401C2080E080002010BD0121018270472E
:10DD50002DE9FF4F85B04FF6FF788246A3F800808B
:10DD600048681F460D4680788DF806004868008890
:10DD7000ADF8040000208DF80A00088A0C88A04243
:10DD800000D304462C8241E0288A401C2882701D62
:10DD90006968FFF74FFDB8BB3988414501D1601E66
:10DDA00038806888A04236D3B178307901F0030119
:10DDB00040EA012901A9701DFFF73CFD20BB29891C
:10DDC00041452CD0002231460798FFF74BFDD8B9CA
:10DDD0002989494518D1E9680391B5F80AC0D6F8F0
:10DDE00008B05046CDF800C002F042FFDDF800C098
:10DDF0005A460CF1070C1FFA8CFC4B460399CDF8E0
:10DE000000C002F097FA50B1641CA4B2204600F0A2
:10DE10000FF90600B8D1641E2C828220D0E67C80E7
:10DE20007079B871F088B8803178F07801F003012A
:10DE300040EA01207881A7F80C90504602F0D6FD08
:10DE4000324607F10801FFF74DFD38610020B7E6C3
:10DE50002DE9FF4F87B081461C469246DDF860B041
:10DE6000DDF85480089800F0E3F805000CD048462F
:10DE700002F0BCFD2978090608D57549897A8142E6
:10DE800004D887200BB0D6E50120FBE7CAF30906CA
:10DE90002A4601A9FFF726FD0746149807281CD03B
:10DEA00000222946FFF7DEFC0028EBD12878400647
:10DEB00013D501208DF808000898ADF80C00BDF8C6
:10DEC0000400ADF80E00ADF81060ADF8124002A9E4
:10DED0004846F9F7E7F80028D4D12978E87801F026
:10DEE000030140EA0121AA78287902F0030240EAFE
:10DEF0000220564507D0B1F5007F04D9611E81424A
:10DF000001DD0B20BEE7864201D90720BAE7801B5E
:10DF100085B2A54200D92546BBF1000F01D0ABF870
:10DF20000050179818B1B9192A4613F0E5FDB8F159
:10DF3000000F0DD03E4448464446169F02F0AAFE0C
:10DF40002146FF1DBCB232462B46009402F068FA0F
:10DF5000002097E72DE9F04107461D461646084682
:10DF600000F066F804000BD0384602F03FFD21783F
:10DF7000090607D53649897A814203D8872012E5F8
:10DF8000012010E522463146FFF7ACFC65B121784F
:10DF9000E07801F0030140EA0120B0F5007F01D8EC
:10DFA000012000E0002028700020FCE42DE9F04171
:10DFB00007461D461646084600F03AF804000BD006
:10DFC000384602F013FD2178090607D52049897AE1
:10DFD000814203D88720E6E40120E4E4224631466A
:10DFE000FFF7AEFCFF2D14D02178E07801F003029A
:10DFF00040EA022040F20122B0FBF2F302FB1300E0
:10E0000015B900F2012080B2E070000A60F301014E
:10E0100021700020C7E410B50C4600F009F828B1C3
:10E02000C18821804079A070002010BD012010BD62
:10E030000749CA88824209D340B1096800EB400011
:10E040006FF00B0202EB800008447047002070471D
:10E05000BC06002010B50C4601F03AFD80B3204606
:10E0600000F0B7FA68B32278102A09D0112A07D035
:10E07000022A05D0032A03D0162A2ED0FFDF1DE086
:10E08000A0781E282BD00EDC0C2824D008DC092810
:10E0900027D2DFE800F013261726261E1E1A1C00C2
:10E0A00012281ED11BE0302819D01ADDA0F13A0049
:10E0B000032816D2DFE800F011150B00002010BD78
:10E0C00013E010E043F20200F9E70420F7E70D2027
:10E0D000F5E70F20F3E70820F1E71120EFE707202D
:10E0E000EDE70320EBE7FFDFE8E7FFDFE6E700F01F
:10E0F00070BA70B50346002002466FF02F050EE09F
:10E100009C5CA4F130060A2E02D34FF0FF3070BDA4
:10E1100000EB800005EB4000521C2044D2B28A4242
:10E12000EED370BD30B50A240AE0B0FBF4F304FB73
:10E1300013008D18303005F8010C521E1846D2B26B
:10E14000002AF2D130BD30B500234FF6FF7510E044
:10E15000040A44EA002084B2C85C6040C0F303149F
:10E16000604005EA00344440E0B25B1C84EA4010A1
:10E170009BB29342ECD330BD10B50AF0FFF90428EE
:10E1800003D00AF0FBF9052802D108F0A0FC28B959
:10E190000BF056FB20B107F047FB08B1012010BD82
:10E1A000002010BD0178406819B190F8721059B97B
:10E1B00001E001F017BD90F8041129B190F80401B5
:10E1C000042801D0012070470020704770B50C462C
:10E1D0000546062102F042FC606008B1002006E01E
:10E1E0000721284602F03AFC606018B10120207037
:10E1F000002070BD022070BD2DE9FC470C4606468C
:10E200006946FFF7E3FF00287DD19DF8000050B17B
:10E2100007F09CFAB0427CD0214630460EF0A1F9BE
:10E22000002873D12DE008F065F9B04271D0214685
:10E2300030460CF041FC002868D1019D95F8C800DB
:10E2400022E0012000E00020804695F835004FF0E4
:10E25000010A4FF00009F0B195F8360080071AD591
:10E2600084F8019084F800A084F80290A68095F8C4
:10E270003710A171298F2181698F618185F83590CF
:10E2800044E0019D95F8040158350028DBD1A87EB3
:10E290000028D8D0D5E7304602F0FCFC070000D1BA
:10E2A000FFDF384601F051FE40B184F801900E21A5
:10E2B0002170A680E08084F802A027E0304602F0BA
:10E2C000D7FC070000D1FFDFB8F1000F21D038469E
:10E2D00001F0CCFEB8B19DF8000038B90198D0F833
:10E2E000F0004188B14201D180F80090304607F03B
:10E2F000C3F884F801900B21217084F80290A68065
:10E30000E97EA17100E004E085F81A900120BDE8E3
:10E31000FC870020FBE71CB56946FFF757FF00B1FB
:10E32000FFDF684601F06CFCF94900208968A1F81C
:10E33000CA001CBD2DE9FC4104460E46062002F031
:10E3400037FB0546072002F033FB2844C7B20025FF
:10E35000A8463E4417E02088401C80B22080B0428E
:10E3600002D34046A4F8008080B2B84204D3B04241
:10E3700002D20020BDE8FC816946FFF727FF002894
:10E38000F8D06D1CEDB2AE42E5D84FF6FF7020809C
:10E390001220EFE738B54FF6FF70ADF800000DE042
:10E3A0000621BDF8000002F06BFB04460721BDF812
:10E3B000000002F065FB0CB100B1FFDF00216846F0
:10E3C000FFF7B8FF0028EBD038BD2DE9F047D1A109
:10E3D0000F79D1F8008007F0BDF810F003F8CF4CAA
:10E3E0004FF004091020A4F8389060874FF6FF76AC
:10E3F000A4F85460A4F85660002584F8315004F85D
:10E400002E5BC6492570A5713E39A573C1F87B8086
:10E4100081F87F707B31481E0CF029FD25751B208B
:10E42000E0824FF4A47121836083A1830321A1774B
:10E4300084F81F9020846084B848A1843E38057019
:10E440004680B3480C300570B448103805704680DB
:10E45000BDE8F08770B5AE4C0D466060217006F0E7
:10E46000F3FFFFF797FFFFF7B0FF207809F031FDCA
:10E4700008F02EF9217860680CF00CFC20780FF081
:10E4800011FA28460AF071FE07F06AF921786068EF
:10E490000EF068F9BDE870400FF0A4BF10B501247C
:10E4A0000AB1002010BD21B1012903D0002420466B
:10E4B00010BD022111F0C6FBF9E72DE9F047040079
:10E4C00000D1FFDF954D002695F8310058B16670F8
:10E4D0001620207095F83200A07095F83300E07097
:10E4E00085F8316068E0287840B12C22A91C2046CC
:10E4F00013F002FB102020702E705DE095F82E00C6
:10E5000060B10120E07095F82F00A07095F8300000
:10E5100060701120207085F82E604DE07F48022148
:10E5200056308246FFF706FF00B1FFDFB5F8569080
:10E53000062002F03DFA0746072002F039FA384477
:10E54000C7B2781C00F0FF08B5F85600B84212D1E7
:10E55000204607F04BFF50BB95F8340070B366704F
:10E56000132020702021A01C13F03DFB0220A0707E
:10E5700085F8346020E040451AD1204607F09CF829
:10E58000E0B12078132817D1A0783C2814D1A088B6
:10E59000072102F063FA050000D1FFDF288806F0AA
:10E5A0006BFFA088072102F06BFA00B1FFDF03E0E8
:10E5B0002146FFF721FE08B1012049E7022150461C
:10E5C000FFF7B8FE18B9B5F856104945BCD1002080
:10E5D0003EE772E710B5514C207828B10A21BDE81A
:10E5E0001040102001F0A1BAFFF7C6FD08B10C20C1
:10E5F00002E00FF042FF00202071012060710A212B
:10E60000E170207010BD70B5444D0446287828B1E3
:10E61000BDE870403221102001F087BA207818B18F
:10E62000012801D0122010E001F090FA20B110F082
:10E630006EF808B10C2008E0207801F057FA04F1D8
:10E640001703E21D611C0FF06FFF28710120687134
:10E650003221E970287070BD70B5304C05462078C5
:10E6600028B1BDE870400B21102001F05EBA287877
:10E6700018B1012801D012200EE0FFF77DFD08B18E
:10E680000C2009E0287801F031FA691C0FF0BCFE7B
:10E6900008B1002000E007202071012060710B21EB
:10E6A000E170207070BD10B51C4C217829B130216B
:10E6B000BDE81040102001F038BA008810F02AF8A8
:10E6C000302110B10020207100E021710120607123
:10E6D000E170207010BD70B5104C0546207828B14F
:10E6E000BDE870403121102001F01FBA01F02EFA70
:10E6F00008B10C2005E0287800F0010010F004F8C3
:10E7000000202071012060713121E170207070BD06
:10E7100058000020FFFFFFFF1F0000000607002039
:10E7200010B5FB4C207828B13421BDE810401020F2
:10E7300001F0FBB901F00AFA20B10FF0E8FF08B1CF
:10E740000C2002E00FF044FF0020207101206071D6
:10E750003421E170207010BDED48017819B10F210E
:10E76000102001F0E2B900210171102181700F2108
:10E77000C170FF2181714FF6FF710181E549496840
:10E780000A7882728A8882814988C1810121417117
:10E790000170704710B5DE4C207828B12B21BDE800
:10E7A0001040102001F0C1B90821A01D05F029FA80
:10E7B00000202071012060712B21E170207010BDBC
:10E7C00070B5D34C217829B1BDE8704043211020A9
:10E7D00001F0ABB990F90000042816D0032814D03A
:10E7E00098B1011D11D010F1080F0ED010F10C0FCF
:10E7F0000BD010F1100F08D010F1140F05D010F14C
:10E80000280F02D01220207103E0002506F020F826
:10E8100025714320E07001206071207077E710B50A
:10E82000BB4C217829B12A21BDE81040102001F00D
:10E830007CB9A31D012200F1100110F03AFE002066
:10E8400020711020A0702A20E070012060712070DB
:10E8500010BD70B5AE4C0546207828B1BDE87040BB
:10E860004621102001F061B909F088FE052804D086
:10E87000284609F01BFB002000E00C20207101203D
:10E8800060714621E170207041E770B5A04C0546EB
:10E89000207828B1BDE870404421102001F045B92E
:10E8A00001F054F938B10C2020710120607144212D
:10E8B000E17020702BE72946002006F04CFE002076
:10E8C000F2E770B5924C0546207828B1BDE870405B
:10E8D0004221102001F029B909F091FB50B10AF052
:10E8E000A2FF38B128780AF064FC287808F026F9ED
:10E8F000002000E00C202071012060714221E170B5
:10E90000207004E770B5824C0546207828B1BDE838
:10E9100070401721102001F008B901F017F938B143
:10E920000C202071012060711721E1702070EEE64B
:10E930002946012006F00FFE0020F2E738B5744D9D
:10E940000446287828B1BDE838404D21102001F058
:10E95000ECB8A079E179884213D021791F2910D829
:10E9600061791F290DD80022114612F0C7FA40B96B
:10E970000022E079114612F0C1FA10B9207A072876
:10E9800001D9122012E04FF6FF70ADF800000AF036
:10E9900057FF90B909F0F2FD78B900216846FFF7FA
:10E9A000C9FC50B1204605F070FE002028710120FE
:10E9B00068714D21E970287038BD0C20F6E72DE90B
:10E9C000FC47534C054694F82E0020B12821112015
:10E9D00001F0ABF89BE4282084F83000012184F892
:10E9E0002E10A8784FF000091A2825D00EDC162822
:10E9F00031D2DFE800F0303030303021303030308C
:10EA00003030303030303030302121212A2822D0AF
:10EA10000BDCA0F11E000C281DD2DFE800F01C1C4E
:10EA20001C1C1C1C1C1C1C1C1C0D3A38042812D25B
:10EA3000DFE800F0110211022888B0F5706F0AD2E9
:10EA40001F20884684F82F0028886946FFF7BEFB00
:10EA500018B1022019E0122017E09DF80000019F74
:10EA6000002806D007F5B377019E05D106F1ED0623
:10EA700004E007F1EC07F7E706F267166846FFF7D0
:10EA800091FB08B1387818B10C2084F82F003EE4CF
:10EA900087F80080A878307084F82F90684601F0DD
:10EAA000AFF834E47CB51A4C0546207820B1252116
:10EAB000102001F03AF87CBD28886946FFF786FBF4
:10EAC000020013484FF00001A0F13E000DD00222D9
:10EAD000227140F8461F0171E1801020A0702520AE
:10EAE000E0700120607120707CBD019A134658329D
:10EAF00082F83E109E68C0F846601E7B80F84A602F
:10EB000092F83E60002EF3D12888E080E5E700000F
:10EB1000060700205800002010B540B10478406876
:10EB200013B1B0F8480003E0B0F84A0000E0FB2061
:10EB30001B2908D3814206D8B2F5A47F03D340F63F
:10EB40004800824201D9122010BD002010BD2DE9DD
:10EB5000FC41FA4D0446287828B1BDE8FC4150211B
:10EB6000102000F0E2BF4FF0010885F805801F215A
:10EB700029711021A9705021E9702188E98085F858
:10EB8000008020886946FFF721FB08B102200DE0D4
:10EB90002289E18801236846FFF7BEFF30B9A288C9
:10EBA000618800236846FFF7B7FF10B12871BDE800
:10EBB000FC819DF800103A20019E002749B186F89B
:10EBC0008981019991F8C81106F5C476B9B1287107
:10EBD00013E086F8FD80019991F82011FC36002998
:10EBE000F5D12F71E08870802089B0806088F08036
:10EBF000A0883081012201990CE07770D7E72F714E
:10EC0000E08870802089B0806088F080A0883081A2
:10EC100001990022304610F091FD86F80080ECE763
:10EC200070B5C64D044686B0287830B106B0512183
:10EC3000BDE87040102000F078BF01206871002608
:10EC40002E711021A9705121E9702870208803A924
:10EC5000FFF7BCFA18B10220287106B057E59DF8FD
:10EC60000C0040B100220499E088B1F84830984285
:10EC700003D9C01A02E00122F5E70020E88063888A
:10EC8000B1F84A00834201D9181A00E00020288117
:10EC9000009601960296E088ADF802002089ADF852
:10ECA00004006088ADF80600A088ADF8080068464A
:10ECB00010F044FD2089BDF80410401A6881A08836
:10ECC000BDF80810401AA881E088BDF80210401A6B
:10ECD000E988884200DC0846E8806088BDF80610B4
:10ECE000401A2989884200DC08462881B5E770B5BA
:10ECF000924D0446287828B1BDE870403E2110208E
:10ED000000F013BF00F022FF20B10FF000FD08B1AA
:10ED10000C2008E0E2792078611C0FF07BFE08B13E
:10ED2000002000E002202871012068713E21E97076
:10ED30002870ECE47CB5814C05461F2084F82F0038
:10ED400028886946FFF742FA18B1022084F82F009C
:10ED50007CBDAA7802B90322EB7803B903239DF89E
:10ED600000603A2501210020002E019E06D086F881
:10ED70009311019E96F8DC6146BB1FE086F80711EF
:10ED8000019E96F82C613EB9019E96F806611EB967
:10ED9000019E96F87B6016B184F82F500AE0019D21
:10EDA00085F80611019981F80821019981F8093146
:10EDB00084F82F00019981F807017CBD019E96F827
:10EDC00092611EB9019E96F87B6016B184F82F50AF
:10EDD0000AE0019D85F89211019981F89421019929
:10EDE00081F8953184F82F00019981F893017CBD59
:10EDF000524930B491F82E2022B1562130BC112056
:10EE000000F093BE562281F83020012281F82E2096
:10EE10008378DA0802D1C278D40801D0122004E045
:10EE20005B0701D4520704D5112081F82F0030BCB4
:10EE3000704730BC7EE770B5404C0546207828B15D
:10EE4000BDE870401D21102000F06FBE1F20207112
:10EE5000012060711D21E170207009F08FFB0428F2
:10EE60000BD0052809D0A9791220012907D031B18A
:10EE7000022904D0032929D101E00C2026E02978B9
:10EE800009B1012922D1E97929B1012903D0022947
:10EE900001D003291AD1698843F6FD720B1F302077
:10EEA000934213D2AB881B1F93420FD22187A888AD
:10EEB0006087A87907F065FDE87907F0D0FD28782C
:10EEC000012805D00120002107F0F8FD20711EE483
:10EED0000220F8E770B5194C217829B1BDE87040DF
:10EEE0001E21102000F021BE1F212171012161711E
:10EEF0001E22E270217002781221012A00D01AB974
:10EF0000407818B1012801D0217187E40025012A39
:10EF100009D009F033FB0C26052802D008F008FFC1
:10EF200088B126717AE407F022FD48B107F031FD7F
:10EF3000618F208F09F070F803E0000006070020C1
:10EF4000122020716AE4257168E42DE9F047F94C3C
:10EF500007469246B4F84400B7F84A200E4690425D
:10EF600000D31046804697F85210104600F0D4FDAA
:10EF7000B4F84610814200D208460546A146B4F8CE
:10EF80004840B7F84800844200D3044697F851102F
:10EF900000F0C2FDB9F84A10814200D208464FF491
:10EFA000A4721B2C01D0904204D1B8F11B0F0DD0DC
:10EFB00095420BD0A6F8068035817480B080524609
:10EFC0003946304610F0BAFB01203070BDE8F087BA
:10EFD0002DE9F04786B00546AFF6C800D0E90090AD
:10EFE000D44E804696F82E0028B12121112000F041
:10EFF0009CFD06B0EAE71F2086F82F00212086F846
:10F0000030004FF0010A86F82EA0284600F007FED7
:10F01000002811D109F0B2FA05280CD009F0AEFA97
:10F02000042808D096F8340028B907F063FAA0F550
:10F030007F41FF3901D00C20AAE0BE4801AA3E382A
:10F040000190BD480290BB4806211038039004A8E7
:10F0500001F0D4FC04007DD003210FF0DAFFB6F8F4
:10F060004E00A4F84800B6F85000A4F84A0096F8FC
:10F070004D00009096F84C30B6F85020B6F84E107F
:10F08000208801F07EFD00B1FFDF208806F0F3F953
:10F09000218804F10E0000F068FDA8A004F1120719
:10F0A000006800900321684604F033FD00206946A3
:10F0B0000A5C3A54401CC0B20328F9D3288A608005
:10F0C000688AA080A88AE08094F8522094F85110B1
:10F0D000B6F8520009F01DF80146A062204609F07A
:10F0E00038F8002784F85E7084F85F70687900F063
:10F0F000FDFC6076D5F80600C4F81A006889E08344
:10F10000C4F8089084F80C8084F8F8A0012204F177
:10F11000FC012046FFF719FF8DF8007001216846B9
:10F1200004F0F7FC9DF8000000F00701C0F3C102F5
:10F130001144C0F3401008448DF80000401D2076B3
:10F14000092801D208302076002120460FF061FF07
:10F15000287B00E010E007F014FC69792879AA1DEB
:10F1600007F0E5FB50B107F014FC69792879AA1D76
:10F1700007F080FC78B118E0092009E0208806F04B
:10F180007BF92088062101F07BFC00B1FFDF122013
:10F1900086F82F002DE72146032007F08FFC20B9C9
:10F1A0006A882988204608F0C0FE86F82F000028CB
:10F1B000F0D0208806F060F92088062101F060FC7C
:10F1C0000028E7D0FFDF14E738B55A4C207820B18B
:10F1D0002221102000F0A9FC38BD1F20207101253C
:10F1E00065712220E070257094F8340018BB09F096
:10F1F000C5F9052805D007F07DF9A0F57F41FF3955
:10F2000019D000202071684608F055FF0028E3D18E
:10F210000098008806F030F900980621008801F077
:10F220002FFC00B1FFDF444884F834500C380078DC
:10F23000FCF760FD38BD0C20207138BD2DE9F04190
:10F240003C4D044695F82E0028B1BDE8F04123213D
:10F25000112000F06ABC1F2085F82F00232085F8BC
:10F260003000012085F82E00618840F67B438A1F1C
:10F2700030209A4252D2A288961F9E424ED291428C
:10F280004CD8E188B1F5FA7F48D2218940F677461B
:10F29000A1F10A03B34241D2B1EBD20F3ED9618949
:10F2A000A28991423AD84FF000082088062101F047
:10F2B000D5FB06004FF0020707D000F093FC20B109
:10F2C000D6F8F000017841B903E085F82F70BDE869
:10F2D000F081D6F83C11097809B13A201EE00521E9
:10F2E0008171D6F8F0004146A0F80880D6F8F020E9
:10F2F000A0885081D6F8F020E0889081D6F8F020E0
:10F300002089D081D6F8F000028943899A4204D836
:10F310008279082A01D89A4203D3122085F82F0057
:10F32000D5E722884280D6F8F000077085F82F10C4
:10F33000CDE7000006070020640000201122330002
:10F34000FEB5F84C0646207820B12421102000F0AC
:10F35000ECFBFEBD012565712420E0702570304670
:10F3600010F042F808B1002000E0122020710028BF
:10F37000EFD1EC4884F83C503E38316840F87B1FB0
:10F3800031790171002684F83C606946062001F05D
:10F39000F0FA00B1FFDF684601F0C9FA60B9BDF8C4
:10F3A0000470029880F8F850684601F0C0FA18B965
:10F3B000BDF80400B842F4D12671FEBD2DE9F0413C
:10F3C000D84D064695F82E0028B1BDE8F0412C2115
:10F3D000112000F0AABB1F2085F82F002C2085F8F3
:10F3E0003000012085F82E003088062101F036FB20
:10F3F000040007D000F0F6FB20B1D4F8F010087834
:10F4000030B901E0022026E0D4F83C01007808B1D0
:10F410003A2020E094200027005D10F0010F19D061
:10F42000D6F802004860D6F80600886054F8F00F5D
:10F43000718910228181206806F10C010E3012F0D2
:10F440005BFB21680320087021683088488085F8BC
:10F450002F703CE70C2085F82F0038E72DE9F041AC
:10F46000B04D04460C26287828B1BDE8F04118219B
:10F47000102000F05ABB0AF0E3F9012730BB607995
:10F48000032824D8A179012921D8A17B03291ED8DA
:10F49000617BE1B107291AD82179052917D2DFE864
:10F4A00001F0030C030303002288202A0FD3618894
:10F4B0008A420CD8B1F5804F09D806F0D6F92079E8
:10F4C00085F83600204606F098FA064600E0122637
:10F4D0002E716F711820E8702F70F8E610B5914CFE
:10F4E000217829B11A21BDE81040102000F01DBB81
:10F4F00001781F2902D91220207106E00021217114
:10F500000278411C104606F0FCFA012060711A21B5
:10F51000E170207010BD10B5824C217829B12021F6
:10F52000BDE81040102000F000BB01781F2902D96F
:10F530001220207106E0002121710278411C104642
:10F5400006F0CEFA012060712021E170207010BD1C
:10F550002DE9FC41734C217829B1BDE8FC411B2108
:10F56000102000F0E2BA012767710C2121710078A8
:10F5700000261225012802D0002866D167E006F097
:10F5800024F900285ED006F056F900285AD00AF077
:10F5900057F900286CD106F06FF994F8360050B195
:10F5A000012808D0042806D0002009F005FE00B18B
:10F5B000FFDF26715CE006F0C9F8A0F57F41FF3956
:10F5C00056D10022072101A801F018FA05004FD0FA
:10F5D00055480321856028460FF0E2FB284606F0D7
:10F5E000BAFBB4F84E00A5F84800B4F85000A5F8EE
:10F5F0004A00B4F8520001214C3409F016FF0146CC
:10F60000A8620022284608F0CEFF6078009014F827
:10F61000043B288834F8022934F84E1901F0B1FA75
:10F6200000B1FFDF288805F026FF284609F0C4FD59
:10F6300000B1FFDF2671002205F5C4712846FFF7EF
:10F6400084FC15E006F0C1F890B1257110E008F0D7
:10F65000A7FF054609F0E8FC50B9267145B1288896
:10F6600005F00AFF2888072101F00AFA00B1FFDF40
:10F670001B20E0702770BDE8FC812DE9F041294C8A
:10F680000646207828B1BDE8F0412D21102000F079
:10F690004CBA3088072101F0E1F905004FF001076D
:10F6A00020D095F8690140B995F86400142801D07C
:10F6B000152802D195F8AA0150B10C202071102014
:10F6C000A0702D20E0703088E08067712770FEE523
:10F6D0001022B11C05F5B57012F00EFA85F86971AB
:10F6E0000020EBE70220E9E770B50E4C05462078D4
:10F6F00028B1BDE870402E21102000F016BA2888ED
:10F70000072101F0ABF90221A0B190F869212AB9D3
:10F7100090F86420142A09D0152A07D00C202071F3
:10F7200009E00000060700205800002080F8691159
:10F730000020F4E721711020A0702E20E0702888AE
:10F74000E08001206071207070BD2DE9FC47FD4C08
:10F750000646207828B13821102000F0E6F9BDE8EF
:10F76000FC8770884BF68032122190420AD848B14B
:10F770004FF0000830886946FEF728FD20B10220CE
:10F78000207110E021710EE0019800F15809851CEC
:10F790002F887288394648460FF0BCFA2888B8424C
:10F7A000F6D184F80480012060713821E170207066
:10F7B000D5E77CB5E34C0546207820B149211020DF
:10F7C00000F0B3F97CBD28886946FEF7FFFC38B12C
:10F7D00002202071012060714921E17020707CBD00
:10F7E00001987F22014680F8602080F86120002285
:10F7F00080F86220A87801F82C0FE8784870287902
:10F8000088702271E6E71CB5CE4C217821B15421D5
:10F81000102000F08AF91CBD00886946FEF7D6FC6E
:10F8200048B102202071012060715421E170102143
:10F83000A17020701CBD019890F8720000B10120E9
:10F8400000212171A071EEE71CB5BE4C217821B1D9
:10F850001321102000F069F91CBD00886946FEF7ED
:10F86000B5FC08B1022005E0019890F82C100129A0
:10F8700002D00C20207106E0602100222271095C78
:10F8800021720088E080012060711321E170102155
:10F89000A17020701CBD2DE9F041AA4C05462078CE
:10F8A00028B1BDE8F0414A21102000F03EB9288877
:10F8B000072101F0D3F8012358B382886D88C688E8
:10F8C000418803EB4207BD4217D342F210777E43D3
:10F8D000BF107943B6FBF1F1491E89B24FF4FA76B5
:10F8E000B14200D931468D4200D22946491C521CF2
:10F8F000B1FBF2F15143491E8AB290F8961101B959
:10F900000284E2800020207163714A20E07023703D
:10F91000DDE40220F7E770B58A4C0546207828B16F
:10F92000BDE870404C21102000F0FFB82888072166
:10F9300001F094F890B1A97811F0010180F8D71086
:10F9400004D090F8D51009B109F08AFD002020718B
:10F95000012060714C21E170207070BD0220F6E73B
:10F9600078490A781AB15221102000F0DEB80278E6
:10F970009AB142788AB142881B2A0ED382881B2A08
:10F980000BD3C288022A08D36E4A0368423242F877
:10F990000A3F40685060002000E0122008710120FA
:10F9A00048715222CA700870704770B5654C0546A0
:10F9B000207828B1BDE870405321102000F0B5B880
:10F9C000287800F0010008F0A1FB287800F0010081
:10F9D00009F0F7FC00202071012060715321E170D3
:10F9E000207070BD70B5574D0646287828B1BDE827
:10F9F00070405521102000F098B8012270881146FF
:10FA000008F087FB04467088012109F00EFD84424E
:10FA100000D204463088012100F06FF8064601212B
:10FA2000002000F06AF8304401219630844206D963
:10FA300000F19601201AB0FBF1F0401C81B2E98080
:10FA400000202871012068715521E970287070BD6F
:10FA500070B53C4D0446287828B1BDE870404E2171
:10FA6000102000F062B800F071F808B10C200DE031
:10FA7000601C0EF0A5FF207800F0010005F0F8FEF4
:10FA8000207800F0010006F080FF0020287101209E
:10FA900068714E21E970287070BD70B5294C05461B
:10FAA000207828B1BDE870404B21102000F03DB80F
:10FAB00009F0C6FE08B10C2003E0287806F031F802
:10FAC00000202071012060714B21E170207070BD19
:10FAD00010B50178572907D21B4A52F8211019B1E5
:10FAE000801C8847012010BD002010BD18B10228DD
:10FAF00001D0012070470020704710B5012904D0C3
:10FB0000022905D0FFDF204610BDC000503001E0C3
:10FB100080002C3084B2F6E7022903D0C000703098
:10FB200080B2704780003C30FAE7064A92F83130E4
:10FB3000002B06D182F8320082F83310012082F8BF
:10FB40003100704706070020C420020010B508F0FD
:10FB500015FD042807D008F011FD052803D009F091
:10FB60006FFE002800D0012010BD2DE9FE430025C6
:10FB70000F4680460A260421404604F042F84046DB
:10FB80000FF00EFC062000F013FF044615E0694656
:10FB9000062000F0EEFE0AE0BDF80400B84206D0F0
:10FBA0000298042241460E3011F07AFF50B16846A7
:10FBB00000F0BDFE0500EFD0641E002C06DD002D18
:10FBC000E5D005E040460FF0F4FBF5E705B9FFDFAF
:10FBD000D8F800000FF0A8F8761E01D00028CAD08F
:10FBE000BDE8FE8390F8721041B990F8C81029B1B1
:10FBF00090F8C800042801D00120A2E70020A0E767
:10FC0000017801299DD1416891F8D520002A98D02A
:10FC1000002281F8D520406809F022BC91E710B598
:10FC2000038843F6FD711A1F8A4223D24288141FAB
:10FC30008C421FD29A421DD8C28940F67B43911F45
:10FC4000994217D2018A8C1F9C4213D28A4211D842
:10FC5000428AB2F5FA7F0DD2828A40F67744A2F149
:10FC60000A03A34206D2B2EBD10F03D9C18A028B99
:10FC7000914201D9302010BD017911B1012910D173
:10FC800007E0417929B1012903D0022901D00329D4
:10FC900007D1007B38B1012805D0022803D0032802
:10FCA00001D0122010BD002010BD00000844083013
:10FCB000424301F14A00104480B27047F0B51D463E
:10FCC0000446A818059B083000FB03F205F14A0022
:10FCD000104486B2B14238BFFFDF0027276067605B
:10FCE000A760E76027616761A761E76127624FF658
:10FCF000FF706762A082A6F1280080B265776080FD
:10FD0000B0F5004F88BFFFDF608805F13C018842F5
:10FD100038BFFFDF6088401B3C3880B220801B2842
:10FD200038BF1B202080A777F0BD816188617047B4
:10FD30002DE9F04F0D46C188044600F128080089DE
:10FD400021F4004320F4004221F4004620F400474F
:10FD50004FF0010A4FF000099A4208D100F4004028
:10FD600001F4004188421CBF0020BDE8F08FB7427B
:10FD70000BD9617FB81B401A083885421BDC08EBA1
:10FD800006000021058041801EE06088617F801BA5
:10FD9000401AB0F1080B0ED4BBF11B0FB8BFFFDF48
:10FDA0005D45D4BF29461FFA8BF1681A0204120C74
:10FDB00018BFBA4204DD84F817900020BDE8F08F28
:10FDC00008EB06000180428084F817A0BDE8F08FA0
:10FDD0002DE9F041044600F12802C08820F40043D8
:10FDE000E07D002808BFBDE8F081D0180288438874
:10FDF00013448B423CBF0020BDE8F08100279142B4
:10FE00009CBF0180478013D9891A0D042D0C4580B1
:10FE10000ED0E088A61D20F40040854288BFFFDF99
:10FE200030884FF4004121EA0000284330800AE086
:10FE3000627F008802F108031044083081B26288B2
:10FE4000A01D00F0A8FBE7750120BDE8F08130B4EB
:10FE5000B0F804C0C488034600F128052CF4004023
:10FE60002844A44503D10020188230BC7047B3F861
:10FE70000CC00488A44509D34088ACEB040CA0EB6B
:10FE80000C0084B20CEB0500C01E06E0A4EB0C04D1
:10FE90005D7FA4B2AC446044401DB1F800C0A445ED
:10FEA00088BF0C80B3F80CC0BCF1000F0CBF4FF042
:10FEB000010C4FF0000C82F800C00988198230BC98
:10FEC00070472DE9F041044600F12801808820F4B4
:10FED00000404518208A002808BFBDE8F081A089AD
:10FEE00010B9A069807F2871A089218A084480B256
:10FEF000A08129886A881144814238BFFFDF2888A1
:10FF00006D88A2894119002791421AD175B1A08844
:10FF1000261D20F40040A84238BFFFDF30884FF490
:10FF2000004121EA00002843308009E0627F10444C
:10FF3000083081B202F108036288201D00F02BFB1B
:10FF4000A78127820120BDE8F0812DE9F047418992
:10FF5000B0F804800027044600F1280A414518BF84
:10FF60004FF400493AD000BF21F400405044468885
:10FF70006EB1608904F10A0520F40040B04238BF38
:10FF8000FFDF288829EA00003043288021E0637FD2
:10FF9000008803F1080C18446389083023F40045F5
:10FFA0006288284480B204F10A0190420BD2121AEE
:10FFB00092B20CF11B0C62452CBF03F4004229EAFB
:10FFC000030004D204E0801A80B229EA030210433D
:10FFD0000880781C618987B24145C5D13846BDE8A3
:10FFE000F0872DE9F047B0F808800B46044600F191
:10FFF0002801B0F80A90808828F4004C01EB0C0529
:020000040001F9
:10000000804504BF0020BDE8F087002A1CBF681DA2
:10001000106023B1627F691D184611F06DFD2F88B5
:100020006D888DB1E81987B2208904F1080620F4A3
:100030000040A84238BFFFDF30884FF4004121EA7A
:100040000000284330800AE0607F6288C1190831CF
:1000500000F1080389B204F1080000F09CFAC845D9
:1000600004BF208960813846BDE8F0878188C08858
:1000700081420CBF012000207047018980888142A5
:100080000CBF01200020704730B48488C28800F182
:10009000280324F4004C22F40041634494421BD012
:1000A0008289048A15191C885A88A3189D4216D380
:1000B00012B18A4210D212E0437F0CF1080C1A19D7
:1000C0006244408892B2801A80B22333984201D2AF
:1000D00011B104E08A4202D130BC0020704730BC2C
:1000E000012070472DE9F007B0F806C0048900F13F
:1000F000280702462CF400457E1924F400492CF40C
:10010000004A002024F400434FF00108D1450AD1F1
:1001100004F400440CF4004C644504D05082BDE863
:10012000F00700207047AB4208D992F81DC05B1B56
:10013000A3EB0C03A3F10804002308E0B2F802C00B
:10014000547FACEB050CACEB040CACF10804002CB8
:10015000E4DBB2F80EC0BCF1000F0DD0B6F800C061
:1001600075884DB15B1B10778B42D7DBD089384443
:10017000A0EB0C00C01E09E0A4EB0C0410778C422D
:1001800008DB507FD38918443044401D5182BDE8BC
:10019000F00770478B42A8BF82F81C80E6DABDE703
:1001A0002DE9F05F044600F1280AC088934620F448
:1001B00000400AEB0005608A894608B1484502D232
:1001C0000020BDE8F09FE08980B1B5F800806E881E
:1001D00008EB0601884218BFFFDF207F4FF00007C1
:1001E00050EA060108D0002840D04AE04FF000084D
:1001F000A17F46462971F0E7E08948B1617F01445B
:100200004819B4F81F10A0F8051094F82110C17116
:10021000E18908EB09004944E18128806F80BBF146
:10022000000F19D0607F298800F1080301440831CC
:1002300089B26288A01D00F0AEF9E781A07F401C62
:10024000A077A07D00281CBFE088A082A7756782E8
:10025000E7750120BDE8F09F607FE18908442844EC
:10026000B0F80510A4F81F10C0792EE0E089B4F8AA
:100270001F105044A0EB080020F8031D94F8211033
:10028000817006EB090086B2E089BBF1000F48449B
:10029000E081A5F800806E800ED0E088A51D20F4D6
:1002A0000040B04238BFFFDF28884FF4004121EA08
:1002B000000030432880C0E7E0895044A0EB0800EC
:1002C00030F8031DA4F81F10807884F82100BEE7E1
:1002D000818800F1280221F4004C6244B0F814C077
:1002E000C388614518BF99420FD0818969B9806977
:1002F00068B101898388994209D021F400412830EE
:10030000084411790079884201D1002070471046D5
:10031000704700F12803407F01F1050C6044106034
:100320000888002804BFD81E10600888498808443F
:1003300080B270472DE9F04115460A4600F12806C3
:100340001C46407F531D0344108857880699002897
:100350001CBFC01C80B226D088429CBF081A80B245
:1003600013D9401AA042A8BF20461FFA80F8581897
:100370004246294611F094FB002818BFBDE8F081E1
:100380004544A4EB080084B2002001198F423CBF11
:100390004FF0FF30BDE8F081304422462946BDE8E9
:1003A000F04111F07DBBFA1C97B2F61ED4E72DE99F
:1003B000F04100F128071D46407F4B1D03441646BF
:1003C00008880024B1F80280069A00281CBFC01CCF
:1003D00080B21FD090429CBF101A80B20DD9801AF3
:1003E000A842A8BF284684B299182246304611F088
:1003F00083FB281B85B2264400204119414506D8BD
:1004000039182A46304611F077FB601984B220462D
:10041000BDE8F08108F103011FFA81F8FF1ED9E75A
:100420002DE9F04116460A4600F128071D46407F97
:10043000531D034410880024B2F802800699002856
:100440001CBFC01C80B21FD088429CBF081A80B25B
:100450000DD9401AA842A8BF284684B2581822468F
:10046000314611F049FB281B85B226440020411972
:10047000414506D838442A46314611F03DFB601903
:1004800084B22046BDE8F08108F103021FFA82F829
:10049000FF1ED9E7401D704770B5044600F12801E2
:1004A000C288808820F400431944904208D0A28971
:1004B000002A04BF228A002A02D1A28A904201D1D6
:1004C000002070BDB1F800C04D8885B1261D20F414
:1004D0000040A84238BFFFDF30884FF4004121EAD6
:1004E00000002843308000202082012070BD607F02
:1004F0000CF1080100F10803084481B26288201D54
:1005000000F049F8EFE70021C18101774182C17510
:100510008175704703881380C289002A04BF0020B8
:100520007047C28800F1280322F400421A440A608E
:10053000C089704710B50446808AA0F57F41FF3915
:1005400018BFFFDFE088A082E089002818BF0120E3
:10055000A07510BD4FF6FF71818200218175704733
:1005600010B50446808AA0F57F41FF3908BFFFDF40
:10057000A07D28B9A088A18A884204BF002010BDB0
:10058000012010BD8188828A914205BF807D0028AC
:1005900000200120704710B4B0F800C02CF40044D3
:1005A000214489B24FF4004491420AD2521A92B2C5
:1005B0001B339A422CBF0CF4004224EA0C0104D2F3
:1005C00004E0891A89B224EA0C021143018010BCAC
:1005D000704770B516464FF6FC72C91C01EA020559
:1005E000D8B10446C01C20F00301A14200D0FFDFB7
:1005F000201D012108E00246284401D2034600E004
:100600000023491CC9B21360B142F4D916B104F1F8
:10061000040001E04FF00000206005FB06F000F14F
:10062000040070BD024600201168002902D008466F
:1006300009681160704702680A60016070474FF6F0
:10064000FC73C91C1940101A001F90FBF1F0C0B2D6
:1006500070474FF6FC73C91C1940001D01FB0200D6
:10066000704770B50C00054609D0082C00D2FFDF9A
:100670001DB1A1B2286800F044F8201D70BD0DB175
:1006800000202860002070BD0021026803E09388EC
:100690001268194489B2002AF9D100F032B870B555
:1006A00000260D460446082900D2FFDF206808B95D
:1006B0001EE0044620688188A94202D00168002912
:1006C000F7D181880646A94201D100680DE005F105
:1006D000080293B20022994209D32844491B0260C0
:1006E00081802168096821600160206000E00026A7
:1006F000304670BD00230B608A8002680A6001608A
:10070000704700234360021D018102607047F0B50D
:100710000F460188408815460C181E46AC4200D38F
:10072000641B3044A84200D9FFDFA019A84200D9B9
:10073000FFDF3819F0BD2DE9F041884606460188F3
:10074000408815460C181F46AC4200D3641B384441
:10075000A84200D9FFDFE019A84200D9FFDF708866
:100760003844708008EB0400BDE8F0812DE9F041C9
:10077000054600881E461746841B8846BC4200D3A7
:100780003C442C8068883044B84200D9FFDFA0196F
:10079000B84200D9FFDF68883044688008EB040065
:1007A000E2E72DE9F04106881D460446701980B243
:1007B000174688462080B84201D3C01B208060883D
:1007C000A84200D2FFDF7019B84200D9FFDF60886D
:1007D000401B608008EB0600C6E730B50D46018877
:1007E000CC18944200D3A41A4088984200D8FFDF66
:1007F000281930BD2DE9F041C14D04469046A87836
:100800000E46A04200D8FFDF05EB8607B86A50F815
:10081000240000B1FFDFB868FFF704FF05000CD02B
:10082000B86A082E40F8245000D3FFDFB54842468E
:10083000294650F82630204698472846BDE8F081E2
:100840002DE9F0471E460400074602EB06009146DC
:100850008A46C5B227D000218846FF2800D9FFDF8D
:10086000E01C20F00300A04200D0FFDFB24500D919
:10087000FFDFA34880F800A080F801908570C57064
:10088000057145718671DFF87CA280F8079000261B
:100890000AF1400A8146FF1C27F003000746B8F121
:1008A000000F03D005E04FF00101D5E709EB860109
:1008B00088603AF8161019F8062001D04FF00000B1
:1008C000FFF787FE761CF6B20744082EE3D3FF1C21
:1008D00027F003002A460646B8F1000F0DD000208D
:1008E0000221FFF776FE4346002130440F46C846FA
:1008F000C01C20F003021BB110E0C9F84800EFE76C
:1009000008EB81060020B26206E000BFD6F828C0DE
:100910004CF82070401CC0B2A842F7D3491CC9B2A1
:1009200002EB85000829E3D3001BBDE8F08710B572
:10093000044603F0BBFC08B1102010BD2078704ABB
:10094000618802EB800092780EE0836A53F82130D0
:1009500043B14A1C6280A180806A50F82100A060E7
:10096000002010BD491C89B28A42EED86180052062
:1009700010BD70B505460C46084603F097FC08B15B
:10098000102070BD082D01D3072070BD25700020F8
:10099000608070BD0EB56946FFF7EBFF00B1FFDF69
:1009A0006846FFF7C4FF08B100200EBD01200EBD50
:1009B00010B50446082800D3FFDF5148005D10BD84
:1009C0003EB5054600246946FFF7D3FF18B1FFDFA7
:1009D00001E0641CE4B26846FFF7A9FF0028F8D0E4
:1009E0002846FFF7E5FF001BC0B23EBD44498978A9
:1009F000814201D9C0B27047FF2070472DE9F04114
:100A000090460C460546062901D0072C10D13C4FD4
:100A1000B86CFFF707FE02004FF6FF7604D0022104
:100A2000B86CFFF70CFE00E030462880B04201D1E0
:100A3000002003E742462146FFF7DCFE040002D116
:100A4000288800F04FF82046F8E6A0F57F43FF3BEA
:100A500001D0082901D300207047CBE6A0F57F42E2
:100A6000FF3A0BD0082909D2254A9378834205D949
:100A700002EB8101896A51F820007047002070471D
:100A80002DE9F04105460C46A5F57F4143F20200F1
:100A9000FF3902D0082C01D30720CFE618494FF0C8
:100AA00000088A78AA42F8D901EB8406B26A52F8A3
:100AB0002570002FF1D013483946203050F82420FB
:100AC00028469047B16A062C41F8258001D0072CB2
:100AD00002D1284600F006F83946B068FFF7ABFDB2
:100AE0000020ABE610B5064CC2B20221A06CFFF7A5
:100AF000B0FD0146A06CBDE81040FFF79CBD0000B2
:100B0000600700202022020070B50E461D461146E7
:100B100000F0D4F804462946304600F0D8F82044C6
:100B2000001D70BD2DE9F04190460D4604004FF0C8
:100B3000000610D00027E01C20F00300A04200D0E7
:100B4000FFDFDDB141460020FFF78BFD0C3000EBED
:100B5000850617B112E00127EDE7614F04F10C00A3
:100B6000A9003C602572606000EB85002060606831
:100B700011F05BF841463868FFF773FD3046BDE879
:100B8000F0812DE9FF4F564C804681B020689A468F
:100B9000934600B9FFDF2068027A424503D94168D5
:100BA00051F8280020B143F2020005B0BDE8F08FF3
:100BB0005146029800F082F886B258460E9900F02D
:100BC00086F885B27019001D87B22068A1463946A3
:100BD0000068FFF764FD04001FD067802580294668
:100BE000201D0E9D07465A4601230095FFF766F823
:100BF0002088314638440123029ACDF800A0FFF73F
:100C00005DF82088C1193846FFF78FF8D9F8000041
:100C10004168002041F82840C7E70420C5E770B5C7
:100C20002F4C0546206800B9FFDF2068017AA942F1
:100C30000ED9426852F8251051B1002342F82530F0
:100C40004A880068FFF756FD216800200A7A08E00C
:100C500043F2020070BD4B6853F8203033B9401C9A
:100C6000C0B28242F7D80868FFF70EFD002070BDC1
:100C700070B51B4E05460024306800B9FFDF3068B0
:100C8000017AA94204D9406850F8250000B1041D3A
:100C9000204670BD70B5124E05460024306800B97C
:100CA000FFDF3068017AA94206D9406850F8251064
:100CB00011B131F8040B4418204670BD10B50A4636
:100CC0000121FEF7F3FFC01C20F0030010BD10B59A
:100CD0000A460121FEF7EAFFC01C20F0030010BD08
:100CE0006C00002070B5044600780E46012813D031
:100CF000072802D00B2813D10EE0A068616905789F
:100D0000052003F061FA052D0AD078230022052082
:100D1000616903F0AFF903E00520616903F054FA5B
:100D200031462046BDE8704001F0A8B910B500F189
:100D30003902C3799478411D64F003042340C371E0
:100D4000DB070DD04B79547923404B710B79127925
:100D500013400B718278C9788A4200D9817010BD26
:100D600000224A710A71F5E74178012900D00C216F
:100D7000017070472DE9F74F88B000208C698DF81D
:100D800004000878012617460D464FF007094FF07A
:100D9000110A4FF00A0B292876D2DFE810F029005B
:100DA000D20215032D036F037E039903C703DC03EF
:100DB0000604330457047004AE04BF04E204EA04DA
:100DC0000A052C0557057A05A605C605D605F605BC
:100DD000F805050637065906AD06EA06EC061B07B8
:100DE0003B074407550792071B08410808080D08F0
:100DF00014B120781E2829D0D5F808805FEA0800B1
:100E000042D001208DF80400686A02228DF8082083
:100E100006908DF809B0286A0390A8880028EFD0C2
:100E200098F8001091B10F2910D27DD2DFE801F0BF
:100E30007C134BDCFEFDFCFBFAF9F8089EF7F6008C
:100E4000022821D124B120780C2801D00026F9E312
:100E50008DF80420B3E10520696A03F0B5F9A8888C
:100E60000728EED1204601F003F9022809D02046D8
:100E700001F0FEF8032808D9204601F0F9F8072808
:100E800003D20120207005E003E2002CB8D02078C6
:100E90000128D6D198F80400C11F0A2903D300BF46
:100EA00085F81CB04CE2A070D8F80010A163B8F827
:100EB0000410A18798F8060084F83E0001202870ED
:100EC0000320207046E00728BBD1002C98D0207862
:100ED0000D28B6D198F8031094F83B20C1F3C00058
:100EE000C2F3C002104201D0062000E007208907AB
:100EF00007D198F805100142D2D198F806100142A6
:100F0000CED194F83D2098F8051020EA0202114253
:100F1000C6D194F83E2098F8061090430142BFD104
:100F200098F80400C11F00E008E20A29B8D2617FE6
:100F3000814201D906209AE3D8F800106160B8F820
:100F40000410218198F80600A072012028700E205C
:100F5000207003208DF80400686A069004F13900BF
:100F60000290601D039017300490DBE0412890D17F
:100F7000204601F07DF8042802D1E078C00704D1B2
:100F8000204601F075F80F289ED1A88CD5F80C806A
:100F900080B24FF04009666AFFF76AFE32460826C3
:100FA00041464B460096FFF702FA0D208DF80400EB
:100FB000686A0690606A0290002101A8FFF792FE1D
:100FC0002078042808D0A07F48B1012807D0032842
:100FD00008D0102020709CE005202070CEE184F81D
:100FE00000A033E71220F5E71128C0D1204601F018
:100FF0003FF8042802D1E078C00719D0204601F05C
:1010000037F8062805D1E078C00711D1A07F022863
:101010000ED0204601F02CF8112808E0B3E083E060
:1010200072E156E136E109E1EAE0D0E017E09ED155
:10103000102208F1010104F1480010F05DFD607814
:10104000012809D012202070E078C00765D0A07F69
:1010500090B301285DD060E084F8009059E0112839
:1010600085D1204601F004F8082804D0204600F07D
:10107000FFFF132888D12869D0B16869C0B104F195
:101080007800102208F10101064610F035FD2078A5
:10109000082812D014202070E078C0070FD0A07F5D
:1010A000022818D06178022912D0032831D034E008
:1010B00000208DF80400ECE02BE00920EBE70B208A
:1010C0002870296901204870206CC1E9010662E29C
:1010D00008B101287AD10B202870296981F8019084
:1010E000606A4860206AC1E9020648E2206CE27842
:1010F0000068C2F34402521ED04000F0010040F0EC
:10110000800000E000200874E06A48614CE2064676
:10111000FEE3042028700520BAE185F800B08DF8C0
:1011200004B08EE33946F4E31128C4D1204600F020
:101130009FFF0A2802D1E078C00704D1204600F0C2
:1011400097FF1528B7D1102208F1010104F14800DA
:1011500010F0D2FC20780A2810D01620207012201F
:10116000287029690920487004F15800486020302F
:1011700088601038C860206C086184E30B20207000
:10118000B9E22870FEE3022895D1204600F070FFF6
:10119000042804D3204600F06BFF082809D320461A
:1011A00000F066FF0E2886D3204600F061FF12286B
:1011B0006FD2A07F0228B8D110208DF80400686A91
:1011C000069098F801008DF80800F6E33DE2022849
:1011D000ABD1204600F04CFF00285AD0204600F04A
:1011E00047FF0128F9D0204600F042FF0C28F4D038
:1011F00004208DF8080098F801008DF809005AE7DE
:101200001128FCD1002CFAD020781728F7D161786A
:10121000E06A022910D0002101EB4101182606EBFB
:10122000C1011022405808F1010110F065FC0520B1
:10123000696A00F010FF1DE10121EDE70B28DED106
:10124000002CDCD020781828D9D16178E06A0229F6
:101250001BD0002101EB4101102202EBC1014158DA
:10126000B8F8010008806078E16A02280FD00020F9
:1012700000EB4002142000EBC2000958404650F831
:10128000032F0A604068486039E00121E2E701204D
:10129000EEE7A1E11128B2D1002CB0D020781928B6
:1012A000ADD16078E16A022811D0002000EB400245
:1012B0001C2000EBC2001022085808F1010110F0B8
:1012C0001BFC0520696A00F0C6FE1A20D4E001204C
:1012D000ECE7082893D1002C91D020781A288ED1E1
:1012E000E06A98F80120017862F347010170E16A31
:1012F000D8F8022041F8012FB8F8060088800520B0
:10130000696A00F0A8FE3CE3112898D1002C98D01F
:1013100020781B2893D16178E06A02290CD0002143
:1013200001EB4101202202EBC1011022405808F1DB
:10133000010110F0E1FBE2E70121F1E785F81C90E3
:10134000EFE338780128A6D11C2204F11C0079684B
:1013500010F017FCE079C10894F83B0001EAD001D5
:10136000E07861F30000E070217F09B1297733E173
:10137000217803290AD0C0073FF42DAE032028703E
:101380008DF804B0686A06904120B1E3607FA178CF
:1013900088423FF6CFAD02262671E179204621F042
:1013A000E001E171617A21F0F0016172A17A21F02E
:1013B000F001A172FFF7BAFC2E708DF804B0686AD4
:1013C00006908DF80890ADE638781128CFD18DF8C9
:1013D0000490696A0691916800208DF814000391C9
:1013E000ADF8089008466168016021898180A17A82
:1013F000817104202070E0E238781128B7D18DF88F
:101400000490686A0690381D02AB07C883E807009D
:101410004120ADF8080000208DF8140008460C218A
:101420000170A88CCA4680B2FE684FF04009D4F81B
:101430002080FFF72FFC3146082642464B46009697
:10144000FEF7EEFF002101A8FFF74CFCE07820F04A
:101450003E00801CE0702078052801D00F200BE0B2
:10146000A07F20B1012802D0032803D03DE184F8F9
:1014700000A04EE62670E9E42070E7E438780328FF
:10148000A4D178680168A1664068E06605202870EC
:101490008DF80400686A069044E63878032895D1F0
:1014A00078680168216740686067206C68B9A07F30
:1014B00028B1012803D0062028700420E8E785F829
:1014C0000090FE4820646064F9E385F80090F6E33C
:1014D0003878022892D1387900287CD1A07F022860
:1014E0000BD00328F1D1607801280BD0A07994F8B3
:1014F0003A1001280AD0F1480BE0B86800286BD0F8
:10150000206411E0A17994F83A00F2E7B868002865
:10151000F5D02064E078C00701D0012901D0E74868
:1015200002E0F8680028EAD06064CEE78DF804B0E5
:10153000696A0691E1785846C90709D0617802299D
:1015400003D1A17F29B1012903D0A17F032900D0B4
:101550000820287064E33878112891D1B86828628F
:1015600009202870E0782969C0070DD081F8019022
:10157000206A4860606A886004F16800C860A07FE3
:1015800002287FF4BFADB1E501204870206C4860AF
:1015900004F16800886004F13800C860201D08610B
:1015A000206B4861606B88612AE2E1783878C9076E
:1015B00001D0062100E00A2188428BD1207807283B
:1015C0001DD084F800A000BF8DF80490686A0690D2
:1015D000286A039001E0CAE08DE20024ADF808A07B
:1015E0008DF81440032100F8011B5168102210F0FF
:1015F00083FA002101A8FFF775FB2C6226E408207E
:101600002070E1E738781128A7D18DF80490686A36
:1016100006909068039000208DF814000398ADF8B0
:1016200008A0042100F8011B102204F1680110F049
:1016300063FA002101A8FFF755FB2078092802D0A2
:10164000132019E73CE384F800B016E0E17838781D
:10165000C90701D0062100E00A218842ADD110223D
:1016600004F14800796810F01BFA10B104202877C3
:10167000EAE3207809283FF4EEAC0C2081E5E0781D
:10168000C10738D0A17F012902D002291BD02EE04A
:101690000D202870296981F801B06078012809D0EF
:1016A000206A4860606A886004F16800C860103091
:1016B000086129E5606A4860206A886004F1780062
:1016C000C8601038F4E7C0F3440114290FD24FF07A
:1016D000006101EBB0104FEAB060E0706078012863
:1016E00003D010202070042057E10620C4E6607863
:1016F00001283FF476AC0E2043E538780928ADD1B7
:1017000085F800B00F208DF80400686A06905068D4
:101710000290002101A8FFF7E5FAE8E7E078C007AA
:101720000AD0A07F012803D10F202870042036E1C1
:10173000102028700E2032E115202870296902201F
:101740004870206C48606078012805D004F178006A
:1017500088601038C86053E104F168008860103078
:10176000F8E738780228CAD138790028E0D02877FD
:1017700068E338781328FBD185F800A02969082090
:10178000487078684860607801280DD004F16800DE
:1017900088601030C860206B0861606B486104F19C
:1017A00058008861A06A22E004F17800886010384F
:1017B000F0E738780728DBD16078012801D01320C2
:1017C00029E2A178A06A0844C1F1100110F00BFAD7
:1017D0001220287029690920487004F158004860D7
:1017E000203088601038C860206C086144E0C8610F
:1017F000E06A086204E138780828B9D1102204F1BF
:101800004800796810F04CF908B10B202FE72078D8
:101810000B2812D02046FFF789FAA178A06A084465
:10182000C1F1100110F0DFF91620287008208DF8A2
:101830000400686A0690002072E0132028708DF87A
:1018400004B0686A06908DF808A06BE43878112817
:101850008ED1B86828621420287029690920487040
:1018600004F158004860103088601030C860606C27
:1018700008616078012806D004F139004861206BC6
:101880008861606BB3E7601D4861606B8861206BA5
:10189000ADE7387808288ED18DF80490686A0690F4
:1018A000286A00260D210390ADF808A08DF8146079
:1018B00000F8011B1022796802E000007423020086
:1018C00010F01AF9002101A8FFF70CFA2E626078D7
:1018D000012801D01520CFE51620287008208DF8AA
:1018E0000400686A029606901BE038780B2884D1C1
:1018F000162028706078022802D12046FFF716FAD9
:10190000A17878680844C1F1100110F06CF901E089
:1019100083E215E008208DF80400686A0690786874
:101920000290A0788DF80C004DE538780F288FD103
:10193000E079C00773D01720287009202FE01146E6
:1019400001A8FFF7CFF9FFF7E2BB38781028A2D142
:101950001422391D04F11C0010F013F9E16A208DE6
:10196000A1F80900E16AA078C871E179E26A01F0A2
:1019700003011172E16A627A0A73E16AA07A81F85E
:10198000240000E09BE1242078E6192043E1387828
:101990001128ACD1B86828621A20287005208DF86B
:1019A0000400686A0690CAE7387803289FD16078F7
:1019B000E16A022802D0012001E05CE2002000EB95
:1019C0004002142000EBC2027B688A58196811603B
:1019D000596851601B212970D5E9041205234B7009
:1019E000636A4B606678E36A022E01D0012600E04C
:1019F000002606EB460600EBC6001858C1E90202B5
:101A0000686A4862089800F050FB9CE738780E2816
:101A100071D16078E26A022802D0012001E0ADE1D4
:101A2000002000EB4001102000EBC1000223105801
:101A3000093279680EF01EFB1C20287029690420E9
:101A40004870206A4860E06A09308860FB4881E697
:101A500038780D284FD16178E06A022901D0012140
:101A600000E0002101EB4101182606EBC101A2783C
:101A70004058796810F040F86078E16A022801D097
:101A8000012000E0002000EB400206EBC200B0465F
:101A90000858A1780844C1F1100110F0A4F88DF89D
:101AA0000490686A0690286A00260390ADF808A0A2
:101AB0008DF81460062101706178E26A022901D074
:101AC000012100E0002101EB410308EBC301401CB0
:101AD0005158102210F010F8002101A8FFF702F968
:101AE0001D202E6228708DF804B0686A06900B20C5
:101AF0008DF8080067E481E0387811287ED18DF8F0
:101B00000490686A0690B86803900B20ADF808004E
:101B1000039880F800906278E16A022A02D00122DC
:101B200001E091E1002202EB4202102303EBC2022A
:101B300089580988A0F801106178E26A022901D069
:101B4000012100E0002101EB4103142101EBC3015D
:101B500051580A6840F8032F4968416056E0272031
:101B6000287001208DF814002DE424202870002016
:101B70009FE01F204FE0387811283FD18DF8049066
:101B8000686A0690B868039000208DF814000398E6
:101B9000ADF808A0082606706178E26A022901D033
:101BA000012100E0002101EB41031C2101EBC301F5
:101BB000401C515810220FF09FFF002101A8FFF791
:101BC00091F8202028708DF804B0686A06908DF88E
:101BD000086061E43878112810D18DF80490686AA3
:101BE0000690B86803900820ADF808000398092112
:101BF0000170E16909784908417000E094E0E16909
:101C000051F8012FC0F802208988C18020781D2852
:101C1000ABD1A4E7222028708DF804B0686A069042
:101C20008DF808A08BE6387811287DD1B868286235
:101C300023202870296904204870206A4860E06ADF
:101C4000093088607E4885E538780D286CD1617848
:101C5000E06A022901D0012100E0002101EB4101ED
:101C6000202606EBC1011022405879680FF044FF8E
:101C70008DF80490686A0690286A0390ADF808A071
:101C800080F800B06278E16A022A01D0012200E007
:101C9000002202EB420206EBC202401C89581022CD
:101CA0000FF02AFF0020286221781D29B1D02421BD
:101CB00029708DF81400002101A8FFF713F80326FE
:101CC000DFE0E078C00702D04FF0060C01E04FF0F3
:101CD000070C6078022809D04FF0000000EB0401E7
:101CE00001F1090105D04FF0010004E04FF00100BF
:101CF000F4E74FF000000B78204413EA0C030B705C
:101D000010F8092F02EA0C02027004D14FF01C0CEB
:101D100084F800C092B394F801C0BCF1010F00D068
:101D2000E3B990F800C000E053E05FEACC7804D05B
:101D30002CF00106067018260EE05FEA8C7804D5B8
:101D40002CF0020606701E2606E05FEA4C7805D5E8
:101D50002CF00406067021262E70032694F801C08C
:101D6000BCF1020F00D0DAB991F800C05FEACC787C
:101D700005D02CF001060E7017210FE01AE05FEA83
:101D80008C7804D52CF002060E70192106E05FEA6B
:101D90004C7805D52CF004060E701B21217000260E
:101DA0000078D0BBCAB3C3BB1D20207035E03878A3
:101DB000122847D1282061E42078012842D00C283D
:101DC00040D02046FEF7D0FF0B208DF80400686A53
:101DD000069037E038784FF02608112805D01220F9
:101DE0001070032685F800804BE08DF80490686A37
:101DF0000690B86803900220ADF8080001208DF825
:101E00001400039805210170297F4170114601A833
:101E1000FEF768FF064685F80080012E12D030E0FC
:101E200001208DF80400686A069003208DF80800F0
:101E3000287F8DF809000020287716E06C23020027
:101E400070220200287F80B11E202070252028707B
:101E50008DF804B0686A069002208DF808003946B3
:101E600001A8FEF73FFF06460BE00CB1FE202070F4
:101E70009DF8040028B1002101A8FEF733FFFEF70A
:101E8000E5BF0BB03046BDE8F08FF0B587B00C462B
:101E90004E6900218DF804100120257803460227A1
:101EA0004FF0070C85B1012D50D0022D36D1FE2008
:101EB00030708DF80030606A059003208DF80400C2
:101EC000207E8DF8050060E02179012922D00229C9
:101ED00029D0032924D0042920D1B17F02291DD182
:101EE00031780D1F042D04D30A3D032D01D31E2983
:101EF00014D12189022911D38DF80470237020890F
:101F00009DF80410884217D20A208DF80000606AFC
:101F1000059057E070780128EED0052007B0F0BD9D
:101F20001E203070E8E771780229F6D131780C294B
:101F3000F4D18DF804C0E1E71120083402F8040B55
:101F400094E80B0082E80B000320E7E71578112DD9
:101F5000E4D18DF800C0656A0595956802958DF805
:101F6000101094F804E0BEF1010F13D0BEF1020F7F
:101F70002DD0BEF1030F1CD0BEF1040FCED1ADF8B1
:101F800004700E202870207E687000216846FEF7DD
:101F9000A9FE0CE0ADF804700B202870207E002113
:101FA00000F01F0068706846FEF79CFE3770002046
:101FB000B4E7ADF804708DF8103005202870207E4D
:101FC0006870277011466846FEF78CFEA6E7ADF8EC
:101FD00004C02B70207F6870607F00F00100A87043
:101FE000A07F00F01F00E870E27F2A71C0071CD0BC
:101FF00094F8200000F00700687194F8210000F0C8
:102000000700A87100216846FEF76CFE2868B063DF
:10201000A888B087A87986F83E00A06940787077D4
:102020002879B0700D203070C1E7A9716971E9E7B6
:1020300000B587B005280CD101208DF800008DF87F
:102040000400002005918DF8050001466846FEF762
:1020500049FE07B000BD70B50C46054602F0B4F865
:1020600021462846BDE870407823002202F002B8DD
:1020700008B1007870470C207047000070B50C0064
:1020800005784FF000010CD021702146F3F79DF840
:1020900072482178405D884201D1032070BD022042
:1020A00070BDF3F792F8002070BD027B032A05D0C3
:1020B00000220A704B780B2B02D003E004207047FB
:1020C0000A770A62027B9300521C0273C1500320FC
:1020D0007047F0B587B00F4605460124287B05EB15
:1020E000800050F8046C7078411E0C290AD25B49BC
:1020F0003A46123101EB8000314650F8043C284644
:10210000984704460CB1012C11D1287B401E10F0D9
:10211000FF00287301D00324E0E70C208DF80000B5
:10212000706A0590002101966846FFF7A7FF032C0F
:10213000D4D007B02046F0BD70B515460A46044617
:1021400029461046FFF7C5FF064674B12078FE28E1
:102150000BD1207E30B100202870294604F10C00FC
:10216000FFF7B7FF2046FEF7FFFD304670BD704712
:1021700070B50E46044688210FF057FD0225012E4A
:1021800003D0022E04D0052070BD0120607000E055
:1021900065702046FEF7E8FDA577002070BD28B1E8
:1021A000027E1AB10A4600F10C01C5E70120704712
:1021B00010B5044686B0052002F006F82078FE2807
:1021C00006D000208DF8000069462046FFF7E7FFA3
:1021D00006B010BD7FB50E4600218DF80C10417879
:1021E0000B2903D00C2903D0002405E0846900E00A
:1021F00044690CB1217E91B16D4601462846FFF736
:1022000054FF032809D1324629462046FFF794FFA0
:102210009DF80C10002900D0042004B070BD04F11A
:102220000C05EAE710B590B00C4607900B48042166
:10223000801E08900A488DF8191009900F9269467F
:1022400006A8FFF7C7FF002805D1102220460199F4
:102250000FF052FC002010B010BD000076220200EA
:102260006C23020070B50D46040011D085B1210128
:1022700028460FF0B8FC10224E4928460FF03CFCCF
:102280004C4801210838018044804560002070BD21
:10229000012070BD70B5474E00240546083E10E091
